{
	"contracts/LibUse.sol": {
		"LibUse": {
			"abi": [
				{
					"inputs": [
						{
							"internalType": "uint256",
							"name": "value",
							"type": "uint256"
						},
						{
							"internalType": "uint256",
							"name": "length",
							"type": "uint256"
						}
					],
					"name": "StringsInsufficientHexLength",
					"type": "error"
				},
				{
					"inputs": [
						{
							"internalType": "uint256",
							"name": "_number",
							"type": "uint256"
						}
					],
					"name": "getString",
					"outputs": [
						{
							"internalType": "string",
							"name": "",
							"type": "string"
						}
					],
					"stateMutability": "pure",
					"type": "function"
				}
			],
			"devdoc": {
				"errors": {
					"StringsInsufficientHexLength(uint256,uint256)": [
						{
							"details": "The `value` string doesn't fit in the specified `length`."
						}
					]
				},
				"kind": "dev",
				"methods": {},
				"version": 1
			},
			"evm": {
				"assembly": "    /* \"contracts/LibUse.sol\":382:535  contract LibUse {... */\n  mstore(0x40, 0x80)\n  callvalue\n  dup1\n  iszero\n  tag_1\n  jumpi\n  0x00\n  dup1\n  revert\ntag_1:\n  pop\n  dataSize(sub_0)\n  dup1\n  dataOffset(sub_0)\n  0x00\n  codecopy\n  0x00\n  return\nstop\n\nsub_0: assembly {\n        /* \"contracts/LibUse.sol\":382:535  contract LibUse {... */\n      mstore(0x40, 0x80)\n      callvalue\n      dup1\n      iszero\n      tag_1\n      jumpi\n      0x00\n      dup1\n      revert\n    tag_1:\n      pop\n      jumpi(tag_2, lt(calldatasize, 0x04))\n      shr(0xe0, calldataload(0x00))\n      dup1\n      0xb7c763b5\n      eq\n      tag_3\n      jumpi\n    tag_2:\n      0x00\n      dup1\n      revert\n        /* \"contracts/LibUse.sol\":409:533  function getString(uint256 _number) public pure returns (string memory) {... */\n    tag_3:\n      tag_4\n      0x04\n      dup1\n      calldatasize\n      sub\n      dup2\n      add\n      swap1\n      tag_5\n      swap2\n      swap1\n      tag_6\n      jump\t// in\n    tag_5:\n      tag_7\n      jump\t// in\n    tag_4:\n      mload(0x40)\n      tag_8\n      swap2\n      swap1\n      tag_9\n      jump\t// in\n    tag_8:\n      mload(0x40)\n      dup1\n      swap2\n      sub\n      swap1\n      return\n    tag_7:\n        /* \"contracts/LibUse.sol\":466:479  string memory */\n      0x60\n        /* \"contracts/LibUse.sol\":498:526  Strings.toHexString(_number) */\n      tag_11\n        /* \"contracts/LibUse.sol\":518:525  _number */\n      dup3\n        /* \"contracts/LibUse.sol\":498:517  Strings.toHexString */\n      tag_12\n        /* \"contracts/LibUse.sol\":498:526  Strings.toHexString(_number) */\n      jump\t// in\n    tag_11:\n        /* \"contracts/LibUse.sol\":491:526  return Strings.toHexString(_number) */\n      swap1\n      pop\n        /* \"contracts/LibUse.sol\":409:533  function getString(uint256 _number) public pure returns (string memory) {... */\n      swap2\n      swap1\n      pop\n      jump\t// out\n        /* \"https://github.com/OpenZeppelin/openzeppelin-contracts/blob/master/contracts/utils/Strings.sol\":1708:1882  function toHexString(uint256 value) internal pure returns (string memory) {... */\n    tag_12:\n        /* \"https://github.com/OpenZeppelin/openzeppelin-contracts/blob/master/contracts/utils/Strings.sol\":1767:1780  string memory */\n      0x60\n        /* \"https://github.com/OpenZeppelin/openzeppelin-contracts/blob/master/contracts/utils/Strings.sol\":1823:1865  toHexString(value, Math.log256(value) + 1) */\n      tag_14\n        /* \"https://github.com/OpenZeppelin/openzeppelin-contracts/blob/master/contracts/utils/Strings.sol\":1835:1840  value */\n      dup3\n        /* \"https://github.com/OpenZeppelin/openzeppelin-contracts/blob/master/contracts/utils/Strings.sol\":1863:1864  1 */\n      0x01\n        /* \"https://github.com/OpenZeppelin/openzeppelin-contracts/blob/master/contracts/utils/Strings.sol\":1842:1860  Math.log256(value) */\n      tag_15\n        /* \"https://github.com/OpenZeppelin/openzeppelin-contracts/blob/master/contracts/utils/Strings.sol\":1854:1859  value */\n      dup6\n        /* \"https://github.com/OpenZeppelin/openzeppelin-contracts/blob/master/contracts/utils/Strings.sol\":1842:1853  Math.log256 */\n      tag_16\n        /* \"https://github.com/OpenZeppelin/openzeppelin-contracts/blob/master/contracts/utils/Strings.sol\":1842:1860  Math.log256(value) */\n      jump\t// in\n    tag_15:\n        /* \"https://github.com/OpenZeppelin/openzeppelin-contracts/blob/master/contracts/utils/Strings.sol\":1842:1864  Math.log256(value) + 1 */\n      add\n        /* \"https://github.com/OpenZeppelin/openzeppelin-contracts/blob/master/contracts/utils/Strings.sol\":1823:1834  toHexString */\n      tag_17\n        /* \"https://github.com/OpenZeppelin/openzeppelin-contracts/blob/master/contracts/utils/Strings.sol\":1823:1865  toHexString(value, Math.log256(value) + 1) */\n      jump\t// in\n    tag_14:\n        /* \"https://github.com/OpenZeppelin/openzeppelin-contracts/blob/master/contracts/utils/Strings.sol\":1816:1865  return toHexString(value, Math.log256(value) + 1) */\n      swap1\n      pop\n        /* \"https://github.com/OpenZeppelin/openzeppelin-contracts/blob/master/contracts/utils/Strings.sol\":1708:1882  function toHexString(uint256 value) internal pure returns (string memory) {... */\n      swap2\n      swap1\n      pop\n      jump\t// out\n        /* \"https://github.com/OpenZeppelin/openzeppelin-contracts/blob/master/contracts/utils/math/Math.sol\":26955:27692  function log256(uint256 value) internal pure returns (uint256) {... */\n    tag_16:\n        /* \"https://github.com/OpenZeppelin/openzeppelin-contracts/blob/master/contracts/utils/math/Math.sol\":27009:27016  uint256 */\n      0x00\n        /* \"https://github.com/OpenZeppelin/openzeppelin-contracts/blob/master/contracts/utils/math/Math.sol\":27028:27042  uint256 result */\n      dup1\n        /* \"https://github.com/OpenZeppelin/openzeppelin-contracts/blob/master/contracts/utils/math/Math.sol\":27045:27046  0 */\n      0x00\n        /* \"https://github.com/OpenZeppelin/openzeppelin-contracts/blob/master/contracts/utils/math/Math.sol\":27028:27046  uint256 result = 0 */\n      swap1\n      pop\n        /* \"https://github.com/OpenZeppelin/openzeppelin-contracts/blob/master/contracts/utils/math/Math.sol\":27056:27068  uint256 isGt */\n      0x00\n        /* \"https://github.com/OpenZeppelin/openzeppelin-contracts/blob/master/contracts/utils/math/Math.sol\":27109:27148  SafeCast.toUint(value > (1 << 128) - 1) */\n      tag_19\n        /* \"https://github.com/OpenZeppelin/openzeppelin-contracts/blob/master/contracts/utils/math/Math.sol\":27133:27147  (1 << 128) - 1 */\n      0xffffffffffffffffffffffffffffffff\n        /* \"https://github.com/OpenZeppelin/openzeppelin-contracts/blob/master/contracts/utils/math/Math.sol\":27125:27130  value */\n      dup6\n        /* \"https://github.com/OpenZeppelin/openzeppelin-contracts/blob/master/contracts/utils/math/Math.sol\":27125:27147  value > (1 << 128) - 1 */\n      gt\n        /* \"https://github.com/OpenZeppelin/openzeppelin-contracts/blob/master/contracts/utils/math/Math.sol\":27109:27124  SafeCast.toUint */\n      tag_20\n        /* \"https://github.com/OpenZeppelin/openzeppelin-contracts/blob/master/contracts/utils/math/Math.sol\":27109:27148  SafeCast.toUint(value > (1 << 128) - 1) */\n      jump\t// in\n    tag_19:\n        /* \"https://github.com/OpenZeppelin/openzeppelin-contracts/blob/master/contracts/utils/math/Math.sol\":27102:27148  isGt = SafeCast.toUint(value > (1 << 128) - 1) */\n      swap1\n      pop\n        /* \"https://github.com/OpenZeppelin/openzeppelin-contracts/blob/master/contracts/utils/math/Math.sol\":27179:27182  128 */\n      0x80\n        /* \"https://github.com/OpenZeppelin/openzeppelin-contracts/blob/master/contracts/utils/math/Math.sol\":27172:27176  isGt */\n      dup2\n        /* \"https://github.com/OpenZeppelin/openzeppelin-contracts/blob/master/contracts/utils/math/Math.sol\":27172:27182  isGt * 128 */\n      mul\n        /* \"https://github.com/OpenZeppelin/openzeppelin-contracts/blob/master/contracts/utils/math/Math.sol\":27162:27182  value >>= isGt * 128 */\n      dup5\n      swap1\n      shr\n      swap4\n      pop\n        /* \"https://github.com/OpenZeppelin/openzeppelin-contracts/blob/master/contracts/utils/math/Math.sol\":27213:27215  16 */\n      0x10\n        /* \"https://github.com/OpenZeppelin/openzeppelin-contracts/blob/master/contracts/utils/math/Math.sol\":27206:27210  isGt */\n      dup2\n        /* \"https://github.com/OpenZeppelin/openzeppelin-contracts/blob/master/contracts/utils/math/Math.sol\":27206:27215  isGt * 16 */\n      mul\n        /* \"https://github.com/OpenZeppelin/openzeppelin-contracts/blob/master/contracts/utils/math/Math.sol\":27196:27215  result += isGt * 16 */\n      dup3\n      add\n      swap2\n      pop\n        /* \"https://github.com/OpenZeppelin/openzeppelin-contracts/blob/master/contracts/utils/math/Math.sol\":27237:27275  SafeCast.toUint(value > (1 << 64) - 1) */\n      tag_21\n        /* \"https://github.com/OpenZeppelin/openzeppelin-contracts/blob/master/contracts/utils/math/Math.sol\":27261:27274  (1 << 64) - 1 */\n      0xffffffffffffffff\n        /* \"https://github.com/OpenZeppelin/openzeppelin-contracts/blob/master/contracts/utils/math/Math.sol\":27253:27258  value */\n      dup6\n        /* \"https://github.com/OpenZeppelin/openzeppelin-contracts/blob/master/contracts/utils/math/Math.sol\":27253:27274  value > (1 << 64) - 1 */\n      gt\n        /* \"https://github.com/OpenZeppelin/openzeppelin-contracts/blob/master/contracts/utils/math/Math.sol\":27237:27252  SafeCast.toUint */\n      tag_20\n        /* \"https://github.com/OpenZeppelin/openzeppelin-contracts/blob/master/contracts/utils/math/Math.sol\":27237:27275  SafeCast.toUint(value > (1 << 64) - 1) */\n      jump\t// in\n    tag_21:\n        /* \"https://github.com/OpenZeppelin/openzeppelin-contracts/blob/master/contracts/utils/math/Math.sol\":27230:27275  isGt = SafeCast.toUint(value > (1 << 64) - 1) */\n      swap1\n      pop\n        /* \"https://github.com/OpenZeppelin/openzeppelin-contracts/blob/master/contracts/utils/math/Math.sol\":27306:27308  64 */\n      0x40\n        /* \"https://github.com/OpenZeppelin/openzeppelin-contracts/blob/master/contracts/utils/math/Math.sol\":27299:27303  isGt */\n      dup2\n        /* \"https://github.com/OpenZeppelin/openzeppelin-contracts/blob/master/contracts/utils/math/Math.sol\":27299:27308  isGt * 64 */\n      mul\n        /* \"https://github.com/OpenZeppelin/openzeppelin-contracts/blob/master/contracts/utils/math/Math.sol\":27289:27308  value >>= isGt * 64 */\n      dup5\n      swap1\n      shr\n      swap4\n      pop\n        /* \"https://github.com/OpenZeppelin/openzeppelin-contracts/blob/master/contracts/utils/math/Math.sol\":27339:27340  8 */\n      0x08\n        /* \"https://github.com/OpenZeppelin/openzeppelin-contracts/blob/master/contracts/utils/math/Math.sol\":27332:27336  isGt */\n      dup2\n        /* \"https://github.com/OpenZeppelin/openzeppelin-contracts/blob/master/contracts/utils/math/Math.sol\":27332:27340  isGt * 8 */\n      mul\n        /* \"https://github.com/OpenZeppelin/openzeppelin-contracts/blob/master/contracts/utils/math/Math.sol\":27322:27340  result += isGt * 8 */\n      dup3\n      add\n      swap2\n      pop\n        /* \"https://github.com/OpenZeppelin/openzeppelin-contracts/blob/master/contracts/utils/math/Math.sol\":27362:27400  SafeCast.toUint(value > (1 << 32) - 1) */\n      tag_22\n        /* \"https://github.com/OpenZeppelin/openzeppelin-contracts/blob/master/contracts/utils/math/Math.sol\":27386:27399  (1 << 32) - 1 */\n      0xffffffff\n        /* \"https://github.com/OpenZeppelin/openzeppelin-contracts/blob/master/contracts/utils/math/Math.sol\":27378:27383  value */\n      dup6\n        /* \"https://github.com/OpenZeppelin/openzeppelin-contracts/blob/master/contracts/utils/math/Math.sol\":27378:27399  value > (1 << 32) - 1 */\n      gt\n        /* \"https://github.com/OpenZeppelin/openzeppelin-contracts/blob/master/contracts/utils/math/Math.sol\":27362:27377  SafeCast.toUint */\n      tag_20\n        /* \"https://github.com/OpenZeppelin/openzeppelin-contracts/blob/master/contracts/utils/math/Math.sol\":27362:27400  SafeCast.toUint(value > (1 << 32) - 1) */\n      jump\t// in\n    tag_22:\n        /* \"https://github.com/OpenZeppelin/openzeppelin-contracts/blob/master/contracts/utils/math/Math.sol\":27355:27400  isGt = SafeCast.toUint(value > (1 << 32) - 1) */\n      swap1\n      pop\n        /* \"https://github.com/OpenZeppelin/openzeppelin-contracts/blob/master/contracts/utils/math/Math.sol\":27431:27433  32 */\n      0x20\n        /* \"https://github.com/OpenZeppelin/openzeppelin-contracts/blob/master/contracts/utils/math/Math.sol\":27424:27428  isGt */\n      dup2\n        /* \"https://github.com/OpenZeppelin/openzeppelin-contracts/blob/master/contracts/utils/math/Math.sol\":27424:27433  isGt * 32 */\n      mul\n        /* \"https://github.com/OpenZeppelin/openzeppelin-contracts/blob/master/contracts/utils/math/Math.sol\":27414:27433  value >>= isGt * 32 */\n      dup5\n      swap1\n      shr\n      swap4\n      pop\n        /* \"https://github.com/OpenZeppelin/openzeppelin-contracts/blob/master/contracts/utils/math/Math.sol\":27464:27465  4 */\n      0x04\n        /* \"https://github.com/OpenZeppelin/openzeppelin-contracts/blob/master/contracts/utils/math/Math.sol\":27457:27461  isGt */\n      dup2\n        /* \"https://github.com/OpenZeppelin/openzeppelin-contracts/blob/master/contracts/utils/math/Math.sol\":27457:27465  isGt * 4 */\n      mul\n        /* \"https://github.com/OpenZeppelin/openzeppelin-contracts/blob/master/contracts/utils/math/Math.sol\":27447:27465  result += isGt * 4 */\n      dup3\n      add\n      swap2\n      pop\n        /* \"https://github.com/OpenZeppelin/openzeppelin-contracts/blob/master/contracts/utils/math/Math.sol\":27487:27525  SafeCast.toUint(value > (1 << 16) - 1) */\n      tag_23\n        /* \"https://github.com/OpenZeppelin/openzeppelin-contracts/blob/master/contracts/utils/math/Math.sol\":27511:27524  (1 << 16) - 1 */\n      0xffff\n        /* \"https://github.com/OpenZeppelin/openzeppelin-contracts/blob/master/contracts/utils/math/Math.sol\":27503:27508  value */\n      dup6\n        /* \"https://github.com/OpenZeppelin/openzeppelin-contracts/blob/master/contracts/utils/math/Math.sol\":27503:27524  value > (1 << 16) - 1 */\n      gt\n        /* \"https://github.com/OpenZeppelin/openzeppelin-contracts/blob/master/contracts/utils/math/Math.sol\":27487:27502  SafeCast.toUint */\n      tag_20\n        /* \"https://github.com/OpenZeppelin/openzeppelin-contracts/blob/master/contracts/utils/math/Math.sol\":27487:27525  SafeCast.toUint(value > (1 << 16) - 1) */\n      jump\t// in\n    tag_23:\n        /* \"https://github.com/OpenZeppelin/openzeppelin-contracts/blob/master/contracts/utils/math/Math.sol\":27480:27525  isGt = SafeCast.toUint(value > (1 << 16) - 1) */\n      swap1\n      pop\n        /* \"https://github.com/OpenZeppelin/openzeppelin-contracts/blob/master/contracts/utils/math/Math.sol\":27556:27558  16 */\n      0x10\n        /* \"https://github.com/OpenZeppelin/openzeppelin-contracts/blob/master/contracts/utils/math/Math.sol\":27549:27553  isGt */\n      dup2\n        /* \"https://github.com/OpenZeppelin/openzeppelin-contracts/blob/master/contracts/utils/math/Math.sol\":27549:27558  isGt * 16 */\n      mul\n        /* \"https://github.com/OpenZeppelin/openzeppelin-contracts/blob/master/contracts/utils/math/Math.sol\":27539:27558  value >>= isGt * 16 */\n      dup5\n      swap1\n      shr\n      swap4\n      pop\n        /* \"https://github.com/OpenZeppelin/openzeppelin-contracts/blob/master/contracts/utils/math/Math.sol\":27589:27590  2 */\n      0x02\n        /* \"https://github.com/OpenZeppelin/openzeppelin-contracts/blob/master/contracts/utils/math/Math.sol\":27582:27586  isGt */\n      dup2\n        /* \"https://github.com/OpenZeppelin/openzeppelin-contracts/blob/master/contracts/utils/math/Math.sol\":27582:27590  isGt * 2 */\n      mul\n        /* \"https://github.com/OpenZeppelin/openzeppelin-contracts/blob/master/contracts/utils/math/Math.sol\":27572:27590  result += isGt * 2 */\n      dup3\n      add\n      swap2\n      pop\n        /* \"https://github.com/OpenZeppelin/openzeppelin-contracts/blob/master/contracts/utils/math/Math.sol\":27615:27652  SafeCast.toUint(value > (1 << 8) - 1) */\n      tag_24\n        /* \"https://github.com/OpenZeppelin/openzeppelin-contracts/blob/master/contracts/utils/math/Math.sol\":27639:27651  (1 << 8) - 1 */\n      0xff\n        /* \"https://github.com/OpenZeppelin/openzeppelin-contracts/blob/master/contracts/utils/math/Math.sol\":27631:27636  value */\n      dup6\n        /* \"https://github.com/OpenZeppelin/openzeppelin-contracts/blob/master/contracts/utils/math/Math.sol\":27631:27651  value > (1 << 8) - 1 */\n      gt\n        /* \"https://github.com/OpenZeppelin/openzeppelin-contracts/blob/master/contracts/utils/math/Math.sol\":27615:27630  SafeCast.toUint */\n      tag_20\n        /* \"https://github.com/OpenZeppelin/openzeppelin-contracts/blob/master/contracts/utils/math/Math.sol\":27615:27652  SafeCast.toUint(value > (1 << 8) - 1) */\n      jump\t// in\n    tag_24:\n        /* \"https://github.com/OpenZeppelin/openzeppelin-contracts/blob/master/contracts/utils/math/Math.sol\":27605:27652  result += SafeCast.toUint(value > (1 << 8) - 1) */\n      dup3\n      add\n      swap2\n      pop\n        /* \"https://github.com/OpenZeppelin/openzeppelin-contracts/blob/master/contracts/utils/math/Math.sol\":27679:27685  result */\n      dup2\n        /* \"https://github.com/OpenZeppelin/openzeppelin-contracts/blob/master/contracts/utils/math/Math.sol\":27672:27685  return result */\n      swap3\n      pop\n      pop\n      pop\n        /* \"https://github.com/OpenZeppelin/openzeppelin-contracts/blob/master/contracts/utils/math/Math.sol\":26955:27692  function log256(uint256 value) internal pure returns (uint256) {... */\n      swap2\n      swap1\n      pop\n      jump\t// out\n        /* \"https://github.com/OpenZeppelin/openzeppelin-contracts/blob/master/contracts/utils/Strings.sol\":2005:2530  function toHexString(uint256 value, uint256 length) internal pure returns (string memory) {... */\n    tag_17:\n        /* \"https://github.com/OpenZeppelin/openzeppelin-contracts/blob/master/contracts/utils/Strings.sol\":2080:2093  string memory */\n      0x60\n        /* \"https://github.com/OpenZeppelin/openzeppelin-contracts/blob/master/contracts/utils/Strings.sol\":2105:2123  uint256 localValue */\n      0x00\n        /* \"https://github.com/OpenZeppelin/openzeppelin-contracts/blob/master/contracts/utils/Strings.sol\":2126:2131  value */\n      dup4\n        /* \"https://github.com/OpenZeppelin/openzeppelin-contracts/blob/master/contracts/utils/Strings.sol\":2105:2131  uint256 localValue = value */\n      swap1\n      pop\n        /* \"https://github.com/OpenZeppelin/openzeppelin-contracts/blob/master/contracts/utils/Strings.sol\":2141:2160  bytes memory buffer */\n      0x00\n        /* \"https://github.com/OpenZeppelin/openzeppelin-contracts/blob/master/contracts/utils/Strings.sol\":2186:2187  2 */\n      0x02\n        /* \"https://github.com/OpenZeppelin/openzeppelin-contracts/blob/master/contracts/utils/Strings.sol\":2177:2183  length */\n      dup5\n        /* \"https://github.com/OpenZeppelin/openzeppelin-contracts/blob/master/contracts/utils/Strings.sol\":2173:2174  2 */\n      0x02\n        /* \"https://github.com/OpenZeppelin/openzeppelin-contracts/blob/master/contracts/utils/Strings.sol\":2173:2183  2 * length */\n      tag_26\n      swap2\n      swap1\n      tag_27\n      jump\t// in\n    tag_26:\n        /* \"https://github.com/OpenZeppelin/openzeppelin-contracts/blob/master/contracts/utils/Strings.sol\":2173:2187  2 * length + 2 */\n      tag_28\n      swap2\n      swap1\n      tag_29\n      jump\t// in\n    tag_28:\n        /* \"https://github.com/OpenZeppelin/openzeppelin-contracts/blob/master/contracts/utils/Strings.sol\":2163:2188  new bytes(2 * length + 2) */\n      0xffffffffffffffff\n      dup2\n      gt\n      iszero\n      tag_30\n      jumpi\n      tag_31\n      tag_32\n      jump\t// in\n    tag_31:\n    tag_30:\n      mload(0x40)\n      swap1\n      dup1\n      dup3\n      mstore\n      dup1\n      0x1f\n      add\n      not(0x1f)\n      and\n      0x20\n      add\n      dup3\n      add\n      0x40\n      mstore\n      dup1\n      iszero\n      tag_33\n      jumpi\n      dup2\n      0x20\n      add\n      0x01\n      dup3\n      mul\n      dup1\n      calldatasize\n      dup4\n      calldatacopy\n      dup1\n      dup3\n      add\n      swap2\n      pop\n      pop\n      swap1\n      pop\n    tag_33:\n      pop\n        /* \"https://github.com/OpenZeppelin/openzeppelin-contracts/blob/master/contracts/utils/Strings.sol\":2141:2188  bytes memory buffer = new bytes(2 * length + 2) */\n      swap1\n      pop\n        /* \"https://github.com/OpenZeppelin/openzeppelin-contracts/blob/master/contracts/utils/Strings.sol\":2198:2213  buffer[0] = \"0\" */\n      0x3000000000000000000000000000000000000000000000000000000000000000\n        /* \"https://github.com/OpenZeppelin/openzeppelin-contracts/blob/master/contracts/utils/Strings.sol\":2198:2204  buffer */\n      dup2\n        /* \"https://github.com/OpenZeppelin/openzeppelin-contracts/blob/master/contracts/utils/Strings.sol\":2205:2206  0 */\n      0x00\n        /* \"https://github.com/OpenZeppelin/openzeppelin-contracts/blob/master/contracts/utils/Strings.sol\":2198:2207  buffer[0] */\n      dup2\n      mload\n      dup2\n      lt\n      tag_34\n      jumpi\n      tag_35\n      tag_36\n      jump\t// in\n    tag_35:\n    tag_34:\n      0x20\n      add\n      add\n        /* \"https://github.com/OpenZeppelin/openzeppelin-contracts/blob/master/contracts/utils/Strings.sol\":2198:2213  buffer[0] = \"0\" */\n      swap1\n      not(0xffffffffffffffffffffffffffffffffffffffffffffffffffffffffffffff)\n      and\n      swap1\n      dup2\n      0x00\n      byte\n      swap1\n      mstore8\n      pop\n        /* \"https://github.com/OpenZeppelin/openzeppelin-contracts/blob/master/contracts/utils/Strings.sol\":2223:2238  buffer[1] = \"x\" */\n      0x7800000000000000000000000000000000000000000000000000000000000000\n        /* \"https://github.com/OpenZeppelin/openzeppelin-contracts/blob/master/contracts/utils/Strings.sol\":2223:2229  buffer */\n      dup2\n        /* \"https://github.com/OpenZeppelin/openzeppelin-contracts/blob/master/contracts/utils/Strings.sol\":2230:2231  1 */\n      0x01\n        /* \"https://github.com/OpenZeppelin/openzeppelin-contracts/blob/master/contracts/utils/Strings.sol\":2223:2232  buffer[1] */\n      dup2\n      mload\n      dup2\n      lt\n      tag_37\n      jumpi\n      tag_38\n      tag_36\n      jump\t// in\n    tag_38:\n    tag_37:\n      0x20\n      add\n      add\n        /* \"https://github.com/OpenZeppelin/openzeppelin-contracts/blob/master/contracts/utils/Strings.sol\":2223:2238  buffer[1] = \"x\" */\n      swap1\n      not(0xffffffffffffffffffffffffffffffffffffffffffffffffffffffffffffff)\n      and\n      swap1\n      dup2\n      0x00\n      byte\n      swap1\n      mstore8\n      pop\n        /* \"https://github.com/OpenZeppelin/openzeppelin-contracts/blob/master/contracts/utils/Strings.sol\":2253:2262  uint256 i */\n      0x00\n        /* \"https://github.com/OpenZeppelin/openzeppelin-contracts/blob/master/contracts/utils/Strings.sol\":2278:2279  1 */\n      0x01\n        /* \"https://github.com/OpenZeppelin/openzeppelin-contracts/blob/master/contracts/utils/Strings.sol\":2269:2275  length */\n      dup6\n        /* \"https://github.com/OpenZeppelin/openzeppelin-contracts/blob/master/contracts/utils/Strings.sol\":2265:2266  2 */\n      0x02\n        /* \"https://github.com/OpenZeppelin/openzeppelin-contracts/blob/master/contracts/utils/Strings.sol\":2265:2275  2 * length */\n      tag_42\n      swap2\n      swap1\n      tag_27\n      jump\t// in\n    tag_42:\n        /* \"https://github.com/OpenZeppelin/openzeppelin-contracts/blob/master/contracts/utils/Strings.sol\":2265:2279  2 * length + 1 */\n      tag_43\n      swap2\n      swap1\n      tag_29\n      jump\t// in\n    tag_43:\n        /* \"https://github.com/OpenZeppelin/openzeppelin-contracts/blob/master/contracts/utils/Strings.sol\":2253:2279  uint256 i = 2 * length + 1 */\n      swap1\n      pop\n        /* \"https://github.com/OpenZeppelin/openzeppelin-contracts/blob/master/contracts/utils/Strings.sol\":2248:2388  for (uint256 i = 2 * length + 1; i > 1; --i) {... */\n    tag_39:\n        /* \"https://github.com/OpenZeppelin/openzeppelin-contracts/blob/master/contracts/utils/Strings.sol\":2285:2286  1 */\n      0x01\n        /* \"https://github.com/OpenZeppelin/openzeppelin-contracts/blob/master/contracts/utils/Strings.sol\":2281:2282  i */\n      dup2\n        /* \"https://github.com/OpenZeppelin/openzeppelin-contracts/blob/master/contracts/utils/Strings.sol\":2281:2286  i > 1 */\n      gt\n        /* \"https://github.com/OpenZeppelin/openzeppelin-contracts/blob/master/contracts/utils/Strings.sol\":2248:2388  for (uint256 i = 2 * length + 1; i > 1; --i) {... */\n      iszero\n      tag_40\n      jumpi\n        /* \"https://github.com/OpenZeppelin/openzeppelin-contracts/blob/master/contracts/utils/Strings.sol\":2319:2329  HEX_DIGITS */\n      0x3031323334353637383961626364656600000000000000000000000000000000\n        /* \"https://github.com/OpenZeppelin/openzeppelin-contracts/blob/master/contracts/utils/Strings.sol\":2343:2346  0xf */\n      0x0f\n        /* \"https://github.com/OpenZeppelin/openzeppelin-contracts/blob/master/contracts/utils/Strings.sol\":2330:2340  localValue */\n      dup5\n        /* \"https://github.com/OpenZeppelin/openzeppelin-contracts/blob/master/contracts/utils/Strings.sol\":2330:2346  localValue & 0xf */\n      and\n        /* \"https://github.com/OpenZeppelin/openzeppelin-contracts/blob/master/contracts/utils/Strings.sol\":2319:2347  HEX_DIGITS[localValue & 0xf] */\n      0x10\n      dup2\n      lt\n      tag_44\n      jumpi\n      tag_45\n      tag_36\n      jump\t// in\n    tag_45:\n    tag_44:\n      byte\n      0xf8\n      shl\n        /* \"https://github.com/OpenZeppelin/openzeppelin-contracts/blob/master/contracts/utils/Strings.sol\":2307:2313  buffer */\n      dup3\n        /* \"https://github.com/OpenZeppelin/openzeppelin-contracts/blob/master/contracts/utils/Strings.sol\":2314:2315  i */\n      dup3\n        /* \"https://github.com/OpenZeppelin/openzeppelin-contracts/blob/master/contracts/utils/Strings.sol\":2307:2316  buffer[i] */\n      dup2\n      mload\n      dup2\n      lt\n      tag_46\n      jumpi\n      tag_47\n      tag_36\n      jump\t// in\n    tag_47:\n    tag_46:\n      0x20\n      add\n      add\n        /* \"https://github.com/OpenZeppelin/openzeppelin-contracts/blob/master/contracts/utils/Strings.sol\":2307:2347  buffer[i] = HEX_DIGITS[localValue & 0xf] */\n      swap1\n      not(0xffffffffffffffffffffffffffffffffffffffffffffffffffffffffffffff)\n      and\n      swap1\n      dup2\n      0x00\n      byte\n      swap1\n      mstore8\n      pop\n        /* \"https://github.com/OpenZeppelin/openzeppelin-contracts/blob/master/contracts/utils/Strings.sol\":2376:2377  4 */\n      0x04\n        /* \"https://github.com/OpenZeppelin/openzeppelin-contracts/blob/master/contracts/utils/Strings.sol\":2361:2377  localValue >>= 4 */\n      dup4\n      swap1\n      shr\n      swap3\n      pop\n        /* \"https://github.com/OpenZeppelin/openzeppelin-contracts/blob/master/contracts/utils/Strings.sol\":2288:2291  --i */\n      dup1\n      tag_48\n      swap1\n      tag_49\n      jump\t// in\n    tag_48:\n      swap1\n      pop\n        /* \"https://github.com/OpenZeppelin/openzeppelin-contracts/blob/master/contracts/utils/Strings.sol\":2248:2388  for (uint256 i = 2 * length + 1; i > 1; --i) {... */\n      jump(tag_39)\n    tag_40:\n      pop\n        /* \"https://github.com/OpenZeppelin/openzeppelin-contracts/blob/master/contracts/utils/Strings.sol\":2415:2416  0 */\n      0x00\n        /* \"https://github.com/OpenZeppelin/openzeppelin-contracts/blob/master/contracts/utils/Strings.sol\":2401:2411  localValue */\n      dup3\n        /* \"https://github.com/OpenZeppelin/openzeppelin-contracts/blob/master/contracts/utils/Strings.sol\":2401:2416  localValue != 0 */\n      eq\n        /* \"https://github.com/OpenZeppelin/openzeppelin-contracts/blob/master/contracts/utils/Strings.sol\":2397:2493  if (localValue != 0) {... */\n      tag_50\n      jumpi\n        /* \"https://github.com/OpenZeppelin/openzeppelin-contracts/blob/master/contracts/utils/Strings.sol\":2468:2473  value */\n      dup5\n        /* \"https://github.com/OpenZeppelin/openzeppelin-contracts/blob/master/contracts/utils/Strings.sol\":2475:2481  length */\n      dup5\n        /* \"https://github.com/OpenZeppelin/openzeppelin-contracts/blob/master/contracts/utils/Strings.sol\":2439:2482  StringsInsufficientHexLength(value, length) */\n      mload(0x40)\n      0xe22e27eb00000000000000000000000000000000000000000000000000000000\n      dup2\n      mstore\n      0x04\n      add\n      tag_51\n      swap3\n      swap2\n      swap1\n      tag_52\n      jump\t// in\n    tag_51:\n      mload(0x40)\n      dup1\n      swap2\n      sub\n      swap1\n      revert\n        /* \"https://github.com/OpenZeppelin/openzeppelin-contracts/blob/master/contracts/utils/Strings.sol\":2397:2493  if (localValue != 0) {... */\n    tag_50:\n        /* \"https://github.com/OpenZeppelin/openzeppelin-contracts/blob/master/contracts/utils/Strings.sol\":2516:2522  buffer */\n      dup1\n        /* \"https://github.com/OpenZeppelin/openzeppelin-contracts/blob/master/contracts/utils/Strings.sol\":2502:2523  return string(buffer) */\n      swap3\n      pop\n      pop\n      pop\n        /* \"https://github.com/OpenZeppelin/openzeppelin-contracts/blob/master/contracts/utils/Strings.sol\":2005:2530  function toHexString(uint256 value, uint256 length) internal pure returns (string memory) {... */\n      swap3\n      swap2\n      pop\n      pop\n      jump\t// out\n        /* \"https://github.com/OpenZeppelin/openzeppelin-contracts/blob/master/contracts/utils/math/SafeCast.sol\":34795:34967  function toUint(bool b) internal pure returns (uint256 u) {... */\n    tag_20:\n        /* \"https://github.com/OpenZeppelin/openzeppelin-contracts/blob/master/contracts/utils/math/SafeCast.sol\":34842:34851  uint256 u */\n      0x00\n        /* \"https://github.com/OpenZeppelin/openzeppelin-contracts/blob/master/contracts/utils/math/SafeCast.sol\":34948:34949  b */\n      dup2\n        /* \"https://github.com/OpenZeppelin/openzeppelin-contracts/blob/master/contracts/utils/math/SafeCast.sol\":34941:34950  iszero(b) */\n      iszero\n        /* \"https://github.com/OpenZeppelin/openzeppelin-contracts/blob/master/contracts/utils/math/SafeCast.sol\":34934:34951  iszero(iszero(b)) */\n      iszero\n        /* \"https://github.com/OpenZeppelin/openzeppelin-contracts/blob/master/contracts/utils/math/SafeCast.sol\":34929:34951  u := iszero(iszero(b)) */\n      swap1\n      pop\n        /* \"https://github.com/OpenZeppelin/openzeppelin-contracts/blob/master/contracts/utils/math/SafeCast.sol\":34795:34967  function toUint(bool b) internal pure returns (uint256 u) {... */\n      swap2\n      swap1\n      pop\n      jump\t// out\n        /* \"#utility.yul\":88:205   */\n    tag_55:\n        /* \"#utility.yul\":197:198   */\n      0x00\n        /* \"#utility.yul\":194:195   */\n      dup1\n        /* \"#utility.yul\":187:199   */\n      revert\n        /* \"#utility.yul\":334:411   */\n    tag_57:\n        /* \"#utility.yul\":371:378   */\n      0x00\n        /* \"#utility.yul\":400:405   */\n      dup2\n        /* \"#utility.yul\":389:405   */\n      swap1\n      pop\n        /* \"#utility.yul\":334:411   */\n      swap2\n      swap1\n      pop\n      jump\t// out\n        /* \"#utility.yul\":417:539   */\n    tag_58:\n        /* \"#utility.yul\":490:514   */\n      tag_73\n        /* \"#utility.yul\":508:513   */\n      dup2\n        /* \"#utility.yul\":490:514   */\n      tag_57\n      jump\t// in\n    tag_73:\n        /* \"#utility.yul\":483:488   */\n      dup2\n        /* \"#utility.yul\":480:515   */\n      eq\n        /* \"#utility.yul\":470:533   */\n      tag_74\n      jumpi\n        /* \"#utility.yul\":529:530   */\n      0x00\n        /* \"#utility.yul\":526:527   */\n      dup1\n        /* \"#utility.yul\":519:531   */\n      revert\n        /* \"#utility.yul\":470:533   */\n    tag_74:\n        /* \"#utility.yul\":417:539   */\n      pop\n      jump\t// out\n        /* \"#utility.yul\":545:684   */\n    tag_59:\n        /* \"#utility.yul\":591:596   */\n      0x00\n        /* \"#utility.yul\":629:635   */\n      dup2\n        /* \"#utility.yul\":616:636   */\n      calldataload\n        /* \"#utility.yul\":607:636   */\n      swap1\n      pop\n        /* \"#utility.yul\":645:678   */\n      tag_76\n        /* \"#utility.yul\":672:677   */\n      dup2\n        /* \"#utility.yul\":645:678   */\n      tag_58\n      jump\t// in\n    tag_76:\n        /* \"#utility.yul\":545:684   */\n      swap3\n      swap2\n      pop\n      pop\n      jump\t// out\n        /* \"#utility.yul\":690:1019   */\n    tag_6:\n        /* \"#utility.yul\":749:755   */\n      0x00\n        /* \"#utility.yul\":798:800   */\n      0x20\n        /* \"#utility.yul\":786:795   */\n      dup3\n        /* \"#utility.yul\":777:784   */\n      dup5\n        /* \"#utility.yul\":773:796   */\n      sub\n        /* \"#utility.yul\":769:801   */\n      slt\n        /* \"#utility.yul\":766:885   */\n      iszero\n      tag_78\n      jumpi\n        /* \"#utility.yul\":804:883   */\n      tag_79\n      tag_55\n      jump\t// in\n    tag_79:\n        /* \"#utility.yul\":766:885   */\n    tag_78:\n        /* \"#utility.yul\":924:925   */\n      0x00\n        /* \"#utility.yul\":949:1002   */\n      tag_80\n        /* \"#utility.yul\":994:1001   */\n      dup5\n        /* \"#utility.yul\":985:991   */\n      dup3\n        /* \"#utility.yul\":974:983   */\n      dup6\n        /* \"#utility.yul\":970:992   */\n      add\n        /* \"#utility.yul\":949:1002   */\n      tag_59\n      jump\t// in\n    tag_80:\n        /* \"#utility.yul\":939:1002   */\n      swap2\n      pop\n        /* \"#utility.yul\":895:1012   */\n      pop\n        /* \"#utility.yul\":690:1019   */\n      swap3\n      swap2\n      pop\n      pop\n      jump\t// out\n        /* \"#utility.yul\":1025:1124   */\n    tag_60:\n        /* \"#utility.yul\":1077:1083   */\n      0x00\n        /* \"#utility.yul\":1111:1116   */\n      dup2\n        /* \"#utility.yul\":1105:1117   */\n      mload\n        /* \"#utility.yul\":1095:1117   */\n      swap1\n      pop\n        /* \"#utility.yul\":1025:1124   */\n      swap2\n      swap1\n      pop\n      jump\t// out\n        /* \"#utility.yul\":1130:1299   */\n    tag_61:\n        /* \"#utility.yul\":1214:1225   */\n      0x00\n        /* \"#utility.yul\":1248:1254   */\n      dup3\n        /* \"#utility.yul\":1243:1246   */\n      dup3\n        /* \"#utility.yul\":1236:1255   */\n      mstore\n        /* \"#utility.yul\":1288:1292   */\n      0x20\n        /* \"#utility.yul\":1283:1286   */\n      dup3\n        /* \"#utility.yul\":1279:1293   */\n      add\n        /* \"#utility.yul\":1264:1293   */\n      swap1\n      pop\n        /* \"#utility.yul\":1130:1299   */\n      swap3\n      swap2\n      pop\n      pop\n      jump\t// out\n        /* \"#utility.yul\":1305:1551   */\n    tag_62:\n        /* \"#utility.yul\":1386:1387   */\n      0x00\n        /* \"#utility.yul\":1396:1509   */\n    tag_84:\n        /* \"#utility.yul\":1410:1416   */\n      dup4\n        /* \"#utility.yul\":1407:1408   */\n      dup2\n        /* \"#utility.yul\":1404:1417   */\n      lt\n        /* \"#utility.yul\":1396:1509   */\n      iszero\n      tag_86\n      jumpi\n        /* \"#utility.yul\":1495:1496   */\n      dup1\n        /* \"#utility.yul\":1490:1493   */\n      dup3\n        /* \"#utility.yul\":1486:1497   */\n      add\n        /* \"#utility.yul\":1480:1498   */\n      mload\n        /* \"#utility.yul\":1476:1477   */\n      dup2\n        /* \"#utility.yul\":1471:1474   */\n      dup5\n        /* \"#utility.yul\":1467:1478   */\n      add\n        /* \"#utility.yul\":1460:1499   */\n      mstore\n        /* \"#utility.yul\":1432:1434   */\n      0x20\n        /* \"#utility.yul\":1429:1430   */\n      dup2\n        /* \"#utility.yul\":1425:1435   */\n      add\n        /* \"#utility.yul\":1420:1435   */\n      swap1\n      pop\n        /* \"#utility.yul\":1396:1509   */\n      jump(tag_84)\n    tag_86:\n        /* \"#utility.yul\":1543:1544   */\n      0x00\n        /* \"#utility.yul\":1534:1540   */\n      dup5\n        /* \"#utility.yul\":1529:1532   */\n      dup5\n        /* \"#utility.yul\":1525:1541   */\n      add\n        /* \"#utility.yul\":1518:1545   */\n      mstore\n        /* \"#utility.yul\":1367:1551   */\n      pop\n        /* \"#utility.yul\":1305:1551   */\n      pop\n      pop\n      pop\n      jump\t// out\n        /* \"#utility.yul\":1557:1659   */\n    tag_63:\n        /* \"#utility.yul\":1598:1604   */\n      0x00\n        /* \"#utility.yul\":1649:1651   */\n      0x1f\n        /* \"#utility.yul\":1645:1652   */\n      not\n        /* \"#utility.yul\":1640:1642   */\n      0x1f\n        /* \"#utility.yul\":1633:1638   */\n      dup4\n        /* \"#utility.yul\":1629:1643   */\n      add\n        /* \"#utility.yul\":1625:1653   */\n      and\n        /* \"#utility.yul\":1615:1653   */\n      swap1\n      pop\n        /* \"#utility.yul\":1557:1659   */\n      swap2\n      swap1\n      pop\n      jump\t// out\n        /* \"#utility.yul\":1665:2042   */\n    tag_64:\n        /* \"#utility.yul\":1753:1756   */\n      0x00\n        /* \"#utility.yul\":1781:1820   */\n      tag_89\n        /* \"#utility.yul\":1814:1819   */\n      dup3\n        /* \"#utility.yul\":1781:1820   */\n      tag_60\n      jump\t// in\n    tag_89:\n        /* \"#utility.yul\":1836:1907   */\n      tag_90\n        /* \"#utility.yul\":1900:1906   */\n      dup2\n        /* \"#utility.yul\":1895:1898   */\n      dup6\n        /* \"#utility.yul\":1836:1907   */\n      tag_61\n      jump\t// in\n    tag_90:\n        /* \"#utility.yul\":1829:1907   */\n      swap4\n      pop\n        /* \"#utility.yul\":1916:1981   */\n      tag_91\n        /* \"#utility.yul\":1974:1980   */\n      dup2\n        /* \"#utility.yul\":1969:1972   */\n      dup6\n        /* \"#utility.yul\":1962:1966   */\n      0x20\n        /* \"#utility.yul\":1955:1960   */\n      dup7\n        /* \"#utility.yul\":1951:1967   */\n      add\n        /* \"#utility.yul\":1916:1981   */\n      tag_62\n      jump\t// in\n    tag_91:\n        /* \"#utility.yul\":2006:2035   */\n      tag_92\n        /* \"#utility.yul\":2028:2034   */\n      dup2\n        /* \"#utility.yul\":2006:2035   */\n      tag_63\n      jump\t// in\n    tag_92:\n        /* \"#utility.yul\":2001:2004   */\n      dup5\n        /* \"#utility.yul\":1997:2036   */\n      add\n        /* \"#utility.yul\":1990:2036   */\n      swap2\n      pop\n        /* \"#utility.yul\":1757:2042   */\n      pop\n        /* \"#utility.yul\":1665:2042   */\n      swap3\n      swap2\n      pop\n      pop\n      jump\t// out\n        /* \"#utility.yul\":2048:2361   */\n    tag_9:\n        /* \"#utility.yul\":2161:2165   */\n      0x00\n        /* \"#utility.yul\":2199:2201   */\n      0x20\n        /* \"#utility.yul\":2188:2197   */\n      dup3\n        /* \"#utility.yul\":2184:2202   */\n      add\n        /* \"#utility.yul\":2176:2202   */\n      swap1\n      pop\n        /* \"#utility.yul\":2248:2257   */\n      dup2\n        /* \"#utility.yul\":2242:2246   */\n      dup2\n        /* \"#utility.yul\":2238:2258   */\n      sub\n        /* \"#utility.yul\":2234:2235   */\n      0x00\n        /* \"#utility.yul\":2223:2232   */\n      dup4\n        /* \"#utility.yul\":2219:2236   */\n      add\n        /* \"#utility.yul\":2212:2259   */\n      mstore\n        /* \"#utility.yul\":2276:2354   */\n      tag_94\n        /* \"#utility.yul\":2349:2353   */\n      dup2\n        /* \"#utility.yul\":2340:2346   */\n      dup5\n        /* \"#utility.yul\":2276:2354   */\n      tag_64\n      jump\t// in\n    tag_94:\n        /* \"#utility.yul\":2268:2354   */\n      swap1\n      pop\n        /* \"#utility.yul\":2048:2361   */\n      swap3\n      swap2\n      pop\n      pop\n      jump\t// out\n        /* \"#utility.yul\":2367:2547   */\n    tag_65:\n        /* \"#utility.yul\":2415:2492   */\n      0x4e487b7100000000000000000000000000000000000000000000000000000000\n        /* \"#utility.yul\":2412:2413   */\n      0x00\n        /* \"#utility.yul\":2405:2493   */\n      mstore\n        /* \"#utility.yul\":2512:2516   */\n      0x11\n        /* \"#utility.yul\":2509:2510   */\n      0x04\n        /* \"#utility.yul\":2502:2517   */\n      mstore\n        /* \"#utility.yul\":2536:2540   */\n      0x24\n        /* \"#utility.yul\":2533:2534   */\n      0x00\n        /* \"#utility.yul\":2526:2541   */\n      revert\n        /* \"#utility.yul\":2553:2963   */\n    tag_27:\n        /* \"#utility.yul\":2593:2600   */\n      0x00\n        /* \"#utility.yul\":2616:2636   */\n      tag_97\n        /* \"#utility.yul\":2634:2635   */\n      dup3\n        /* \"#utility.yul\":2616:2636   */\n      tag_57\n      jump\t// in\n    tag_97:\n        /* \"#utility.yul\":2611:2636   */\n      swap2\n      pop\n        /* \"#utility.yul\":2650:2670   */\n      tag_98\n        /* \"#utility.yul\":2668:2669   */\n      dup4\n        /* \"#utility.yul\":2650:2670   */\n      tag_57\n      jump\t// in\n    tag_98:\n        /* \"#utility.yul\":2645:2670   */\n      swap3\n      pop\n        /* \"#utility.yul\":2705:2706   */\n      dup3\n        /* \"#utility.yul\":2702:2703   */\n      dup3\n        /* \"#utility.yul\":2698:2707   */\n      mul\n        /* \"#utility.yul\":2727:2757   */\n      tag_99\n        /* \"#utility.yul\":2745:2756   */\n      dup2\n        /* \"#utility.yul\":2727:2757   */\n      tag_57\n      jump\t// in\n    tag_99:\n        /* \"#utility.yul\":2716:2757   */\n      swap2\n      pop\n        /* \"#utility.yul\":2906:2907   */\n      dup3\n        /* \"#utility.yul\":2897:2904   */\n      dup3\n        /* \"#utility.yul\":2893:2908   */\n      div\n        /* \"#utility.yul\":2890:2891   */\n      dup5\n        /* \"#utility.yul\":2887:2909   */\n      eq\n        /* \"#utility.yul\":2867:2868   */\n      dup4\n        /* \"#utility.yul\":2860:2869   */\n      iszero\n        /* \"#utility.yul\":2840:2923   */\n      or\n        /* \"#utility.yul\":2817:2956   */\n      tag_100\n      jumpi\n        /* \"#utility.yul\":2936:2954   */\n      tag_101\n      tag_65\n      jump\t// in\n    tag_101:\n        /* \"#utility.yul\":2817:2956   */\n    tag_100:\n        /* \"#utility.yul\":2601:2963   */\n      pop\n        /* \"#utility.yul\":2553:2963   */\n      swap3\n      swap2\n      pop\n      pop\n      jump\t// out\n        /* \"#utility.yul\":2969:3160   */\n    tag_29:\n        /* \"#utility.yul\":3009:3012   */\n      0x00\n        /* \"#utility.yul\":3028:3048   */\n      tag_103\n        /* \"#utility.yul\":3046:3047   */\n      dup3\n        /* \"#utility.yul\":3028:3048   */\n      tag_57\n      jump\t// in\n    tag_103:\n        /* \"#utility.yul\":3023:3048   */\n      swap2\n      pop\n        /* \"#utility.yul\":3062:3082   */\n      tag_104\n        /* \"#utility.yul\":3080:3081   */\n      dup4\n        /* \"#utility.yul\":3062:3082   */\n      tag_57\n      jump\t// in\n    tag_104:\n        /* \"#utility.yul\":3057:3082   */\n      swap3\n      pop\n        /* \"#utility.yul\":3105:3106   */\n      dup3\n        /* \"#utility.yul\":3102:3103   */\n      dup3\n        /* \"#utility.yul\":3098:3107   */\n      add\n        /* \"#utility.yul\":3091:3107   */\n      swap1\n      pop\n        /* \"#utility.yul\":3126:3129   */\n      dup1\n        /* \"#utility.yul\":3123:3124   */\n      dup3\n        /* \"#utility.yul\":3120:3130   */\n      gt\n        /* \"#utility.yul\":3117:3153   */\n      iszero\n      tag_105\n      jumpi\n        /* \"#utility.yul\":3133:3151   */\n      tag_106\n      tag_65\n      jump\t// in\n    tag_106:\n        /* \"#utility.yul\":3117:3153   */\n    tag_105:\n        /* \"#utility.yul\":2969:3160   */\n      swap3\n      swap2\n      pop\n      pop\n      jump\t// out\n        /* \"#utility.yul\":3166:3346   */\n    tag_32:\n        /* \"#utility.yul\":3214:3291   */\n      0x4e487b7100000000000000000000000000000000000000000000000000000000\n        /* \"#utility.yul\":3211:3212   */\n      0x00\n        /* \"#utility.yul\":3204:3292   */\n      mstore\n        /* \"#utility.yul\":3311:3315   */\n      0x41\n        /* \"#utility.yul\":3308:3309   */\n      0x04\n        /* \"#utility.yul\":3301:3316   */\n      mstore\n        /* \"#utility.yul\":3335:3339   */\n      0x24\n        /* \"#utility.yul\":3332:3333   */\n      0x00\n        /* \"#utility.yul\":3325:3340   */\n      revert\n        /* \"#utility.yul\":3352:3532   */\n    tag_36:\n        /* \"#utility.yul\":3400:3477   */\n      0x4e487b7100000000000000000000000000000000000000000000000000000000\n        /* \"#utility.yul\":3397:3398   */\n      0x00\n        /* \"#utility.yul\":3390:3478   */\n      mstore\n        /* \"#utility.yul\":3497:3501   */\n      0x32\n        /* \"#utility.yul\":3494:3495   */\n      0x04\n        /* \"#utility.yul\":3487:3502   */\n      mstore\n        /* \"#utility.yul\":3521:3525   */\n      0x24\n        /* \"#utility.yul\":3518:3519   */\n      0x00\n        /* \"#utility.yul\":3511:3526   */\n      revert\n        /* \"#utility.yul\":3538:3709   */\n    tag_49:\n        /* \"#utility.yul\":3577:3580   */\n      0x00\n        /* \"#utility.yul\":3600:3624   */\n      tag_110\n        /* \"#utility.yul\":3618:3623   */\n      dup3\n        /* \"#utility.yul\":3600:3624   */\n      tag_57\n      jump\t// in\n    tag_110:\n        /* \"#utility.yul\":3591:3624   */\n      swap2\n      pop\n        /* \"#utility.yul\":3646:3650   */\n      0x00\n        /* \"#utility.yul\":3639:3644   */\n      dup3\n        /* \"#utility.yul\":3636:3651   */\n      sub\n        /* \"#utility.yul\":3633:3674   */\n      tag_111\n      jumpi\n        /* \"#utility.yul\":3654:3672   */\n      tag_112\n      tag_65\n      jump\t// in\n    tag_112:\n        /* \"#utility.yul\":3633:3674   */\n    tag_111:\n        /* \"#utility.yul\":3701:3702   */\n      0x01\n        /* \"#utility.yul\":3694:3699   */\n      dup3\n        /* \"#utility.yul\":3690:3703   */\n      sub\n        /* \"#utility.yul\":3683:3703   */\n      swap1\n      pop\n        /* \"#utility.yul\":3538:3709   */\n      swap2\n      swap1\n      pop\n      jump\t// out\n        /* \"#utility.yul\":3715:3833   */\n    tag_66:\n        /* \"#utility.yul\":3802:3826   */\n      tag_114\n        /* \"#utility.yul\":3820:3825   */\n      dup2\n        /* \"#utility.yul\":3802:3826   */\n      tag_57\n      jump\t// in\n    tag_114:\n        /* \"#utility.yul\":3797:3800   */\n      dup3\n        /* \"#utility.yul\":3790:3827   */\n      mstore\n        /* \"#utility.yul\":3715:3833   */\n      pop\n      pop\n      jump\t// out\n        /* \"#utility.yul\":3839:4171   */\n    tag_52:\n        /* \"#utility.yul\":3960:3964   */\n      0x00\n        /* \"#utility.yul\":3998:4000   */\n      0x40\n        /* \"#utility.yul\":3987:3996   */\n      dup3\n        /* \"#utility.yul\":3983:4001   */\n      add\n        /* \"#utility.yul\":3975:4001   */\n      swap1\n      pop\n        /* \"#utility.yul\":4011:4082   */\n      tag_116\n        /* \"#utility.yul\":4079:4080   */\n      0x00\n        /* \"#utility.yul\":4068:4077   */\n      dup4\n        /* \"#utility.yul\":4064:4081   */\n      add\n        /* \"#utility.yul\":4055:4061   */\n      dup6\n        /* \"#utility.yul\":4011:4082   */\n      tag_66\n      jump\t// in\n    tag_116:\n        /* \"#utility.yul\":4092:4164   */\n      tag_117\n        /* \"#utility.yul\":4160:4162   */\n      0x20\n        /* \"#utility.yul\":4149:4158   */\n      dup4\n        /* \"#utility.yul\":4145:4163   */\n      add\n        /* \"#utility.yul\":4136:4142   */\n      dup5\n        /* \"#utility.yul\":4092:4164   */\n      tag_66\n      jump\t// in\n    tag_117:\n        /* \"#utility.yul\":3839:4171   */\n      swap4\n      swap3\n      pop\n      pop\n      pop\n      jump\t// out\n\n    auxdata: 0xa264697066735822122092ab5301806af14342480ef01bab916f6eb978cde8b571ba282dbcc10cc4f5e464736f6c63430008140033\n}\n",
				"bytecode": {
					"linkReferences": {},
					"object": "608060405234801561000f575f80fd5b506106268061001d5f395ff3fe608060405234801561000f575f80fd5b5060043610610029575f3560e01c8063b7c763b51461002d575b5f80fd5b610047600480360381019061004291906103c3565b61005d565b6040516100549190610478565b60405180910390f35b60606100688261006f565b9050919050565b60606100868260016100808561008d565b01610143565b9050919050565b5f805f90505f6100ae6fffffffffffffffffffffffffffffffff8511610381565b90506080810284901c935060108102820191506100d467ffffffffffffffff8511610381565b90506040810284901c935060088102820191506100f663ffffffff8511610381565b90506020810284901c9350600481028201915061011661ffff8511610381565b90506010810284901c9350600281028201915061013560ff8511610381565b820191508192505050919050565b60605f8390505f600284600261015991906104c5565b6101639190610506565b67ffffffffffffffff81111561017c5761017b610539565b5b6040519080825280601f01601f1916602001820160405280156101ae5781602001600182028036833780820191505090505b5090507f3000000000000000000000000000000000000000000000000000000000000000815f815181106101e5576101e4610566565b5b60200101907effffffffffffffffffffffffffffffffffffffffffffffffffffffffffffff191690815f1a9053507f78000000000000000000000000000000000000000000000000000000000000008160018151811061024857610247610566565b5b60200101907effffffffffffffffffffffffffffffffffffffffffffffffffffffffffffff191690815f1a9053505f600185600261028691906104c5565b6102909190610506565b90505b600181111561032f577f3031323334353637383961626364656600000000000000000000000000000000600f8416601081106102d2576102d1610566565b5b1a60f81b8282815181106102e9576102e8610566565b5b60200101907effffffffffffffffffffffffffffffffffffffffffffffffffffffffffffff191690815f1a905350600483901c92508061032890610593565b9050610293565b505f82146103765784846040517fe22e27eb00000000000000000000000000000000000000000000000000000000815260040161036d9291906105c9565b60405180910390fd5b809250505092915050565b5f8115159050919050565b5f80fd5b5f819050919050565b6103a281610390565b81146103ac575f80fd5b50565b5f813590506103bd81610399565b92915050565b5f602082840312156103d8576103d761038c565b5b5f6103e5848285016103af565b91505092915050565b5f81519050919050565b5f82825260208201905092915050565b5f5b8381101561042557808201518184015260208101905061040a565b5f8484015250505050565b5f601f19601f8301169050919050565b5f61044a826103ee565b61045481856103f8565b9350610464818560208601610408565b61046d81610430565b840191505092915050565b5f6020820190508181035f8301526104908184610440565b905092915050565b7f4e487b71000000000000000000000000000000000000000000000000000000005f52601160045260245ffd5b5f6104cf82610390565b91506104da83610390565b92508282026104e881610390565b915082820484148315176104ff576104fe610498565b5b5092915050565b5f61051082610390565b915061051b83610390565b925082820190508082111561053357610532610498565b5b92915050565b7f4e487b71000000000000000000000000000000000000000000000000000000005f52604160045260245ffd5b7f4e487b71000000000000000000000000000000000000000000000000000000005f52603260045260245ffd5b5f61059d82610390565b91505f82036105af576105ae610498565b5b600182039050919050565b6105c381610390565b82525050565b5f6040820190506105dc5f8301856105ba565b6105e960208301846105ba565b939250505056fea264697066735822122092ab5301806af14342480ef01bab916f6eb978cde8b571ba282dbcc10cc4f5e464736f6c63430008140033",
					"opcodes": "PUSH1 0x80 PUSH1 0x40 MSTORE CALLVALUE DUP1 ISZERO PUSH2 0xF JUMPI PUSH0 DUP1 REVERT JUMPDEST POP PUSH2 0x626 DUP1 PUSH2 0x1D PUSH0 CODECOPY PUSH0 RETURN INVALID PUSH1 0x80 PUSH1 0x40 MSTORE CALLVALUE DUP1 ISZERO PUSH2 0xF JUMPI PUSH0 DUP1 REVERT JUMPDEST POP PUSH1 0x4 CALLDATASIZE LT PUSH2 0x29 JUMPI PUSH0 CALLDATALOAD PUSH1 0xE0 SHR DUP1 PUSH4 0xB7C763B5 EQ PUSH2 0x2D JUMPI JUMPDEST PUSH0 DUP1 REVERT JUMPDEST PUSH2 0x47 PUSH1 0x4 DUP1 CALLDATASIZE SUB DUP2 ADD SWAP1 PUSH2 0x42 SWAP2 SWAP1 PUSH2 0x3C3 JUMP JUMPDEST PUSH2 0x5D JUMP JUMPDEST PUSH1 0x40 MLOAD PUSH2 0x54 SWAP2 SWAP1 PUSH2 0x478 JUMP JUMPDEST PUSH1 0x40 MLOAD DUP1 SWAP2 SUB SWAP1 RETURN JUMPDEST PUSH1 0x60 PUSH2 0x68 DUP3 PUSH2 0x6F JUMP JUMPDEST SWAP1 POP SWAP2 SWAP1 POP JUMP JUMPDEST PUSH1 0x60 PUSH2 0x86 DUP3 PUSH1 0x1 PUSH2 0x80 DUP6 PUSH2 0x8D JUMP JUMPDEST ADD PUSH2 0x143 JUMP JUMPDEST SWAP1 POP SWAP2 SWAP1 POP JUMP JUMPDEST PUSH0 DUP1 PUSH0 SWAP1 POP PUSH0 PUSH2 0xAE PUSH16 0xFFFFFFFFFFFFFFFFFFFFFFFFFFFFFFFF DUP6 GT PUSH2 0x381 JUMP JUMPDEST SWAP1 POP PUSH1 0x80 DUP2 MUL DUP5 SWAP1 SHR SWAP4 POP PUSH1 0x10 DUP2 MUL DUP3 ADD SWAP2 POP PUSH2 0xD4 PUSH8 0xFFFFFFFFFFFFFFFF DUP6 GT PUSH2 0x381 JUMP JUMPDEST SWAP1 POP PUSH1 0x40 DUP2 MUL DUP5 SWAP1 SHR SWAP4 POP PUSH1 0x8 DUP2 MUL DUP3 ADD SWAP2 POP PUSH2 0xF6 PUSH4 0xFFFFFFFF DUP6 GT PUSH2 0x381 JUMP JUMPDEST SWAP1 POP PUSH1 0x20 DUP2 MUL DUP5 SWAP1 SHR SWAP4 POP PUSH1 0x4 DUP2 MUL DUP3 ADD SWAP2 POP PUSH2 0x116 PUSH2 0xFFFF DUP6 GT PUSH2 0x381 JUMP JUMPDEST SWAP1 POP PUSH1 0x10 DUP2 MUL DUP5 SWAP1 SHR SWAP4 POP PUSH1 0x2 DUP2 MUL DUP3 ADD SWAP2 POP PUSH2 0x135 PUSH1 0xFF DUP6 GT PUSH2 0x381 JUMP JUMPDEST DUP3 ADD SWAP2 POP DUP2 SWAP3 POP POP POP SWAP2 SWAP1 POP JUMP JUMPDEST PUSH1 0x60 PUSH0 DUP4 SWAP1 POP PUSH0 PUSH1 0x2 DUP5 PUSH1 0x2 PUSH2 0x159 SWAP2 SWAP1 PUSH2 0x4C5 JUMP JUMPDEST PUSH2 0x163 SWAP2 SWAP1 PUSH2 0x506 JUMP JUMPDEST PUSH8 0xFFFFFFFFFFFFFFFF DUP2 GT ISZERO PUSH2 0x17C JUMPI PUSH2 0x17B PUSH2 0x539 JUMP JUMPDEST JUMPDEST PUSH1 0x40 MLOAD SWAP1 DUP1 DUP3 MSTORE DUP1 PUSH1 0x1F ADD PUSH1 0x1F NOT AND PUSH1 0x20 ADD DUP3 ADD PUSH1 0x40 MSTORE DUP1 ISZERO PUSH2 0x1AE JUMPI DUP2 PUSH1 0x20 ADD PUSH1 0x1 DUP3 MUL DUP1 CALLDATASIZE DUP4 CALLDATACOPY DUP1 DUP3 ADD SWAP2 POP POP SWAP1 POP JUMPDEST POP SWAP1 POP PUSH32 0x3000000000000000000000000000000000000000000000000000000000000000 DUP2 PUSH0 DUP2 MLOAD DUP2 LT PUSH2 0x1E5 JUMPI PUSH2 0x1E4 PUSH2 0x566 JUMP JUMPDEST JUMPDEST PUSH1 0x20 ADD ADD SWAP1 PUSH31 0xFFFFFFFFFFFFFFFFFFFFFFFFFFFFFFFFFFFFFFFFFFFFFFFFFFFFFFFFFFFFFF NOT AND SWAP1 DUP2 PUSH0 BYTE SWAP1 MSTORE8 POP PUSH32 0x7800000000000000000000000000000000000000000000000000000000000000 DUP2 PUSH1 0x1 DUP2 MLOAD DUP2 LT PUSH2 0x248 JUMPI PUSH2 0x247 PUSH2 0x566 JUMP JUMPDEST JUMPDEST PUSH1 0x20 ADD ADD SWAP1 PUSH31 0xFFFFFFFFFFFFFFFFFFFFFFFFFFFFFFFFFFFFFFFFFFFFFFFFFFFFFFFFFFFFFF NOT AND SWAP1 DUP2 PUSH0 BYTE SWAP1 MSTORE8 POP PUSH0 PUSH1 0x1 DUP6 PUSH1 0x2 PUSH2 0x286 SWAP2 SWAP1 PUSH2 0x4C5 JUMP JUMPDEST PUSH2 0x290 SWAP2 SWAP1 PUSH2 0x506 JUMP JUMPDEST SWAP1 POP JUMPDEST PUSH1 0x1 DUP2 GT ISZERO PUSH2 0x32F JUMPI PUSH32 0x3031323334353637383961626364656600000000000000000000000000000000 PUSH1 0xF DUP5 AND PUSH1 0x10 DUP2 LT PUSH2 0x2D2 JUMPI PUSH2 0x2D1 PUSH2 0x566 JUMP JUMPDEST JUMPDEST BYTE PUSH1 0xF8 SHL DUP3 DUP3 DUP2 MLOAD DUP2 LT PUSH2 0x2E9 JUMPI PUSH2 0x2E8 PUSH2 0x566 JUMP JUMPDEST JUMPDEST PUSH1 0x20 ADD ADD SWAP1 PUSH31 0xFFFFFFFFFFFFFFFFFFFFFFFFFFFFFFFFFFFFFFFFFFFFFFFFFFFFFFFFFFFFFF NOT AND SWAP1 DUP2 PUSH0 BYTE SWAP1 MSTORE8 POP PUSH1 0x4 DUP4 SWAP1 SHR SWAP3 POP DUP1 PUSH2 0x328 SWAP1 PUSH2 0x593 JUMP JUMPDEST SWAP1 POP PUSH2 0x293 JUMP JUMPDEST POP PUSH0 DUP3 EQ PUSH2 0x376 JUMPI DUP5 DUP5 PUSH1 0x40 MLOAD PUSH32 0xE22E27EB00000000000000000000000000000000000000000000000000000000 DUP2 MSTORE PUSH1 0x4 ADD PUSH2 0x36D SWAP3 SWAP2 SWAP1 PUSH2 0x5C9 JUMP JUMPDEST PUSH1 0x40 MLOAD DUP1 SWAP2 SUB SWAP1 REVERT JUMPDEST DUP1 SWAP3 POP POP POP SWAP3 SWAP2 POP POP JUMP JUMPDEST PUSH0 DUP2 ISZERO ISZERO SWAP1 POP SWAP2 SWAP1 POP JUMP JUMPDEST PUSH0 DUP1 REVERT JUMPDEST PUSH0 DUP2 SWAP1 POP SWAP2 SWAP1 POP JUMP JUMPDEST PUSH2 0x3A2 DUP2 PUSH2 0x390 JUMP JUMPDEST DUP2 EQ PUSH2 0x3AC JUMPI PUSH0 DUP1 REVERT JUMPDEST POP JUMP JUMPDEST PUSH0 DUP2 CALLDATALOAD SWAP1 POP PUSH2 0x3BD DUP2 PUSH2 0x399 JUMP JUMPDEST SWAP3 SWAP2 POP POP JUMP JUMPDEST PUSH0 PUSH1 0x20 DUP3 DUP5 SUB SLT ISZERO PUSH2 0x3D8 JUMPI PUSH2 0x3D7 PUSH2 0x38C JUMP JUMPDEST JUMPDEST PUSH0 PUSH2 0x3E5 DUP5 DUP3 DUP6 ADD PUSH2 0x3AF JUMP JUMPDEST SWAP2 POP POP SWAP3 SWAP2 POP POP JUMP JUMPDEST PUSH0 DUP2 MLOAD SWAP1 POP SWAP2 SWAP1 POP JUMP JUMPDEST PUSH0 DUP3 DUP3 MSTORE PUSH1 0x20 DUP3 ADD SWAP1 POP SWAP3 SWAP2 POP POP JUMP JUMPDEST PUSH0 JUMPDEST DUP4 DUP2 LT ISZERO PUSH2 0x425 JUMPI DUP1 DUP3 ADD MLOAD DUP2 DUP5 ADD MSTORE PUSH1 0x20 DUP2 ADD SWAP1 POP PUSH2 0x40A JUMP JUMPDEST PUSH0 DUP5 DUP5 ADD MSTORE POP POP POP POP JUMP JUMPDEST PUSH0 PUSH1 0x1F NOT PUSH1 0x1F DUP4 ADD AND SWAP1 POP SWAP2 SWAP1 POP JUMP JUMPDEST PUSH0 PUSH2 0x44A DUP3 PUSH2 0x3EE JUMP JUMPDEST PUSH2 0x454 DUP2 DUP6 PUSH2 0x3F8 JUMP JUMPDEST SWAP4 POP PUSH2 0x464 DUP2 DUP6 PUSH1 0x20 DUP7 ADD PUSH2 0x408 JUMP JUMPDEST PUSH2 0x46D DUP2 PUSH2 0x430 JUMP JUMPDEST DUP5 ADD SWAP2 POP POP SWAP3 SWAP2 POP POP JUMP JUMPDEST PUSH0 PUSH1 0x20 DUP3 ADD SWAP1 POP DUP2 DUP2 SUB PUSH0 DUP4 ADD MSTORE PUSH2 0x490 DUP2 DUP5 PUSH2 0x440 JUMP JUMPDEST SWAP1 POP SWAP3 SWAP2 POP POP JUMP JUMPDEST PUSH32 0x4E487B7100000000000000000000000000000000000000000000000000000000 PUSH0 MSTORE PUSH1 0x11 PUSH1 0x4 MSTORE PUSH1 0x24 PUSH0 REVERT JUMPDEST PUSH0 PUSH2 0x4CF DUP3 PUSH2 0x390 JUMP JUMPDEST SWAP2 POP PUSH2 0x4DA DUP4 PUSH2 0x390 JUMP JUMPDEST SWAP3 POP DUP3 DUP3 MUL PUSH2 0x4E8 DUP2 PUSH2 0x390 JUMP JUMPDEST SWAP2 POP DUP3 DUP3 DIV DUP5 EQ DUP4 ISZERO OR PUSH2 0x4FF JUMPI PUSH2 0x4FE PUSH2 0x498 JUMP JUMPDEST JUMPDEST POP SWAP3 SWAP2 POP POP JUMP JUMPDEST PUSH0 PUSH2 0x510 DUP3 PUSH2 0x390 JUMP JUMPDEST SWAP2 POP PUSH2 0x51B DUP4 PUSH2 0x390 JUMP JUMPDEST SWAP3 POP DUP3 DUP3 ADD SWAP1 POP DUP1 DUP3 GT ISZERO PUSH2 0x533 JUMPI PUSH2 0x532 PUSH2 0x498 JUMP JUMPDEST JUMPDEST SWAP3 SWAP2 POP POP JUMP JUMPDEST PUSH32 0x4E487B7100000000000000000000000000000000000000000000000000000000 PUSH0 MSTORE PUSH1 0x41 PUSH1 0x4 MSTORE PUSH1 0x24 PUSH0 REVERT JUMPDEST PUSH32 0x4E487B7100000000000000000000000000000000000000000000000000000000 PUSH0 MSTORE PUSH1 0x32 PUSH1 0x4 MSTORE PUSH1 0x24 PUSH0 REVERT JUMPDEST PUSH0 PUSH2 0x59D DUP3 PUSH2 0x390 JUMP JUMPDEST SWAP2 POP PUSH0 DUP3 SUB PUSH2 0x5AF JUMPI PUSH2 0x5AE PUSH2 0x498 JUMP JUMPDEST JUMPDEST PUSH1 0x1 DUP3 SUB SWAP1 POP SWAP2 SWAP1 POP JUMP JUMPDEST PUSH2 0x5C3 DUP2 PUSH2 0x390 JUMP JUMPDEST DUP3 MSTORE POP POP JUMP JUMPDEST PUSH0 PUSH1 0x40 DUP3 ADD SWAP1 POP PUSH2 0x5DC PUSH0 DUP4 ADD DUP6 PUSH2 0x5BA JUMP JUMPDEST PUSH2 0x5E9 PUSH1 0x20 DUP4 ADD DUP5 PUSH2 0x5BA JUMP JUMPDEST SWAP4 SWAP3 POP POP POP JUMP INVALID LOG2 PUSH5 0x6970667358 0x22 SLT KECCAK256 SWAP3 0xAB MSTORE8 ADD DUP1 PUSH11 0xF14342480EF01BAB916F6E 0xB9 PUSH25 0xCDE8B571BA282DBCC10CC4F5E464736F6C6343000814003300 "
				},
				"gasEstimates": {
					"creation": {
						"codeDepositCost": "314800",
						"executionCost": "353",
						"totalCost": "315153"
					},
					"external": {
						"getString(uint256)": "infinite"
					}
				},
				"methodIdentifiers": {
					"getString(uint256)": "b7c763b5"
				}
			},
			"storageLayout": {
				"storage": [],
				"types": null
			},
			"userdoc": {
				"kind": "user",
				"methods": {},
				"version": 1
			}
		}
	}
}