{
	"contracts/MyToken.sol": {
		"MyToken": {
			"abi": [
				{
					"inputs": [
						{
							"internalType": "uint256",
							"name": "initialSupply",
							"type": "uint256"
						}
					],
					"stateMutability": "nonpayable",
					"type": "constructor"
				},
				{
					"anonymous": false,
					"inputs": [
						{
							"indexed": true,
							"internalType": "address",
							"name": "owner",
							"type": "address"
						},
						{
							"indexed": true,
							"internalType": "address",
							"name": "spender",
							"type": "address"
						},
						{
							"indexed": false,
							"internalType": "uint256",
							"name": "value",
							"type": "uint256"
						}
					],
					"name": "Approval",
					"type": "event"
				},
				{
					"anonymous": false,
					"inputs": [
						{
							"indexed": true,
							"internalType": "address",
							"name": "from",
							"type": "address"
						},
						{
							"indexed": true,
							"internalType": "address",
							"name": "to",
							"type": "address"
						},
						{
							"indexed": false,
							"internalType": "uint256",
							"name": "value",
							"type": "uint256"
						}
					],
					"name": "Transfer",
					"type": "event"
				},
				{
					"inputs": [
						{
							"internalType": "address",
							"name": "owner",
							"type": "address"
						},
						{
							"internalType": "address",
							"name": "spender",
							"type": "address"
						}
					],
					"name": "allowance",
					"outputs": [
						{
							"internalType": "uint256",
							"name": "",
							"type": "uint256"
						}
					],
					"stateMutability": "view",
					"type": "function"
				},
				{
					"inputs": [
						{
							"internalType": "address",
							"name": "spender",
							"type": "address"
						},
						{
							"internalType": "uint256",
							"name": "amount",
							"type": "uint256"
						}
					],
					"name": "approve",
					"outputs": [
						{
							"internalType": "bool",
							"name": "",
							"type": "bool"
						}
					],
					"stateMutability": "nonpayable",
					"type": "function"
				},
				{
					"inputs": [
						{
							"internalType": "address",
							"name": "account",
							"type": "address"
						}
					],
					"name": "balanceOf",
					"outputs": [
						{
							"internalType": "uint256",
							"name": "",
							"type": "uint256"
						}
					],
					"stateMutability": "view",
					"type": "function"
				},
				{
					"inputs": [
						{
							"internalType": "uint256",
							"name": "amount",
							"type": "uint256"
						}
					],
					"name": "burn",
					"outputs": [],
					"stateMutability": "nonpayable",
					"type": "function"
				},
				{
					"inputs": [
						{
							"internalType": "address",
							"name": "account",
							"type": "address"
						},
						{
							"internalType": "uint256",
							"name": "amount",
							"type": "uint256"
						}
					],
					"name": "burnFrom",
					"outputs": [],
					"stateMutability": "nonpayable",
					"type": "function"
				},
				{
					"inputs": [],
					"name": "decimals",
					"outputs": [
						{
							"internalType": "uint256",
							"name": "",
							"type": "uint256"
						}
					],
					"stateMutability": "view",
					"type": "function"
				},
				{
					"inputs": [],
					"name": "name",
					"outputs": [
						{
							"internalType": "string",
							"name": "",
							"type": "string"
						}
					],
					"stateMutability": "view",
					"type": "function"
				},
				{
					"inputs": [],
					"name": "symbol",
					"outputs": [
						{
							"internalType": "string",
							"name": "",
							"type": "string"
						}
					],
					"stateMutability": "view",
					"type": "function"
				},
				{
					"inputs": [],
					"name": "totalSupply",
					"outputs": [
						{
							"internalType": "uint256",
							"name": "",
							"type": "uint256"
						}
					],
					"stateMutability": "view",
					"type": "function"
				},
				{
					"inputs": [
						{
							"internalType": "address",
							"name": "recipient",
							"type": "address"
						},
						{
							"internalType": "uint256",
							"name": "amount",
							"type": "uint256"
						}
					],
					"name": "transfer",
					"outputs": [
						{
							"internalType": "bool",
							"name": "",
							"type": "bool"
						}
					],
					"stateMutability": "nonpayable",
					"type": "function"
				},
				{
					"inputs": [
						{
							"internalType": "address",
							"name": "sender",
							"type": "address"
						},
						{
							"internalType": "address",
							"name": "recipient",
							"type": "address"
						},
						{
							"internalType": "uint256",
							"name": "amount",
							"type": "uint256"
						}
					],
					"name": "transferFrom",
					"outputs": [
						{
							"internalType": "bool",
							"name": "",
							"type": "bool"
						}
					],
					"stateMutability": "nonpayable",
					"type": "function"
				}
			],
			"devdoc": {
				"events": {
					"Approval(address,address,uint256)": {
						"details": "Emitted when the allowance of a `spender` for an `owner` is set by a call to {approve}. `value` is the new allowance."
					},
					"Transfer(address,address,uint256)": {
						"details": "Emitted when `value` tokens are moved from one account (`from`) to another (`to`). Note that `value` may be zero."
					}
				},
				"kind": "dev",
				"methods": {
					"allowance(address,address)": {
						"details": "Returns the remaining number of tokens that `spender` will be allowed to spend on behalf of `owner` through {transferFrom}. This is zero by default. This value changes when {approve} or {transferFrom} are called."
					},
					"balanceOf(address)": {
						"details": "Returns the value of tokens owned by `account`."
					},
					"totalSupply()": {
						"details": "Returns the value of tokens in existence."
					}
				},
				"version": 1
			},
			"evm": {
				"assembly": "    /* \"contracts/MyToken.sol\":115:4164  contract MyToken is IERC20 {... */\n  mstore(0x40, 0x80)\n    /* \"contracts/MyToken.sol\":498:582  constructor(uint256 initialSupply) {... */\n  callvalue\n  dup1\n  iszero\n  tag_1\n  jumpi\n  0x00\n  dup1\n  revert\ntag_1:\n  pop\n  mload(0x40)\n  sub(codesize, bytecodeSize)\n  dup1\n  bytecodeSize\n  dup4\n  codecopy\n  dup2\n  dup2\n  add\n  0x40\n  mstore\n  dup2\n  add\n  swap1\n  tag_2\n  swap2\n  swap1\n  tag_3\n  jump\t// in\ntag_2:\n    /* \"contracts/MyToken.sol\":543:575  _mint(msg.sender, initialSupply) */\n  tag_6\n    /* \"contracts/MyToken.sol\":549:559  msg.sender */\n  caller\n    /* \"contracts/MyToken.sol\":561:574  initialSupply */\n  dup3\n    /* \"contracts/MyToken.sol\":543:548  _mint */\n  shl(0x20, tag_7)\n    /* \"contracts/MyToken.sol\":543:575  _mint(msg.sender, initialSupply) */\n  0x20\n  shr\n  jump\t// in\ntag_6:\n    /* \"contracts/MyToken.sol\":498:582  constructor(uint256 initialSupply) {... */\n  pop\n    /* \"contracts/MyToken.sol\":115:4164  contract MyToken is IERC20 {... */\n  jump(tag_8)\n    /* \"contracts/MyToken.sol\":608:953  function _mint(address recipient, uint256 amount) internal {... */\ntag_7:\n    /* \"contracts/MyToken.sol\":706:707  0 */\n  0x00\n    /* \"contracts/MyToken.sol\":685:708  recipient != address(0) */\n  0xffffffffffffffffffffffffffffffffffffffff\n  and\n    /* \"contracts/MyToken.sol\":685:694  recipient */\n  dup3\n    /* \"contracts/MyToken.sol\":685:708  recipient != address(0) */\n  0xffffffffffffffffffffffffffffffffffffffff\n  and\n  sub\n    /* \"contracts/MyToken.sol\":677:744  require(recipient != address(0), \"ERC20: mint to the zero address\") */\n  tag_10\n  jumpi\n  mload(0x40)\n  0x08c379a000000000000000000000000000000000000000000000000000000000\n  dup2\n  mstore\n  0x04\n  add\n  tag_11\n  swap1\n  tag_12\n  jump\t// in\ntag_11:\n  mload(0x40)\n  dup1\n  swap2\n  sub\n  swap1\n  revert\ntag_10:\n    /* \"contracts/MyToken.sol\":771:772  0 */\n  0x00\n    /* \"contracts/MyToken.sol\":762:768  amount */\n  dup2\n    /* \"contracts/MyToken.sol\":762:772  amount > 0 */\n  gt\n    /* \"contracts/MyToken.sol\":754:818  require(amount > 0, \"ERC20: mint amount must be greater than 0\") */\n  tag_13\n  jumpi\n  mload(0x40)\n  0x08c379a000000000000000000000000000000000000000000000000000000000\n  dup2\n  mstore\n  0x04\n  add\n  tag_14\n  swap1\n  tag_15\n  jump\t// in\ntag_14:\n  mload(0x40)\n  dup1\n  swap2\n  sub\n  swap1\n  revert\ntag_13:\n    /* \"contracts/MyToken.sol\":845:851  amount */\n  dup1\n    /* \"contracts/MyToken.sol\":829:841  _totalSupply */\n  0x00\n  dup1\n    /* \"contracts/MyToken.sol\":829:851  _totalSupply += amount */\n  dup3\n  dup3\n  sload\n  tag_16\n  swap2\n  swap1\n  tag_17\n  jump\t// in\ntag_16:\n  swap3\n  pop\n  pop\n  dup2\n  swap1\n  sstore\n  pop\n    /* \"contracts/MyToken.sol\":885:891  amount */\n  dup1\n    /* \"contracts/MyToken.sol\":861:870  _balances */\n  0x01\n    /* \"contracts/MyToken.sol\":861:881  _balances[recipient] */\n  0x00\n    /* \"contracts/MyToken.sol\":871:880  recipient */\n  dup5\n    /* \"contracts/MyToken.sol\":861:881  _balances[recipient] */\n  0xffffffffffffffffffffffffffffffffffffffff\n  and\n  0xffffffffffffffffffffffffffffffffffffffff\n  and\n  dup2\n  mstore\n  0x20\n  add\n  swap1\n  dup2\n  mstore\n  0x20\n  add\n  0x00\n  keccak256\n  0x00\n    /* \"contracts/MyToken.sol\":861:891  _balances[recipient] += amount */\n  dup3\n  dup3\n  sload\n  tag_18\n  swap2\n  swap1\n  tag_17\n  jump\t// in\ntag_18:\n  swap3\n  pop\n  pop\n  dup2\n  swap1\n  sstore\n  pop\n    /* \"contracts/MyToken.sol\":928:937  recipient */\n  dup2\n    /* \"contracts/MyToken.sol\":907:946  Transfer(address(0), recipient, amount) */\n  0xffffffffffffffffffffffffffffffffffffffff\n  and\n    /* \"contracts/MyToken.sol\":924:925  0 */\n  0x00\n    /* \"contracts/MyToken.sol\":907:946  Transfer(address(0), recipient, amount) */\n  0xffffffffffffffffffffffffffffffffffffffff\n  and\n  0xddf252ad1be2c89b69c2b068fc378daa952ba7f163c4a11628f55a4df523b3ef\n    /* \"contracts/MyToken.sol\":939:945  amount */\n  dup4\n    /* \"contracts/MyToken.sol\":907:946  Transfer(address(0), recipient, amount) */\n  mload(0x40)\n  tag_19\n  swap2\n  swap1\n  tag_20\n  jump\t// in\ntag_19:\n  mload(0x40)\n  dup1\n  swap2\n  sub\n  swap1\n  log3\n    /* \"contracts/MyToken.sol\":608:953  function _mint(address recipient, uint256 amount) internal {... */\n  pop\n  pop\n  jump\t// out\n    /* \"#utility.yul\":88:205   */\ntag_22:\n    /* \"#utility.yul\":197:198   */\n  0x00\n    /* \"#utility.yul\":194:195   */\n  dup1\n    /* \"#utility.yul\":187:199   */\n  revert\n    /* \"#utility.yul\":334:411   */\ntag_24:\n    /* \"#utility.yul\":371:378   */\n  0x00\n    /* \"#utility.yul\":400:405   */\n  dup2\n    /* \"#utility.yul\":389:405   */\n  swap1\n  pop\n    /* \"#utility.yul\":334:411   */\n  swap2\n  swap1\n  pop\n  jump\t// out\n    /* \"#utility.yul\":417:539   */\ntag_25:\n    /* \"#utility.yul\":490:514   */\n  tag_40\n    /* \"#utility.yul\":508:513   */\n  dup2\n    /* \"#utility.yul\":490:514   */\n  tag_24\n  jump\t// in\ntag_40:\n    /* \"#utility.yul\":483:488   */\n  dup2\n    /* \"#utility.yul\":480:515   */\n  eq\n    /* \"#utility.yul\":470:533   */\n  tag_41\n  jumpi\n    /* \"#utility.yul\":529:530   */\n  0x00\n    /* \"#utility.yul\":526:527   */\n  dup1\n    /* \"#utility.yul\":519:531   */\n  revert\n    /* \"#utility.yul\":470:533   */\ntag_41:\n    /* \"#utility.yul\":417:539   */\n  pop\n  jump\t// out\n    /* \"#utility.yul\":545:688   */\ntag_26:\n    /* \"#utility.yul\":602:607   */\n  0x00\n    /* \"#utility.yul\":633:639   */\n  dup2\n    /* \"#utility.yul\":627:640   */\n  mload\n    /* \"#utility.yul\":618:640   */\n  swap1\n  pop\n    /* \"#utility.yul\":649:682   */\n  tag_43\n    /* \"#utility.yul\":676:681   */\n  dup2\n    /* \"#utility.yul\":649:682   */\n  tag_25\n  jump\t// in\ntag_43:\n    /* \"#utility.yul\":545:688   */\n  swap3\n  swap2\n  pop\n  pop\n  jump\t// out\n    /* \"#utility.yul\":694:1045   */\ntag_3:\n    /* \"#utility.yul\":764:770   */\n  0x00\n    /* \"#utility.yul\":813:815   */\n  0x20\n    /* \"#utility.yul\":801:810   */\n  dup3\n    /* \"#utility.yul\":792:799   */\n  dup5\n    /* \"#utility.yul\":788:811   */\n  sub\n    /* \"#utility.yul\":784:816   */\n  slt\n    /* \"#utility.yul\":781:900   */\n  iszero\n  tag_45\n  jumpi\n    /* \"#utility.yul\":819:898   */\n  tag_46\n  tag_22\n  jump\t// in\ntag_46:\n    /* \"#utility.yul\":781:900   */\ntag_45:\n    /* \"#utility.yul\":939:940   */\n  0x00\n    /* \"#utility.yul\":964:1028   */\n  tag_47\n    /* \"#utility.yul\":1020:1027   */\n  dup5\n    /* \"#utility.yul\":1011:1017   */\n  dup3\n    /* \"#utility.yul\":1000:1009   */\n  dup6\n    /* \"#utility.yul\":996:1018   */\n  add\n    /* \"#utility.yul\":964:1028   */\n  tag_26\n  jump\t// in\ntag_47:\n    /* \"#utility.yul\":954:1028   */\n  swap2\n  pop\n    /* \"#utility.yul\":910:1038   */\n  pop\n    /* \"#utility.yul\":694:1045   */\n  swap3\n  swap2\n  pop\n  pop\n  jump\t// out\n    /* \"#utility.yul\":1051:1220   */\ntag_27:\n    /* \"#utility.yul\":1135:1146   */\n  0x00\n    /* \"#utility.yul\":1169:1175   */\n  dup3\n    /* \"#utility.yul\":1164:1167   */\n  dup3\n    /* \"#utility.yul\":1157:1176   */\n  mstore\n    /* \"#utility.yul\":1209:1213   */\n  0x20\n    /* \"#utility.yul\":1204:1207   */\n  dup3\n    /* \"#utility.yul\":1200:1214   */\n  add\n    /* \"#utility.yul\":1185:1214   */\n  swap1\n  pop\n    /* \"#utility.yul\":1051:1220   */\n  swap3\n  swap2\n  pop\n  pop\n  jump\t// out\n    /* \"#utility.yul\":1226:1407   */\ntag_28:\n    /* \"#utility.yul\":1366:1399   */\n  0x45524332303a206d696e7420746f20746865207a65726f206164647265737300\n    /* \"#utility.yul\":1362:1363   */\n  0x00\n    /* \"#utility.yul\":1354:1360   */\n  dup3\n    /* \"#utility.yul\":1350:1364   */\n  add\n    /* \"#utility.yul\":1343:1400   */\n  mstore\n    /* \"#utility.yul\":1226:1407   */\n  pop\n  jump\t// out\n    /* \"#utility.yul\":1413:1779   */\ntag_29:\n    /* \"#utility.yul\":1555:1558   */\n  0x00\n    /* \"#utility.yul\":1576:1643   */\n  tag_51\n    /* \"#utility.yul\":1640:1642   */\n  0x1f\n    /* \"#utility.yul\":1635:1638   */\n  dup4\n    /* \"#utility.yul\":1576:1643   */\n  tag_27\n  jump\t// in\ntag_51:\n    /* \"#utility.yul\":1569:1643   */\n  swap2\n  pop\n    /* \"#utility.yul\":1652:1745   */\n  tag_52\n    /* \"#utility.yul\":1741:1744   */\n  dup3\n    /* \"#utility.yul\":1652:1745   */\n  tag_28\n  jump\t// in\ntag_52:\n    /* \"#utility.yul\":1770:1772   */\n  0x20\n    /* \"#utility.yul\":1765:1768   */\n  dup3\n    /* \"#utility.yul\":1761:1773   */\n  add\n    /* \"#utility.yul\":1754:1773   */\n  swap1\n  pop\n    /* \"#utility.yul\":1413:1779   */\n  swap2\n  swap1\n  pop\n  jump\t// out\n    /* \"#utility.yul\":1785:2204   */\ntag_12:\n    /* \"#utility.yul\":1951:1955   */\n  0x00\n    /* \"#utility.yul\":1989:1991   */\n  0x20\n    /* \"#utility.yul\":1978:1987   */\n  dup3\n    /* \"#utility.yul\":1974:1992   */\n  add\n    /* \"#utility.yul\":1966:1992   */\n  swap1\n  pop\n    /* \"#utility.yul\":2038:2047   */\n  dup2\n    /* \"#utility.yul\":2032:2036   */\n  dup2\n    /* \"#utility.yul\":2028:2048   */\n  sub\n    /* \"#utility.yul\":2024:2025   */\n  0x00\n    /* \"#utility.yul\":2013:2022   */\n  dup4\n    /* \"#utility.yul\":2009:2026   */\n  add\n    /* \"#utility.yul\":2002:2049   */\n  mstore\n    /* \"#utility.yul\":2066:2197   */\n  tag_54\n    /* \"#utility.yul\":2192:2196   */\n  dup2\n    /* \"#utility.yul\":2066:2197   */\n  tag_29\n  jump\t// in\ntag_54:\n    /* \"#utility.yul\":2058:2197   */\n  swap1\n  pop\n    /* \"#utility.yul\":1785:2204   */\n  swap2\n  swap1\n  pop\n  jump\t// out\n    /* \"#utility.yul\":2210:2438   */\ntag_30:\n    /* \"#utility.yul\":2350:2384   */\n  0x45524332303a206d696e7420616d6f756e74206d757374206265206772656174\n    /* \"#utility.yul\":2346:2347   */\n  0x00\n    /* \"#utility.yul\":2338:2344   */\n  dup3\n    /* \"#utility.yul\":2334:2348   */\n  add\n    /* \"#utility.yul\":2327:2385   */\n  mstore\n    /* \"#utility.yul\":2419:2430   */\n  0x6572207468616e20300000000000000000000000000000000000000000000000\n    /* \"#utility.yul\":2414:2416   */\n  0x20\n    /* \"#utility.yul\":2406:2412   */\n  dup3\n    /* \"#utility.yul\":2402:2417   */\n  add\n    /* \"#utility.yul\":2395:2431   */\n  mstore\n    /* \"#utility.yul\":2210:2438   */\n  pop\n  jump\t// out\n    /* \"#utility.yul\":2444:2810   */\ntag_31:\n    /* \"#utility.yul\":2586:2589   */\n  0x00\n    /* \"#utility.yul\":2607:2674   */\n  tag_57\n    /* \"#utility.yul\":2671:2673   */\n  0x29\n    /* \"#utility.yul\":2666:2669   */\n  dup4\n    /* \"#utility.yul\":2607:2674   */\n  tag_27\n  jump\t// in\ntag_57:\n    /* \"#utility.yul\":2600:2674   */\n  swap2\n  pop\n    /* \"#utility.yul\":2683:2776   */\n  tag_58\n    /* \"#utility.yul\":2772:2775   */\n  dup3\n    /* \"#utility.yul\":2683:2776   */\n  tag_30\n  jump\t// in\ntag_58:\n    /* \"#utility.yul\":2801:2803   */\n  0x40\n    /* \"#utility.yul\":2796:2799   */\n  dup3\n    /* \"#utility.yul\":2792:2804   */\n  add\n    /* \"#utility.yul\":2785:2804   */\n  swap1\n  pop\n    /* \"#utility.yul\":2444:2810   */\n  swap2\n  swap1\n  pop\n  jump\t// out\n    /* \"#utility.yul\":2816:3235   */\ntag_15:\n    /* \"#utility.yul\":2982:2986   */\n  0x00\n    /* \"#utility.yul\":3020:3022   */\n  0x20\n    /* \"#utility.yul\":3009:3018   */\n  dup3\n    /* \"#utility.yul\":3005:3023   */\n  add\n    /* \"#utility.yul\":2997:3023   */\n  swap1\n  pop\n    /* \"#utility.yul\":3069:3078   */\n  dup2\n    /* \"#utility.yul\":3063:3067   */\n  dup2\n    /* \"#utility.yul\":3059:3079   */\n  sub\n    /* \"#utility.yul\":3055:3056   */\n  0x00\n    /* \"#utility.yul\":3044:3053   */\n  dup4\n    /* \"#utility.yul\":3040:3057   */\n  add\n    /* \"#utility.yul\":3033:3080   */\n  mstore\n    /* \"#utility.yul\":3097:3228   */\n  tag_60\n    /* \"#utility.yul\":3223:3227   */\n  dup2\n    /* \"#utility.yul\":3097:3228   */\n  tag_31\n  jump\t// in\ntag_60:\n    /* \"#utility.yul\":3089:3228   */\n  swap1\n  pop\n    /* \"#utility.yul\":2816:3235   */\n  swap2\n  swap1\n  pop\n  jump\t// out\n    /* \"#utility.yul\":3241:3421   */\ntag_32:\n    /* \"#utility.yul\":3289:3366   */\n  0x4e487b7100000000000000000000000000000000000000000000000000000000\n    /* \"#utility.yul\":3286:3287   */\n  0x00\n    /* \"#utility.yul\":3279:3367   */\n  mstore\n    /* \"#utility.yul\":3386:3390   */\n  0x11\n    /* \"#utility.yul\":3383:3384   */\n  0x04\n    /* \"#utility.yul\":3376:3391   */\n  mstore\n    /* \"#utility.yul\":3410:3414   */\n  0x24\n    /* \"#utility.yul\":3407:3408   */\n  0x00\n    /* \"#utility.yul\":3400:3415   */\n  revert\n    /* \"#utility.yul\":3427:3618   */\ntag_17:\n    /* \"#utility.yul\":3467:3470   */\n  0x00\n    /* \"#utility.yul\":3486:3506   */\n  tag_63\n    /* \"#utility.yul\":3504:3505   */\n  dup3\n    /* \"#utility.yul\":3486:3506   */\n  tag_24\n  jump\t// in\ntag_63:\n    /* \"#utility.yul\":3481:3506   */\n  swap2\n  pop\n    /* \"#utility.yul\":3520:3540   */\n  tag_64\n    /* \"#utility.yul\":3538:3539   */\n  dup4\n    /* \"#utility.yul\":3520:3540   */\n  tag_24\n  jump\t// in\ntag_64:\n    /* \"#utility.yul\":3515:3540   */\n  swap3\n  pop\n    /* \"#utility.yul\":3563:3564   */\n  dup3\n    /* \"#utility.yul\":3560:3561   */\n  dup3\n    /* \"#utility.yul\":3556:3565   */\n  add\n    /* \"#utility.yul\":3549:3565   */\n  swap1\n  pop\n    /* \"#utility.yul\":3584:3587   */\n  dup1\n    /* \"#utility.yul\":3581:3582   */\n  dup3\n    /* \"#utility.yul\":3578:3588   */\n  gt\n    /* \"#utility.yul\":3575:3611   */\n  iszero\n  tag_65\n  jumpi\n    /* \"#utility.yul\":3591:3609   */\n  tag_66\n  tag_32\n  jump\t// in\ntag_66:\n    /* \"#utility.yul\":3575:3611   */\ntag_65:\n    /* \"#utility.yul\":3427:3618   */\n  swap3\n  swap2\n  pop\n  pop\n  jump\t// out\n    /* \"#utility.yul\":3624:3742   */\ntag_33:\n    /* \"#utility.yul\":3711:3735   */\n  tag_68\n    /* \"#utility.yul\":3729:3734   */\n  dup2\n    /* \"#utility.yul\":3711:3735   */\n  tag_24\n  jump\t// in\ntag_68:\n    /* \"#utility.yul\":3706:3709   */\n  dup3\n    /* \"#utility.yul\":3699:3736   */\n  mstore\n    /* \"#utility.yul\":3624:3742   */\n  pop\n  pop\n  jump\t// out\n    /* \"#utility.yul\":3748:3970   */\ntag_20:\n    /* \"#utility.yul\":3841:3845   */\n  0x00\n    /* \"#utility.yul\":3879:3881   */\n  0x20\n    /* \"#utility.yul\":3868:3877   */\n  dup3\n    /* \"#utility.yul\":3864:3882   */\n  add\n    /* \"#utility.yul\":3856:3882   */\n  swap1\n  pop\n    /* \"#utility.yul\":3892:3963   */\n  tag_70\n    /* \"#utility.yul\":3960:3961   */\n  0x00\n    /* \"#utility.yul\":3949:3958   */\n  dup4\n    /* \"#utility.yul\":3945:3962   */\n  add\n    /* \"#utility.yul\":3936:3942   */\n  dup5\n    /* \"#utility.yul\":3892:3963   */\n  tag_33\n  jump\t// in\ntag_70:\n    /* \"#utility.yul\":3748:3970   */\n  swap3\n  swap2\n  pop\n  pop\n  jump\t// out\n    /* \"contracts/MyToken.sol\":115:4164  contract MyToken is IERC20 {... */\ntag_8:\n  dataSize(sub_0)\n  dup1\n  dataOffset(sub_0)\n  0x00\n  codecopy\n  0x00\n  return\nstop\n\nsub_0: assembly {\n        /* \"contracts/MyToken.sol\":115:4164  contract MyToken is IERC20 {... */\n      mstore(0x40, 0x80)\n      callvalue\n      dup1\n      iszero\n      tag_1\n      jumpi\n      0x00\n      dup1\n      revert\n    tag_1:\n      pop\n      jumpi(tag_2, lt(calldatasize, 0x04))\n      shr(0xe0, calldataload(0x00))\n      dup1\n      0x42966c68\n      gt\n      tag_14\n      jumpi\n      dup1\n      0x42966c68\n      eq\n      tag_8\n      jumpi\n      dup1\n      0x70a08231\n      eq\n      tag_9\n      jumpi\n      dup1\n      0x79cc6790\n      eq\n      tag_10\n      jumpi\n      dup1\n      0x95d89b41\n      eq\n      tag_11\n      jumpi\n      dup1\n      0xa9059cbb\n      eq\n      tag_12\n      jumpi\n      dup1\n      0xdd62ed3e\n      eq\n      tag_13\n      jumpi\n      jump(tag_2)\n    tag_14:\n      dup1\n      0x06fdde03\n      eq\n      tag_3\n      jumpi\n      dup1\n      0x095ea7b3\n      eq\n      tag_4\n      jumpi\n      dup1\n      0x18160ddd\n      eq\n      tag_5\n      jumpi\n      dup1\n      0x23b872dd\n      eq\n      tag_6\n      jumpi\n      dup1\n      0x313ce567\n      eq\n      tag_7\n      jumpi\n    tag_2:\n      0x00\n      dup1\n      revert\n        /* \"contracts/MyToken.sol\":153:192  string public constant name = \"MyToken\" */\n    tag_3:\n      tag_15\n      tag_16\n      jump\t// in\n    tag_15:\n      mload(0x40)\n      tag_17\n      swap2\n      swap1\n      tag_18\n      jump\t// in\n    tag_17:\n      mload(0x40)\n      dup1\n      swap2\n      sub\n      swap1\n      return\n        /* \"contracts/MyToken.sol\":2699:2848  function approve(address spender, uint256 amount) external returns (bool) {... */\n    tag_4:\n      tag_19\n      0x04\n      dup1\n      calldatasize\n      sub\n      dup2\n      add\n      swap1\n      tag_20\n      swap2\n      swap1\n      tag_21\n      jump\t// in\n    tag_20:\n      tag_22\n      jump\t// in\n    tag_19:\n      mload(0x40)\n      tag_23\n      swap2\n      swap1\n      tag_24\n      jump\t// in\n    tag_23:\n      mload(0x40)\n      dup1\n      swap2\n      sub\n      swap1\n      return\n        /* \"contracts/MyToken.sol\":985:1076  function totalSupply() external view returns (uint256) {... */\n    tag_5:\n      tag_25\n      tag_26\n      jump\t// in\n    tag_25:\n      mload(0x40)\n      tag_27\n      swap2\n      swap1\n      tag_28\n      jump\t// in\n    tag_27:\n      mload(0x40)\n      dup1\n      swap2\n      sub\n      swap1\n      return\n        /* \"contracts/MyToken.sol\":1521:1877  function transferFrom(address sender, address recipient, uint256 amount) external returns (bool) {... */\n    tag_6:\n      tag_29\n      0x04\n      dup1\n      calldatasize\n      sub\n      dup2\n      add\n      swap1\n      tag_30\n      swap2\n      swap1\n      tag_31\n      jump\t// in\n    tag_30:\n      tag_32\n      jump\t// in\n    tag_29:\n      mload(0x40)\n      tag_33\n      swap2\n      swap1\n      tag_24\n      jump\t// in\n    tag_33:\n      mload(0x40)\n      dup1\n      swap2\n      sub\n      swap1\n      return\n        /* \"contracts/MyToken.sol\":241:278  uint256 public constant decimals = 18 */\n    tag_7:\n      tag_34\n      tag_35\n      jump\t// in\n    tag_34:\n      mload(0x40)\n      tag_36\n      swap2\n      swap1\n      tag_28\n      jump\t// in\n    tag_36:\n      mload(0x40)\n      dup1\n      swap2\n      sub\n      swap1\n      return\n        /* \"contracts/MyToken.sol\":3315:3394  function burn(uint256 amount) public {... */\n    tag_8:\n      tag_37\n      0x04\n      dup1\n      calldatasize\n      sub\n      dup2\n      add\n      swap1\n      tag_38\n      swap2\n      swap1\n      tag_39\n      jump\t// in\n    tag_38:\n      tag_40\n      jump\t// in\n    tag_37:\n      stop\n        /* \"contracts/MyToken.sol\":1123:1233  function balanceOf(address account) external view returns (uint256) {... */\n    tag_9:\n      tag_41\n      0x04\n      dup1\n      calldatasize\n      sub\n      dup2\n      add\n      swap1\n      tag_42\n      swap2\n      swap1\n      tag_43\n      jump\t// in\n    tag_42:\n      tag_44\n      jump\t// in\n    tag_41:\n      mload(0x40)\n      tag_45\n      swap2\n      swap1\n      tag_28\n      jump\t// in\n    tag_45:\n      mload(0x40)\n      dup1\n      swap2\n      sub\n      swap1\n      return\n        /* \"contracts/MyToken.sol\":3467:3794  function burnFrom(address account, uint256 amount) public {... */\n    tag_10:\n      tag_46\n      0x04\n      dup1\n      calldatasize\n      sub\n      dup2\n      add\n      swap1\n      tag_47\n      swap2\n      swap1\n      tag_21\n      jump\t// in\n    tag_47:\n      tag_48\n      jump\t// in\n    tag_46:\n      stop\n        /* \"contracts/MyToken.sol\":198:235  string public constant symbol = \"MTK\" */\n    tag_11:\n      tag_49\n      tag_50\n      jump\t// in\n    tag_49:\n      mload(0x40)\n      tag_51\n      swap2\n      swap1\n      tag_18\n      jump\t// in\n    tag_51:\n      mload(0x40)\n      dup1\n      swap2\n      sub\n      swap1\n      return\n        /* \"contracts/MyToken.sol\":1286:1441  function transfer(address recipient, uint256 amount) external returns (bool) {... */\n    tag_12:\n      tag_52\n      0x04\n      dup1\n      calldatasize\n      sub\n      dup2\n      add\n      swap1\n      tag_53\n      swap2\n      swap1\n      tag_21\n      jump\t// in\n    tag_53:\n      tag_54\n      jump\t// in\n    tag_52:\n      mload(0x40)\n      tag_55\n      swap2\n      swap1\n      tag_24\n      jump\t// in\n    tag_55:\n      mload(0x40)\n      dup1\n      swap2\n      sub\n      swap1\n      return\n        /* \"contracts/MyToken.sol\":2505:2639  function allowance(address owner, address spender) external view returns (uint256) {... */\n    tag_13:\n      tag_56\n      0x04\n      dup1\n      calldatasize\n      sub\n      dup2\n      add\n      swap1\n      tag_57\n      swap2\n      swap1\n      tag_58\n      jump\t// in\n    tag_57:\n      tag_59\n      jump\t// in\n    tag_56:\n      mload(0x40)\n      tag_60\n      swap2\n      swap1\n      tag_28\n      jump\t// in\n    tag_60:\n      mload(0x40)\n      dup1\n      swap2\n      sub\n      swap1\n      return\n        /* \"contracts/MyToken.sol\":153:192  string public constant name = \"MyToken\" */\n    tag_16:\n      mload(0x40)\n      dup1\n      0x40\n      add\n      0x40\n      mstore\n      dup1\n      0x07\n      dup2\n      mstore\n      0x20\n      add\n      0x4d79546f6b656e00000000000000000000000000000000000000000000000000\n      dup2\n      mstore\n      pop\n      dup2\n      jump\t// out\n        /* \"contracts/MyToken.sol\":2699:2848  function approve(address spender, uint256 amount) external returns (bool) {... */\n    tag_22:\n        /* \"contracts/MyToken.sol\":2767:2771  bool */\n      0x00\n        /* \"contracts/MyToken.sol\":2783:2820  _approve(msg.sender, spender, amount) */\n      tag_62\n        /* \"contracts/MyToken.sol\":2792:2802  msg.sender */\n      caller\n        /* \"contracts/MyToken.sol\":2804:2811  spender */\n      dup5\n        /* \"contracts/MyToken.sol\":2813:2819  amount */\n      dup5\n        /* \"contracts/MyToken.sol\":2783:2791  _approve */\n      tag_63\n        /* \"contracts/MyToken.sol\":2783:2820  _approve(msg.sender, spender, amount) */\n      jump\t// in\n    tag_62:\n        /* \"contracts/MyToken.sol\":2837:2841  true */\n      0x01\n        /* \"contracts/MyToken.sol\":2830:2841  return true */\n      swap1\n      pop\n        /* \"contracts/MyToken.sol\":2699:2848  function approve(address spender, uint256 amount) external returns (bool) {... */\n      swap3\n      swap2\n      pop\n      pop\n      jump\t// out\n        /* \"contracts/MyToken.sol\":985:1076  function totalSupply() external view returns (uint256) {... */\n    tag_26:\n        /* \"contracts/MyToken.sol\":1031:1038  uint256 */\n      0x00\n        /* \"contracts/MyToken.sol\":1057:1069  _totalSupply */\n      dup1\n      sload\n        /* \"contracts/MyToken.sol\":1050:1069  return _totalSupply */\n      swap1\n      pop\n        /* \"contracts/MyToken.sol\":985:1076  function totalSupply() external view returns (uint256) {... */\n      swap1\n      jump\t// out\n        /* \"contracts/MyToken.sol\":1521:1877  function transferFrom(address sender, address recipient, uint256 amount) external returns (bool) {... */\n    tag_32:\n        /* \"contracts/MyToken.sol\":1612:1616  bool */\n      0x00\n        /* \"contracts/MyToken.sol\":1671:1677  amount */\n      dup2\n        /* \"contracts/MyToken.sol\":1636:1647  _allowances */\n      0x02\n        /* \"contracts/MyToken.sol\":1636:1655  _allowances[sender] */\n      0x00\n        /* \"contracts/MyToken.sol\":1648:1654  sender */\n      dup7\n        /* \"contracts/MyToken.sol\":1636:1655  _allowances[sender] */\n      0xffffffffffffffffffffffffffffffffffffffff\n      and\n      0xffffffffffffffffffffffffffffffffffffffff\n      and\n      dup2\n      mstore\n      0x20\n      add\n      swap1\n      dup2\n      mstore\n      0x20\n      add\n      0x00\n      keccak256\n        /* \"contracts/MyToken.sol\":1636:1667  _allowances[sender][msg.sender] */\n      0x00\n        /* \"contracts/MyToken.sol\":1656:1666  msg.sender */\n      caller\n        /* \"contracts/MyToken.sol\":1636:1667  _allowances[sender][msg.sender] */\n      0xffffffffffffffffffffffffffffffffffffffff\n      and\n      0xffffffffffffffffffffffffffffffffffffffff\n      and\n      dup2\n      mstore\n      0x20\n      add\n      swap1\n      dup2\n      mstore\n      0x20\n      add\n      0x00\n      keccak256\n      sload\n        /* \"contracts/MyToken.sol\":1636:1677  _allowances[sender][msg.sender] >= amount */\n      lt\n      iszero\n        /* \"contracts/MyToken.sol\":1628:1722  require(_allowances[sender][msg.sender] >= amount, \"ERC20: transfer amount exceeds allowance\") */\n      tag_66\n      jumpi\n      mload(0x40)\n      0x08c379a000000000000000000000000000000000000000000000000000000000\n      dup2\n      mstore\n      0x04\n      add\n      tag_67\n      swap1\n      tag_68\n      jump\t// in\n    tag_67:\n      mload(0x40)\n      dup1\n      swap2\n      sub\n      swap1\n      revert\n    tag_66:\n        /* \"contracts/MyToken.sol\":1733:1803  _approve(sender, msg.sender, _allowances[sender][msg.sender] - amount) */\n      tag_69\n        /* \"contracts/MyToken.sol\":1742:1748  sender */\n      dup5\n        /* \"contracts/MyToken.sol\":1750:1760  msg.sender */\n      caller\n        /* \"contracts/MyToken.sol\":1796:1802  amount */\n      dup5\n        /* \"contracts/MyToken.sol\":1762:1773  _allowances */\n      0x02\n        /* \"contracts/MyToken.sol\":1762:1781  _allowances[sender] */\n      0x00\n        /* \"contracts/MyToken.sol\":1774:1780  sender */\n      dup10\n        /* \"contracts/MyToken.sol\":1762:1781  _allowances[sender] */\n      0xffffffffffffffffffffffffffffffffffffffff\n      and\n      0xffffffffffffffffffffffffffffffffffffffff\n      and\n      dup2\n      mstore\n      0x20\n      add\n      swap1\n      dup2\n      mstore\n      0x20\n      add\n      0x00\n      keccak256\n        /* \"contracts/MyToken.sol\":1762:1793  _allowances[sender][msg.sender] */\n      0x00\n        /* \"contracts/MyToken.sol\":1782:1792  msg.sender */\n      caller\n        /* \"contracts/MyToken.sol\":1762:1793  _allowances[sender][msg.sender] */\n      0xffffffffffffffffffffffffffffffffffffffff\n      and\n      0xffffffffffffffffffffffffffffffffffffffff\n      and\n      dup2\n      mstore\n      0x20\n      add\n      swap1\n      dup2\n      mstore\n      0x20\n      add\n      0x00\n      keccak256\n      sload\n        /* \"contracts/MyToken.sol\":1762:1802  _allowances[sender][msg.sender] - amount */\n      tag_70\n      swap2\n      swap1\n      tag_71\n      jump\t// in\n    tag_70:\n        /* \"contracts/MyToken.sol\":1733:1741  _approve */\n      tag_63\n        /* \"contracts/MyToken.sol\":1733:1803  _approve(sender, msg.sender, _allowances[sender][msg.sender] - amount) */\n      jump\t// in\n    tag_69:\n        /* \"contracts/MyToken.sol\":1813:1849  _transfer(sender, recipient, amount) */\n      tag_72\n        /* \"contracts/MyToken.sol\":1823:1829  sender */\n      dup5\n        /* \"contracts/MyToken.sol\":1831:1840  recipient */\n      dup5\n        /* \"contracts/MyToken.sol\":1842:1848  amount */\n      dup5\n        /* \"contracts/MyToken.sol\":1813:1822  _transfer */\n      tag_73\n        /* \"contracts/MyToken.sol\":1813:1849  _transfer(sender, recipient, amount) */\n      jump\t// in\n    tag_72:\n        /* \"contracts/MyToken.sol\":1866:1870  true */\n      0x01\n        /* \"contracts/MyToken.sol\":1859:1870  return true */\n      swap1\n      pop\n        /* \"contracts/MyToken.sol\":1521:1877  function transferFrom(address sender, address recipient, uint256 amount) external returns (bool) {... */\n      swap4\n      swap3\n      pop\n      pop\n      pop\n      jump\t// out\n        /* \"contracts/MyToken.sol\":241:278  uint256 public constant decimals = 18 */\n    tag_35:\n        /* \"contracts/MyToken.sol\":276:278  18 */\n      0x12\n        /* \"contracts/MyToken.sol\":241:278  uint256 public constant decimals = 18 */\n      dup2\n      jump\t// out\n        /* \"contracts/MyToken.sol\":3315:3394  function burn(uint256 amount) public {... */\n    tag_40:\n        /* \"contracts/MyToken.sol\":3362:3387  _burn(msg.sender, amount) */\n      tag_75\n        /* \"contracts/MyToken.sol\":3368:3378  msg.sender */\n      caller\n        /* \"contracts/MyToken.sol\":3380:3386  amount */\n      dup3\n        /* \"contracts/MyToken.sol\":3362:3367  _burn */\n      tag_76\n        /* \"contracts/MyToken.sol\":3362:3387  _burn(msg.sender, amount) */\n      jump\t// in\n    tag_75:\n        /* \"contracts/MyToken.sol\":3315:3394  function burn(uint256 amount) public {... */\n      pop\n      jump\t// out\n        /* \"contracts/MyToken.sol\":1123:1233  function balanceOf(address account) external view returns (uint256) {... */\n    tag_44:\n        /* \"contracts/MyToken.sol\":1182:1189  uint256 */\n      0x00\n        /* \"contracts/MyToken.sol\":1208:1217  _balances */\n      0x01\n        /* \"contracts/MyToken.sol\":1208:1226  _balances[account] */\n      0x00\n        /* \"contracts/MyToken.sol\":1218:1225  account */\n      dup4\n        /* \"contracts/MyToken.sol\":1208:1226  _balances[account] */\n      0xffffffffffffffffffffffffffffffffffffffff\n      and\n      0xffffffffffffffffffffffffffffffffffffffff\n      and\n      dup2\n      mstore\n      0x20\n      add\n      swap1\n      dup2\n      mstore\n      0x20\n      add\n      0x00\n      keccak256\n      sload\n        /* \"contracts/MyToken.sol\":1201:1226  return _balances[account] */\n      swap1\n      pop\n        /* \"contracts/MyToken.sol\":1123:1233  function balanceOf(address account) external view returns (uint256) {... */\n      swap2\n      swap1\n      pop\n      jump\t// out\n        /* \"contracts/MyToken.sol\":3467:3794  function burnFrom(address account, uint256 amount) public {... */\n    tag_48:\n        /* \"contracts/MyToken.sol\":3535:3561  uint256 decreasedAllowance */\n      0x00\n        /* \"contracts/MyToken.sol\":3599:3605  amount */\n      dup2\n        /* \"contracts/MyToken.sol\":3564:3575  _allowances */\n      0x02\n        /* \"contracts/MyToken.sol\":3564:3584  _allowances[account] */\n      0x00\n        /* \"contracts/MyToken.sol\":3576:3583  account */\n      dup6\n        /* \"contracts/MyToken.sol\":3564:3584  _allowances[account] */\n      0xffffffffffffffffffffffffffffffffffffffff\n      and\n      0xffffffffffffffffffffffffffffffffffffffff\n      and\n      dup2\n      mstore\n      0x20\n      add\n      swap1\n      dup2\n      mstore\n      0x20\n      add\n      0x00\n      keccak256\n        /* \"contracts/MyToken.sol\":3564:3596  _allowances[account][msg.sender] */\n      0x00\n        /* \"contracts/MyToken.sol\":3585:3595  msg.sender */\n      caller\n        /* \"contracts/MyToken.sol\":3564:3596  _allowances[account][msg.sender] */\n      0xffffffffffffffffffffffffffffffffffffffff\n      and\n      0xffffffffffffffffffffffffffffffffffffffff\n      and\n      dup2\n      mstore\n      0x20\n      add\n      swap1\n      dup2\n      mstore\n      0x20\n      add\n      0x00\n      keccak256\n      sload\n        /* \"contracts/MyToken.sol\":3564:3605  _allowances[account][msg.sender] - amount */\n      tag_79\n      swap2\n      swap1\n      tag_71\n      jump\t// in\n    tag_79:\n        /* \"contracts/MyToken.sol\":3535:3605  uint256 decreasedAllowance = _allowances[account][msg.sender] - amount */\n      swap1\n      pop\n        /* \"contracts/MyToken.sol\":3645:3646  0 */\n      0x00\n        /* \"contracts/MyToken.sol\":3623:3641  decreasedAllowance */\n      dup2\n        /* \"contracts/MyToken.sol\":3623:3646  decreasedAllowance >= 0 */\n      lt\n      iszero\n        /* \"contracts/MyToken.sol\":3615:3687  require(decreasedAllowance >= 0, \"ERC20: burn amount exceeds allowance\") */\n      tag_80\n      jumpi\n      mload(0x40)\n      0x08c379a000000000000000000000000000000000000000000000000000000000\n      dup2\n      mstore\n      0x04\n      add\n      tag_81\n      swap1\n      tag_82\n      jump\t// in\n    tag_81:\n      mload(0x40)\n      dup1\n      swap2\n      sub\n      swap1\n      revert\n    tag_80:\n        /* \"contracts/MyToken.sol\":3706:3755  _approve(account, msg.sender, decreasedAllowance) */\n      tag_83\n        /* \"contracts/MyToken.sol\":3715:3722  account */\n      dup4\n        /* \"contracts/MyToken.sol\":3724:3734  msg.sender */\n      caller\n        /* \"contracts/MyToken.sol\":3736:3754  decreasedAllowance */\n      dup4\n        /* \"contracts/MyToken.sol\":3706:3714  _approve */\n      tag_63\n        /* \"contracts/MyToken.sol\":3706:3755  _approve(account, msg.sender, decreasedAllowance) */\n      jump\t// in\n    tag_83:\n        /* \"contracts/MyToken.sol\":3765:3787  _burn(account, amount) */\n      tag_84\n        /* \"contracts/MyToken.sol\":3771:3778  account */\n      dup4\n        /* \"contracts/MyToken.sol\":3780:3786  amount */\n      dup4\n        /* \"contracts/MyToken.sol\":3765:3770  _burn */\n      tag_76\n        /* \"contracts/MyToken.sol\":3765:3787  _burn(account, amount) */\n      jump\t// in\n    tag_84:\n        /* \"contracts/MyToken.sol\":3525:3794  {... */\n      pop\n        /* \"contracts/MyToken.sol\":3467:3794  function burnFrom(address account, uint256 amount) public {... */\n      pop\n      pop\n      jump\t// out\n        /* \"contracts/MyToken.sol\":198:235  string public constant symbol = \"MTK\" */\n    tag_50:\n      mload(0x40)\n      dup1\n      0x40\n      add\n      0x40\n      mstore\n      dup1\n      0x03\n      dup2\n      mstore\n      0x20\n      add\n      0x4d544b0000000000000000000000000000000000000000000000000000000000\n      dup2\n      mstore\n      pop\n      dup2\n      jump\t// out\n        /* \"contracts/MyToken.sol\":1286:1441  function transfer(address recipient, uint256 amount) external returns (bool) {... */\n    tag_54:\n        /* \"contracts/MyToken.sol\":1357:1361  bool */\n      0x00\n        /* \"contracts/MyToken.sol\":1373:1413  _transfer(msg.sender, recipient, amount) */\n      tag_86\n        /* \"contracts/MyToken.sol\":1383:1393  msg.sender */\n      caller\n        /* \"contracts/MyToken.sol\":1395:1404  recipient */\n      dup5\n        /* \"contracts/MyToken.sol\":1406:1412  amount */\n      dup5\n        /* \"contracts/MyToken.sol\":1373:1382  _transfer */\n      tag_73\n        /* \"contracts/MyToken.sol\":1373:1413  _transfer(msg.sender, recipient, amount) */\n      jump\t// in\n    tag_86:\n        /* \"contracts/MyToken.sol\":1430:1434  true */\n      0x01\n        /* \"contracts/MyToken.sol\":1423:1434  return true */\n      swap1\n      pop\n        /* \"contracts/MyToken.sol\":1286:1441  function transfer(address recipient, uint256 amount) external returns (bool) {... */\n      swap3\n      swap2\n      pop\n      pop\n      jump\t// out\n        /* \"contracts/MyToken.sol\":2505:2639  function allowance(address owner, address spender) external view returns (uint256) {... */\n    tag_59:\n        /* \"contracts/MyToken.sol\":2579:2586  uint256 */\n      0x00\n        /* \"contracts/MyToken.sol\":2605:2616  _allowances */\n      0x02\n        /* \"contracts/MyToken.sol\":2605:2623  _allowances[owner] */\n      0x00\n        /* \"contracts/MyToken.sol\":2617:2622  owner */\n      dup5\n        /* \"contracts/MyToken.sol\":2605:2623  _allowances[owner] */\n      0xffffffffffffffffffffffffffffffffffffffff\n      and\n      0xffffffffffffffffffffffffffffffffffffffff\n      and\n      dup2\n      mstore\n      0x20\n      add\n      swap1\n      dup2\n      mstore\n      0x20\n      add\n      0x00\n      keccak256\n        /* \"contracts/MyToken.sol\":2605:2632  _allowances[owner][spender] */\n      0x00\n        /* \"contracts/MyToken.sol\":2624:2631  spender */\n      dup4\n        /* \"contracts/MyToken.sol\":2605:2632  _allowances[owner][spender] */\n      0xffffffffffffffffffffffffffffffffffffffff\n      and\n      0xffffffffffffffffffffffffffffffffffffffff\n      and\n      dup2\n      mstore\n      0x20\n      add\n      swap1\n      dup2\n      mstore\n      0x20\n      add\n      0x00\n      keccak256\n      sload\n        /* \"contracts/MyToken.sol\":2598:2632  return _allowances[owner][spender] */\n      swap1\n      pop\n        /* \"contracts/MyToken.sol\":2505:2639  function allowance(address owner, address spender) external view returns (uint256) {... */\n      swap3\n      swap2\n      pop\n      pop\n      jump\t// out\n        /* \"contracts/MyToken.sol\":2854:3264  function _approve(address owner, address spender, uint256 amount) internal {... */\n    tag_63:\n        /* \"contracts/MyToken.sol\":2964:2965  0 */\n      0x00\n        /* \"contracts/MyToken.sol\":2947:2966  owner != address(0) */\n      0xffffffffffffffffffffffffffffffffffffffff\n      and\n        /* \"contracts/MyToken.sol\":2947:2952  owner */\n      dup4\n        /* \"contracts/MyToken.sol\":2947:2966  owner != address(0) */\n      0xffffffffffffffffffffffffffffffffffffffff\n      and\n      sub\n        /* \"contracts/MyToken.sol\":2939:3007  require(owner != address(0), \"ERC20: approve from the zero address\") */\n      tag_89\n      jumpi\n      mload(0x40)\n      0x08c379a000000000000000000000000000000000000000000000000000000000\n      dup2\n      mstore\n      0x04\n      add\n      tag_90\n      swap1\n      tag_91\n      jump\t// in\n    tag_90:\n      mload(0x40)\n      dup1\n      swap2\n      sub\n      swap1\n      revert\n    tag_89:\n        /* \"contracts/MyToken.sol\":3044:3045  0 */\n      0x00\n        /* \"contracts/MyToken.sol\":3025:3046  spender != address(0) */\n      0xffffffffffffffffffffffffffffffffffffffff\n      and\n        /* \"contracts/MyToken.sol\":3025:3032  spender */\n      dup3\n        /* \"contracts/MyToken.sol\":3025:3046  spender != address(0) */\n      0xffffffffffffffffffffffffffffffffffffffff\n      and\n      sub\n        /* \"contracts/MyToken.sol\":3017:3085  require(spender != address(0), \"ERC20: approve to the zero address\") */\n      tag_92\n      jumpi\n      mload(0x40)\n      0x08c379a000000000000000000000000000000000000000000000000000000000\n      dup2\n      mstore\n      0x04\n      add\n      tag_93\n      swap1\n      tag_94\n      jump\t// in\n    tag_93:\n      mload(0x40)\n      dup1\n      swap2\n      sub\n      swap1\n      revert\n    tag_92:\n        /* \"contracts/MyToken.sol\":3112:3113  0 */\n      0x00\n        /* \"contracts/MyToken.sol\":3103:3109  amount */\n      dup2\n        /* \"contracts/MyToken.sol\":3103:3113  amount > 0 */\n      gt\n        /* \"contracts/MyToken.sol\":3095:3162  require(amount > 0, \"ERC20: approve amount must be greater than 0\") */\n      tag_95\n      jumpi\n      mload(0x40)\n      0x08c379a000000000000000000000000000000000000000000000000000000000\n      dup2\n      mstore\n      0x04\n      add\n      tag_96\n      swap1\n      tag_97\n      jump\t// in\n    tag_96:\n      mload(0x40)\n      dup1\n      swap2\n      sub\n      swap1\n      revert\n    tag_95:\n        /* \"contracts/MyToken.sol\":3203:3209  amount */\n      dup1\n        /* \"contracts/MyToken.sol\":3173:3184  _allowances */\n      0x02\n        /* \"contracts/MyToken.sol\":3173:3191  _allowances[owner] */\n      0x00\n        /* \"contracts/MyToken.sol\":3185:3190  owner */\n      dup6\n        /* \"contracts/MyToken.sol\":3173:3191  _allowances[owner] */\n      0xffffffffffffffffffffffffffffffffffffffff\n      and\n      0xffffffffffffffffffffffffffffffffffffffff\n      and\n      dup2\n      mstore\n      0x20\n      add\n      swap1\n      dup2\n      mstore\n      0x20\n      add\n      0x00\n      keccak256\n        /* \"contracts/MyToken.sol\":3173:3200  _allowances[owner][spender] */\n      0x00\n        /* \"contracts/MyToken.sol\":3192:3199  spender */\n      dup5\n        /* \"contracts/MyToken.sol\":3173:3200  _allowances[owner][spender] */\n      0xffffffffffffffffffffffffffffffffffffffff\n      and\n      0xffffffffffffffffffffffffffffffffffffffff\n      and\n      dup2\n      mstore\n      0x20\n      add\n      swap1\n      dup2\n      mstore\n      0x20\n      add\n      0x00\n      keccak256\n        /* \"contracts/MyToken.sol\":3173:3209  _allowances[owner][spender] = amount */\n      dup2\n      swap1\n      sstore\n      pop\n        /* \"contracts/MyToken.sol\":3241:3248  spender */\n      dup2\n        /* \"contracts/MyToken.sol\":3225:3257  Approval(owner, spender, amount) */\n      0xffffffffffffffffffffffffffffffffffffffff\n      and\n        /* \"contracts/MyToken.sol\":3234:3239  owner */\n      dup4\n        /* \"contracts/MyToken.sol\":3225:3257  Approval(owner, spender, amount) */\n      0xffffffffffffffffffffffffffffffffffffffff\n      and\n      0x8c5be1e5ebec7d5bd14f71427d1e84f3dd0314c0f7b2291e5b200ac8c7c3b925\n        /* \"contracts/MyToken.sol\":3250:3256  amount */\n      dup4\n        /* \"contracts/MyToken.sol\":3225:3257  Approval(owner, spender, amount) */\n      mload(0x40)\n      tag_98\n      swap2\n      swap1\n      tag_28\n      jump\t// in\n    tag_98:\n      mload(0x40)\n      dup1\n      swap2\n      sub\n      swap1\n      log3\n        /* \"contracts/MyToken.sol\":2854:3264  function _approve(address owner, address spender, uint256 amount) internal {... */\n      pop\n      pop\n      pop\n      jump\t// out\n        /* \"contracts/MyToken.sol\":1883:2425  function _transfer(address sender, address recipient, uint256 amount) internal {... */\n    tag_73:\n        /* \"contracts/MyToken.sol\":1998:1999  0 */\n      0x00\n        /* \"contracts/MyToken.sol\":1980:2000  sender != address(0) */\n      0xffffffffffffffffffffffffffffffffffffffff\n      and\n        /* \"contracts/MyToken.sol\":1980:1986  sender */\n      dup4\n        /* \"contracts/MyToken.sol\":1980:2000  sender != address(0) */\n      0xffffffffffffffffffffffffffffffffffffffff\n      and\n      sub\n        /* \"contracts/MyToken.sol\":1972:2042  require(sender != address(0), \"ERC20: transfer from the zero address\") */\n      tag_100\n      jumpi\n      mload(0x40)\n      0x08c379a000000000000000000000000000000000000000000000000000000000\n      dup2\n      mstore\n      0x04\n      add\n      tag_101\n      swap1\n      tag_102\n      jump\t// in\n    tag_101:\n      mload(0x40)\n      dup1\n      swap2\n      sub\n      swap1\n      revert\n    tag_100:\n        /* \"contracts/MyToken.sol\":2081:2082  0 */\n      0x00\n        /* \"contracts/MyToken.sol\":2060:2083  recipient != address(0) */\n      0xffffffffffffffffffffffffffffffffffffffff\n      and\n        /* \"contracts/MyToken.sol\":2060:2069  recipient */\n      dup3\n        /* \"contracts/MyToken.sol\":2060:2083  recipient != address(0) */\n      0xffffffffffffffffffffffffffffffffffffffff\n      and\n      sub\n        /* \"contracts/MyToken.sol\":2052:2123  require(recipient != address(0), \"ERC20: transfer to the zero address\") */\n      tag_103\n      jumpi\n      mload(0x40)\n      0x08c379a000000000000000000000000000000000000000000000000000000000\n      dup2\n      mstore\n      0x04\n      add\n      tag_104\n      swap1\n      tag_105\n      jump\t// in\n    tag_104:\n      mload(0x40)\n      dup1\n      swap2\n      sub\n      swap1\n      revert\n    tag_103:\n        /* \"contracts/MyToken.sol\":2150:2151  0 */\n      0x00\n        /* \"contracts/MyToken.sol\":2141:2147  amount */\n      dup2\n        /* \"contracts/MyToken.sol\":2141:2151  amount > 0 */\n      gt\n        /* \"contracts/MyToken.sol\":2133:2201  require(amount > 0, \"ERC20: transfer amount must be greater than 0\") */\n      tag_106\n      jumpi\n      mload(0x40)\n      0x08c379a000000000000000000000000000000000000000000000000000000000\n      dup2\n      mstore\n      0x04\n      add\n      tag_107\n      swap1\n      tag_108\n      jump\t// in\n    tag_107:\n      mload(0x40)\n      dup1\n      swap2\n      sub\n      swap1\n      revert\n    tag_106:\n        /* \"contracts/MyToken.sol\":2240:2246  amount */\n      dup1\n        /* \"contracts/MyToken.sol\":2219:2228  _balances */\n      0x01\n        /* \"contracts/MyToken.sol\":2219:2236  _balances[sender] */\n      0x00\n        /* \"contracts/MyToken.sol\":2229:2235  sender */\n      dup6\n        /* \"contracts/MyToken.sol\":2219:2236  _balances[sender] */\n      0xffffffffffffffffffffffffffffffffffffffff\n      and\n      0xffffffffffffffffffffffffffffffffffffffff\n      and\n      dup2\n      mstore\n      0x20\n      add\n      swap1\n      dup2\n      mstore\n      0x20\n      add\n      0x00\n      keccak256\n      sload\n        /* \"contracts/MyToken.sol\":2219:2246  _balances[sender] >= amount */\n      lt\n      iszero\n        /* \"contracts/MyToken.sol\":2211:2289  require(_balances[sender] >= amount, \"ERC20: transfer amount exceeds balance\") */\n      tag_109\n      jumpi\n      mload(0x40)\n      0x08c379a000000000000000000000000000000000000000000000000000000000\n      dup2\n      mstore\n      0x04\n      add\n      tag_110\n      swap1\n      tag_111\n      jump\t// in\n    tag_110:\n      mload(0x40)\n      dup1\n      swap2\n      sub\n      swap1\n      revert\n    tag_109:\n        /* \"contracts/MyToken.sol\":2321:2327  amount */\n      dup1\n        /* \"contracts/MyToken.sol\":2300:2309  _balances */\n      0x01\n        /* \"contracts/MyToken.sol\":2300:2317  _balances[sender] */\n      0x00\n        /* \"contracts/MyToken.sol\":2310:2316  sender */\n      dup6\n        /* \"contracts/MyToken.sol\":2300:2317  _balances[sender] */\n      0xffffffffffffffffffffffffffffffffffffffff\n      and\n      0xffffffffffffffffffffffffffffffffffffffff\n      and\n      dup2\n      mstore\n      0x20\n      add\n      swap1\n      dup2\n      mstore\n      0x20\n      add\n      0x00\n      keccak256\n      0x00\n        /* \"contracts/MyToken.sol\":2300:2327  _balances[sender] -= amount */\n      dup3\n      dup3\n      sload\n      tag_112\n      swap2\n      swap1\n      tag_71\n      jump\t// in\n    tag_112:\n      swap3\n      pop\n      pop\n      dup2\n      swap1\n      sstore\n      pop\n        /* \"contracts/MyToken.sol\":2361:2367  amount */\n      dup1\n        /* \"contracts/MyToken.sol\":2337:2346  _balances */\n      0x01\n        /* \"contracts/MyToken.sol\":2337:2357  _balances[recipient] */\n      0x00\n        /* \"contracts/MyToken.sol\":2347:2356  recipient */\n      dup5\n        /* \"contracts/MyToken.sol\":2337:2357  _balances[recipient] */\n      0xffffffffffffffffffffffffffffffffffffffff\n      and\n      0xffffffffffffffffffffffffffffffffffffffff\n      and\n      dup2\n      mstore\n      0x20\n      add\n      swap1\n      dup2\n      mstore\n      0x20\n      add\n      0x00\n      keccak256\n      0x00\n        /* \"contracts/MyToken.sol\":2337:2367  _balances[recipient] += amount */\n      dup3\n      dup3\n      sload\n      tag_113\n      swap2\n      swap1\n      tag_114\n      jump\t// in\n    tag_113:\n      swap3\n      pop\n      pop\n      dup2\n      swap1\n      sstore\n      pop\n        /* \"contracts/MyToken.sol\":2400:2409  recipient */\n      dup2\n        /* \"contracts/MyToken.sol\":2383:2418  Transfer(sender, recipient, amount) */\n      0xffffffffffffffffffffffffffffffffffffffff\n      and\n        /* \"contracts/MyToken.sol\":2392:2398  sender */\n      dup4\n        /* \"contracts/MyToken.sol\":2383:2418  Transfer(sender, recipient, amount) */\n      0xffffffffffffffffffffffffffffffffffffffff\n      and\n      0xddf252ad1be2c89b69c2b068fc378daa952ba7f163c4a11628f55a4df523b3ef\n        /* \"contracts/MyToken.sol\":2411:2417  amount */\n      dup4\n        /* \"contracts/MyToken.sol\":2383:2418  Transfer(sender, recipient, amount) */\n      mload(0x40)\n      tag_115\n      swap2\n      swap1\n      tag_28\n      jump\t// in\n    tag_115:\n      mload(0x40)\n      dup1\n      swap2\n      sub\n      swap1\n      log3\n        /* \"contracts/MyToken.sol\":1883:2425  function _transfer(address sender, address recipient, uint256 amount) internal {... */\n      pop\n      pop\n      pop\n      jump\t// out\n        /* \"contracts/MyToken.sol\":3804:4161  function _burn(address account, uint256 amount) internal {... */\n    tag_76:\n        /* \"contracts/MyToken.sol\":3898:3899  0 */\n      0x00\n        /* \"contracts/MyToken.sol\":3879:3900  account != address(0) */\n      0xffffffffffffffffffffffffffffffffffffffff\n      and\n        /* \"contracts/MyToken.sol\":3879:3886  account */\n      dup3\n        /* \"contracts/MyToken.sol\":3879:3900  account != address(0) */\n      0xffffffffffffffffffffffffffffffffffffffff\n      and\n      sub\n        /* \"contracts/MyToken.sol\":3871:3938  require(account != address(0), \"ERC20: burn from the zero address\") */\n      tag_117\n      jumpi\n      mload(0x40)\n      0x08c379a000000000000000000000000000000000000000000000000000000000\n      dup2\n      mstore\n      0x04\n      add\n      tag_118\n      swap1\n      tag_119\n      jump\t// in\n    tag_118:\n      mload(0x40)\n      dup1\n      swap2\n      sub\n      swap1\n      revert\n    tag_117:\n        /* \"contracts/MyToken.sol\":3978:3984  amount */\n      dup1\n        /* \"contracts/MyToken.sol\":3956:3965  _balances */\n      0x01\n        /* \"contracts/MyToken.sol\":3956:3974  _balances[account] */\n      0x00\n        /* \"contracts/MyToken.sol\":3966:3973  account */\n      dup5\n        /* \"contracts/MyToken.sol\":3956:3974  _balances[account] */\n      0xffffffffffffffffffffffffffffffffffffffff\n      and\n      0xffffffffffffffffffffffffffffffffffffffff\n      and\n      dup2\n      mstore\n      0x20\n      add\n      swap1\n      dup2\n      mstore\n      0x20\n      add\n      0x00\n      keccak256\n      sload\n        /* \"contracts/MyToken.sol\":3956:3984  _balances[account] >= amount */\n      lt\n      iszero\n        /* \"contracts/MyToken.sol\":3948:4023  require(_balances[account] >= amount, \"ERC20: burn amount exceeds balance\") */\n      tag_120\n      jumpi\n      mload(0x40)\n      0x08c379a000000000000000000000000000000000000000000000000000000000\n      dup2\n      mstore\n      0x04\n      add\n      tag_121\n      swap1\n      tag_122\n      jump\t// in\n    tag_121:\n      mload(0x40)\n      dup1\n      swap2\n      sub\n      swap1\n      revert\n    tag_120:\n        /* \"contracts/MyToken.sol\":4064:4070  amount */\n      dup1\n        /* \"contracts/MyToken.sol\":4042:4051  _balances */\n      0x01\n        /* \"contracts/MyToken.sol\":4042:4060  _balances[account] */\n      0x00\n        /* \"contracts/MyToken.sol\":4052:4059  account */\n      dup5\n        /* \"contracts/MyToken.sol\":4042:4060  _balances[account] */\n      0xffffffffffffffffffffffffffffffffffffffff\n      and\n      0xffffffffffffffffffffffffffffffffffffffff\n      and\n      dup2\n      mstore\n      0x20\n      add\n      swap1\n      dup2\n      mstore\n      0x20\n      add\n      0x00\n      keccak256\n      0x00\n        /* \"contracts/MyToken.sol\":4042:4070  _balances[account] -= amount */\n      dup3\n      dup3\n      sload\n      tag_123\n      swap2\n      swap1\n      tag_71\n      jump\t// in\n    tag_123:\n      swap3\n      pop\n      pop\n      dup2\n      swap1\n      sstore\n      pop\n        /* \"contracts/MyToken.sol\":4096:4102  amount */\n      dup1\n        /* \"contracts/MyToken.sol\":4080:4092  _totalSupply */\n      0x00\n      dup1\n        /* \"contracts/MyToken.sol\":4080:4102  _totalSupply -= amount */\n      dup3\n      dup3\n      sload\n      tag_124\n      swap2\n      swap1\n      tag_71\n      jump\t// in\n    tag_124:\n      swap3\n      pop\n      pop\n      dup2\n      swap1\n      sstore\n      pop\n        /* \"contracts/MyToken.sol\":4143:4144  0 */\n      0x00\n        /* \"contracts/MyToken.sol\":4117:4154  Transfer(account, address(0), amount) */\n      0xffffffffffffffffffffffffffffffffffffffff\n      and\n        /* \"contracts/MyToken.sol\":4126:4133  account */\n      dup3\n        /* \"contracts/MyToken.sol\":4117:4154  Transfer(account, address(0), amount) */\n      0xffffffffffffffffffffffffffffffffffffffff\n      and\n      0xddf252ad1be2c89b69c2b068fc378daa952ba7f163c4a11628f55a4df523b3ef\n        /* \"contracts/MyToken.sol\":4147:4153  amount */\n      dup4\n        /* \"contracts/MyToken.sol\":4117:4154  Transfer(account, address(0), amount) */\n      mload(0x40)\n      tag_125\n      swap2\n      swap1\n      tag_28\n      jump\t// in\n    tag_125:\n      mload(0x40)\n      dup1\n      swap2\n      sub\n      swap1\n      log3\n        /* \"contracts/MyToken.sol\":3804:4161  function _burn(address account, uint256 amount) internal {... */\n      pop\n      pop\n      jump\t// out\n        /* \"#utility.yul\":7:106   */\n    tag_126:\n        /* \"#utility.yul\":59:65   */\n      0x00\n        /* \"#utility.yul\":93:98   */\n      dup2\n        /* \"#utility.yul\":87:99   */\n      mload\n        /* \"#utility.yul\":77:99   */\n      swap1\n      pop\n        /* \"#utility.yul\":7:106   */\n      swap2\n      swap1\n      pop\n      jump\t// out\n        /* \"#utility.yul\":112:281   */\n    tag_127:\n        /* \"#utility.yul\":196:207   */\n      0x00\n        /* \"#utility.yul\":230:236   */\n      dup3\n        /* \"#utility.yul\":225:228   */\n      dup3\n        /* \"#utility.yul\":218:237   */\n      mstore\n        /* \"#utility.yul\":270:274   */\n      0x20\n        /* \"#utility.yul\":265:268   */\n      dup3\n        /* \"#utility.yul\":261:275   */\n      add\n        /* \"#utility.yul\":246:275   */\n      swap1\n      pop\n        /* \"#utility.yul\":112:281   */\n      swap3\n      swap2\n      pop\n      pop\n      jump\t// out\n        /* \"#utility.yul\":287:533   */\n    tag_128:\n        /* \"#utility.yul\":368:369   */\n      0x00\n        /* \"#utility.yul\":378:491   */\n    tag_171:\n        /* \"#utility.yul\":392:398   */\n      dup4\n        /* \"#utility.yul\":389:390   */\n      dup2\n        /* \"#utility.yul\":386:399   */\n      lt\n        /* \"#utility.yul\":378:491   */\n      iszero\n      tag_173\n      jumpi\n        /* \"#utility.yul\":477:478   */\n      dup1\n        /* \"#utility.yul\":472:475   */\n      dup3\n        /* \"#utility.yul\":468:479   */\n      add\n        /* \"#utility.yul\":462:480   */\n      mload\n        /* \"#utility.yul\":458:459   */\n      dup2\n        /* \"#utility.yul\":453:456   */\n      dup5\n        /* \"#utility.yul\":449:460   */\n      add\n        /* \"#utility.yul\":442:481   */\n      mstore\n        /* \"#utility.yul\":414:416   */\n      0x20\n        /* \"#utility.yul\":411:412   */\n      dup2\n        /* \"#utility.yul\":407:417   */\n      add\n        /* \"#utility.yul\":402:417   */\n      swap1\n      pop\n        /* \"#utility.yul\":378:491   */\n      jump(tag_171)\n    tag_173:\n        /* \"#utility.yul\":525:526   */\n      0x00\n        /* \"#utility.yul\":516:522   */\n      dup5\n        /* \"#utility.yul\":511:514   */\n      dup5\n        /* \"#utility.yul\":507:523   */\n      add\n        /* \"#utility.yul\":500:527   */\n      mstore\n        /* \"#utility.yul\":349:533   */\n      pop\n        /* \"#utility.yul\":287:533   */\n      pop\n      pop\n      pop\n      jump\t// out\n        /* \"#utility.yul\":539:641   */\n    tag_129:\n        /* \"#utility.yul\":580:586   */\n      0x00\n        /* \"#utility.yul\":631:633   */\n      0x1f\n        /* \"#utility.yul\":627:634   */\n      not\n        /* \"#utility.yul\":622:624   */\n      0x1f\n        /* \"#utility.yul\":615:620   */\n      dup4\n        /* \"#utility.yul\":611:625   */\n      add\n        /* \"#utility.yul\":607:635   */\n      and\n        /* \"#utility.yul\":597:635   */\n      swap1\n      pop\n        /* \"#utility.yul\":539:641   */\n      swap2\n      swap1\n      pop\n      jump\t// out\n        /* \"#utility.yul\":647:1024   */\n    tag_130:\n        /* \"#utility.yul\":735:738   */\n      0x00\n        /* \"#utility.yul\":763:802   */\n      tag_176\n        /* \"#utility.yul\":796:801   */\n      dup3\n        /* \"#utility.yul\":763:802   */\n      tag_126\n      jump\t// in\n    tag_176:\n        /* \"#utility.yul\":818:889   */\n      tag_177\n        /* \"#utility.yul\":882:888   */\n      dup2\n        /* \"#utility.yul\":877:880   */\n      dup6\n        /* \"#utility.yul\":818:889   */\n      tag_127\n      jump\t// in\n    tag_177:\n        /* \"#utility.yul\":811:889   */\n      swap4\n      pop\n        /* \"#utility.yul\":898:963   */\n      tag_178\n        /* \"#utility.yul\":956:962   */\n      dup2\n        /* \"#utility.yul\":951:954   */\n      dup6\n        /* \"#utility.yul\":944:948   */\n      0x20\n        /* \"#utility.yul\":937:942   */\n      dup7\n        /* \"#utility.yul\":933:949   */\n      add\n        /* \"#utility.yul\":898:963   */\n      tag_128\n      jump\t// in\n    tag_178:\n        /* \"#utility.yul\":988:1017   */\n      tag_179\n        /* \"#utility.yul\":1010:1016   */\n      dup2\n        /* \"#utility.yul\":988:1017   */\n      tag_129\n      jump\t// in\n    tag_179:\n        /* \"#utility.yul\":983:986   */\n      dup5\n        /* \"#utility.yul\":979:1018   */\n      add\n        /* \"#utility.yul\":972:1018   */\n      swap2\n      pop\n        /* \"#utility.yul\":739:1024   */\n      pop\n        /* \"#utility.yul\":647:1024   */\n      swap3\n      swap2\n      pop\n      pop\n      jump\t// out\n        /* \"#utility.yul\":1030:1343   */\n    tag_18:\n        /* \"#utility.yul\":1143:1147   */\n      0x00\n        /* \"#utility.yul\":1181:1183   */\n      0x20\n        /* \"#utility.yul\":1170:1179   */\n      dup3\n        /* \"#utility.yul\":1166:1184   */\n      add\n        /* \"#utility.yul\":1158:1184   */\n      swap1\n      pop\n        /* \"#utility.yul\":1230:1239   */\n      dup2\n        /* \"#utility.yul\":1224:1228   */\n      dup2\n        /* \"#utility.yul\":1220:1240   */\n      sub\n        /* \"#utility.yul\":1216:1217   */\n      0x00\n        /* \"#utility.yul\":1205:1214   */\n      dup4\n        /* \"#utility.yul\":1201:1218   */\n      add\n        /* \"#utility.yul\":1194:1241   */\n      mstore\n        /* \"#utility.yul\":1258:1336   */\n      tag_181\n        /* \"#utility.yul\":1331:1335   */\n      dup2\n        /* \"#utility.yul\":1322:1328   */\n      dup5\n        /* \"#utility.yul\":1258:1336   */\n      tag_130\n      jump\t// in\n    tag_181:\n        /* \"#utility.yul\":1250:1336   */\n      swap1\n      pop\n        /* \"#utility.yul\":1030:1343   */\n      swap3\n      swap2\n      pop\n      pop\n      jump\t// out\n        /* \"#utility.yul\":1430:1547   */\n    tag_132:\n        /* \"#utility.yul\":1539:1540   */\n      0x00\n        /* \"#utility.yul\":1536:1537   */\n      dup1\n        /* \"#utility.yul\":1529:1541   */\n      revert\n        /* \"#utility.yul\":1676:1802   */\n    tag_134:\n        /* \"#utility.yul\":1713:1720   */\n      0x00\n        /* \"#utility.yul\":1753:1795   */\n      0xffffffffffffffffffffffffffffffffffffffff\n        /* \"#utility.yul\":1746:1751   */\n      dup3\n        /* \"#utility.yul\":1742:1796   */\n      and\n        /* \"#utility.yul\":1731:1796   */\n      swap1\n      pop\n        /* \"#utility.yul\":1676:1802   */\n      swap2\n      swap1\n      pop\n      jump\t// out\n        /* \"#utility.yul\":1808:1904   */\n    tag_135:\n        /* \"#utility.yul\":1845:1852   */\n      0x00\n        /* \"#utility.yul\":1874:1898   */\n      tag_187\n        /* \"#utility.yul\":1892:1897   */\n      dup3\n        /* \"#utility.yul\":1874:1898   */\n      tag_134\n      jump\t// in\n    tag_187:\n        /* \"#utility.yul\":1863:1898   */\n      swap1\n      pop\n        /* \"#utility.yul\":1808:1904   */\n      swap2\n      swap1\n      pop\n      jump\t// out\n        /* \"#utility.yul\":1910:2032   */\n    tag_136:\n        /* \"#utility.yul\":1983:2007   */\n      tag_189\n        /* \"#utility.yul\":2001:2006   */\n      dup2\n        /* \"#utility.yul\":1983:2007   */\n      tag_135\n      jump\t// in\n    tag_189:\n        /* \"#utility.yul\":1976:1981   */\n      dup2\n        /* \"#utility.yul\":1973:2008   */\n      eq\n        /* \"#utility.yul\":1963:2026   */\n      tag_190\n      jumpi\n        /* \"#utility.yul\":2022:2023   */\n      0x00\n        /* \"#utility.yul\":2019:2020   */\n      dup1\n        /* \"#utility.yul\":2012:2024   */\n      revert\n        /* \"#utility.yul\":1963:2026   */\n    tag_190:\n        /* \"#utility.yul\":1910:2032   */\n      pop\n      jump\t// out\n        /* \"#utility.yul\":2038:2177   */\n    tag_137:\n        /* \"#utility.yul\":2084:2089   */\n      0x00\n        /* \"#utility.yul\":2122:2128   */\n      dup2\n        /* \"#utility.yul\":2109:2129   */\n      calldataload\n        /* \"#utility.yul\":2100:2129   */\n      swap1\n      pop\n        /* \"#utility.yul\":2138:2171   */\n      tag_192\n        /* \"#utility.yul\":2165:2170   */\n      dup2\n        /* \"#utility.yul\":2138:2171   */\n      tag_136\n      jump\t// in\n    tag_192:\n        /* \"#utility.yul\":2038:2177   */\n      swap3\n      swap2\n      pop\n      pop\n      jump\t// out\n        /* \"#utility.yul\":2183:2260   */\n    tag_138:\n        /* \"#utility.yul\":2220:2227   */\n      0x00\n        /* \"#utility.yul\":2249:2254   */\n      dup2\n        /* \"#utility.yul\":2238:2254   */\n      swap1\n      pop\n        /* \"#utility.yul\":2183:2260   */\n      swap2\n      swap1\n      pop\n      jump\t// out\n        /* \"#utility.yul\":2266:2388   */\n    tag_139:\n        /* \"#utility.yul\":2339:2363   */\n      tag_195\n        /* \"#utility.yul\":2357:2362   */\n      dup2\n        /* \"#utility.yul\":2339:2363   */\n      tag_138\n      jump\t// in\n    tag_195:\n        /* \"#utility.yul\":2332:2337   */\n      dup2\n        /* \"#utility.yul\":2329:2364   */\n      eq\n        /* \"#utility.yul\":2319:2382   */\n      tag_196\n      jumpi\n        /* \"#utility.yul\":2378:2379   */\n      0x00\n        /* \"#utility.yul\":2375:2376   */\n      dup1\n        /* \"#utility.yul\":2368:2380   */\n      revert\n        /* \"#utility.yul\":2319:2382   */\n    tag_196:\n        /* \"#utility.yul\":2266:2388   */\n      pop\n      jump\t// out\n        /* \"#utility.yul\":2394:2533   */\n    tag_140:\n        /* \"#utility.yul\":2440:2445   */\n      0x00\n        /* \"#utility.yul\":2478:2484   */\n      dup2\n        /* \"#utility.yul\":2465:2485   */\n      calldataload\n        /* \"#utility.yul\":2456:2485   */\n      swap1\n      pop\n        /* \"#utility.yul\":2494:2527   */\n      tag_198\n        /* \"#utility.yul\":2521:2526   */\n      dup2\n        /* \"#utility.yul\":2494:2527   */\n      tag_139\n      jump\t// in\n    tag_198:\n        /* \"#utility.yul\":2394:2533   */\n      swap3\n      swap2\n      pop\n      pop\n      jump\t// out\n        /* \"#utility.yul\":2539:3013   */\n    tag_21:\n        /* \"#utility.yul\":2607:2613   */\n      0x00\n        /* \"#utility.yul\":2615:2621   */\n      dup1\n        /* \"#utility.yul\":2664:2666   */\n      0x40\n        /* \"#utility.yul\":2652:2661   */\n      dup4\n        /* \"#utility.yul\":2643:2650   */\n      dup6\n        /* \"#utility.yul\":2639:2662   */\n      sub\n        /* \"#utility.yul\":2635:2667   */\n      slt\n        /* \"#utility.yul\":2632:2751   */\n      iszero\n      tag_200\n      jumpi\n        /* \"#utility.yul\":2670:2749   */\n      tag_201\n      tag_132\n      jump\t// in\n    tag_201:\n        /* \"#utility.yul\":2632:2751   */\n    tag_200:\n        /* \"#utility.yul\":2790:2791   */\n      0x00\n        /* \"#utility.yul\":2815:2868   */\n      tag_202\n        /* \"#utility.yul\":2860:2867   */\n      dup6\n        /* \"#utility.yul\":2851:2857   */\n      dup3\n        /* \"#utility.yul\":2840:2849   */\n      dup7\n        /* \"#utility.yul\":2836:2858   */\n      add\n        /* \"#utility.yul\":2815:2868   */\n      tag_137\n      jump\t// in\n    tag_202:\n        /* \"#utility.yul\":2805:2868   */\n      swap3\n      pop\n        /* \"#utility.yul\":2761:2878   */\n      pop\n        /* \"#utility.yul\":2917:2919   */\n      0x20\n        /* \"#utility.yul\":2943:2996   */\n      tag_203\n        /* \"#utility.yul\":2988:2995   */\n      dup6\n        /* \"#utility.yul\":2979:2985   */\n      dup3\n        /* \"#utility.yul\":2968:2977   */\n      dup7\n        /* \"#utility.yul\":2964:2986   */\n      add\n        /* \"#utility.yul\":2943:2996   */\n      tag_140\n      jump\t// in\n    tag_203:\n        /* \"#utility.yul\":2933:2996   */\n      swap2\n      pop\n        /* \"#utility.yul\":2888:3006   */\n      pop\n        /* \"#utility.yul\":2539:3013   */\n      swap3\n      pop\n      swap3\n      swap1\n      pop\n      jump\t// out\n        /* \"#utility.yul\":3019:3109   */\n    tag_141:\n        /* \"#utility.yul\":3053:3060   */\n      0x00\n        /* \"#utility.yul\":3096:3101   */\n      dup2\n        /* \"#utility.yul\":3089:3102   */\n      iszero\n        /* \"#utility.yul\":3082:3103   */\n      iszero\n        /* \"#utility.yul\":3071:3103   */\n      swap1\n      pop\n        /* \"#utility.yul\":3019:3109   */\n      swap2\n      swap1\n      pop\n      jump\t// out\n        /* \"#utility.yul\":3115:3224   */\n    tag_142:\n        /* \"#utility.yul\":3196:3217   */\n      tag_206\n        /* \"#utility.yul\":3211:3216   */\n      dup2\n        /* \"#utility.yul\":3196:3217   */\n      tag_141\n      jump\t// in\n    tag_206:\n        /* \"#utility.yul\":3191:3194   */\n      dup3\n        /* \"#utility.yul\":3184:3218   */\n      mstore\n        /* \"#utility.yul\":3115:3224   */\n      pop\n      pop\n      jump\t// out\n        /* \"#utility.yul\":3230:3440   */\n    tag_24:\n        /* \"#utility.yul\":3317:3321   */\n      0x00\n        /* \"#utility.yul\":3355:3357   */\n      0x20\n        /* \"#utility.yul\":3344:3353   */\n      dup3\n        /* \"#utility.yul\":3340:3358   */\n      add\n        /* \"#utility.yul\":3332:3358   */\n      swap1\n      pop\n        /* \"#utility.yul\":3368:3433   */\n      tag_208\n        /* \"#utility.yul\":3430:3431   */\n      0x00\n        /* \"#utility.yul\":3419:3428   */\n      dup4\n        /* \"#utility.yul\":3415:3432   */\n      add\n        /* \"#utility.yul\":3406:3412   */\n      dup5\n        /* \"#utility.yul\":3368:3433   */\n      tag_142\n      jump\t// in\n    tag_208:\n        /* \"#utility.yul\":3230:3440   */\n      swap3\n      swap2\n      pop\n      pop\n      jump\t// out\n        /* \"#utility.yul\":3446:3564   */\n    tag_143:\n        /* \"#utility.yul\":3533:3557   */\n      tag_210\n        /* \"#utility.yul\":3551:3556   */\n      dup2\n        /* \"#utility.yul\":3533:3557   */\n      tag_138\n      jump\t// in\n    tag_210:\n        /* \"#utility.yul\":3528:3531   */\n      dup3\n        /* \"#utility.yul\":3521:3558   */\n      mstore\n        /* \"#utility.yul\":3446:3564   */\n      pop\n      pop\n      jump\t// out\n        /* \"#utility.yul\":3570:3792   */\n    tag_28:\n        /* \"#utility.yul\":3663:3667   */\n      0x00\n        /* \"#utility.yul\":3701:3703   */\n      0x20\n        /* \"#utility.yul\":3690:3699   */\n      dup3\n        /* \"#utility.yul\":3686:3704   */\n      add\n        /* \"#utility.yul\":3678:3704   */\n      swap1\n      pop\n        /* \"#utility.yul\":3714:3785   */\n      tag_212\n        /* \"#utility.yul\":3782:3783   */\n      0x00\n        /* \"#utility.yul\":3771:3780   */\n      dup4\n        /* \"#utility.yul\":3767:3784   */\n      add\n        /* \"#utility.yul\":3758:3764   */\n      dup5\n        /* \"#utility.yul\":3714:3785   */\n      tag_143\n      jump\t// in\n    tag_212:\n        /* \"#utility.yul\":3570:3792   */\n      swap3\n      swap2\n      pop\n      pop\n      jump\t// out\n        /* \"#utility.yul\":3798:4417   */\n    tag_31:\n        /* \"#utility.yul\":3875:3881   */\n      0x00\n        /* \"#utility.yul\":3883:3889   */\n      dup1\n        /* \"#utility.yul\":3891:3897   */\n      0x00\n        /* \"#utility.yul\":3940:3942   */\n      0x60\n        /* \"#utility.yul\":3928:3937   */\n      dup5\n        /* \"#utility.yul\":3919:3926   */\n      dup7\n        /* \"#utility.yul\":3915:3938   */\n      sub\n        /* \"#utility.yul\":3911:3943   */\n      slt\n        /* \"#utility.yul\":3908:4027   */\n      iszero\n      tag_214\n      jumpi\n        /* \"#utility.yul\":3946:4025   */\n      tag_215\n      tag_132\n      jump\t// in\n    tag_215:\n        /* \"#utility.yul\":3908:4027   */\n    tag_214:\n        /* \"#utility.yul\":4066:4067   */\n      0x00\n        /* \"#utility.yul\":4091:4144   */\n      tag_216\n        /* \"#utility.yul\":4136:4143   */\n      dup7\n        /* \"#utility.yul\":4127:4133   */\n      dup3\n        /* \"#utility.yul\":4116:4125   */\n      dup8\n        /* \"#utility.yul\":4112:4134   */\n      add\n        /* \"#utility.yul\":4091:4144   */\n      tag_137\n      jump\t// in\n    tag_216:\n        /* \"#utility.yul\":4081:4144   */\n      swap4\n      pop\n        /* \"#utility.yul\":4037:4154   */\n      pop\n        /* \"#utility.yul\":4193:4195   */\n      0x20\n        /* \"#utility.yul\":4219:4272   */\n      tag_217\n        /* \"#utility.yul\":4264:4271   */\n      dup7\n        /* \"#utility.yul\":4255:4261   */\n      dup3\n        /* \"#utility.yul\":4244:4253   */\n      dup8\n        /* \"#utility.yul\":4240:4262   */\n      add\n        /* \"#utility.yul\":4219:4272   */\n      tag_137\n      jump\t// in\n    tag_217:\n        /* \"#utility.yul\":4209:4272   */\n      swap3\n      pop\n        /* \"#utility.yul\":4164:4282   */\n      pop\n        /* \"#utility.yul\":4321:4323   */\n      0x40\n        /* \"#utility.yul\":4347:4400   */\n      tag_218\n        /* \"#utility.yul\":4392:4399   */\n      dup7\n        /* \"#utility.yul\":4383:4389   */\n      dup3\n        /* \"#utility.yul\":4372:4381   */\n      dup8\n        /* \"#utility.yul\":4368:4390   */\n      add\n        /* \"#utility.yul\":4347:4400   */\n      tag_140\n      jump\t// in\n    tag_218:\n        /* \"#utility.yul\":4337:4400   */\n      swap2\n      pop\n        /* \"#utility.yul\":4292:4410   */\n      pop\n        /* \"#utility.yul\":3798:4417   */\n      swap3\n      pop\n      swap3\n      pop\n      swap3\n      jump\t// out\n        /* \"#utility.yul\":4423:4752   */\n    tag_39:\n        /* \"#utility.yul\":4482:4488   */\n      0x00\n        /* \"#utility.yul\":4531:4533   */\n      0x20\n        /* \"#utility.yul\":4519:4528   */\n      dup3\n        /* \"#utility.yul\":4510:4517   */\n      dup5\n        /* \"#utility.yul\":4506:4529   */\n      sub\n        /* \"#utility.yul\":4502:4534   */\n      slt\n        /* \"#utility.yul\":4499:4618   */\n      iszero\n      tag_220\n      jumpi\n        /* \"#utility.yul\":4537:4616   */\n      tag_221\n      tag_132\n      jump\t// in\n    tag_221:\n        /* \"#utility.yul\":4499:4618   */\n    tag_220:\n        /* \"#utility.yul\":4657:4658   */\n      0x00\n        /* \"#utility.yul\":4682:4735   */\n      tag_222\n        /* \"#utility.yul\":4727:4734   */\n      dup5\n        /* \"#utility.yul\":4718:4724   */\n      dup3\n        /* \"#utility.yul\":4707:4716   */\n      dup6\n        /* \"#utility.yul\":4703:4725   */\n      add\n        /* \"#utility.yul\":4682:4735   */\n      tag_140\n      jump\t// in\n    tag_222:\n        /* \"#utility.yul\":4672:4735   */\n      swap2\n      pop\n        /* \"#utility.yul\":4628:4745   */\n      pop\n        /* \"#utility.yul\":4423:4752   */\n      swap3\n      swap2\n      pop\n      pop\n      jump\t// out\n        /* \"#utility.yul\":4758:5087   */\n    tag_43:\n        /* \"#utility.yul\":4817:4823   */\n      0x00\n        /* \"#utility.yul\":4866:4868   */\n      0x20\n        /* \"#utility.yul\":4854:4863   */\n      dup3\n        /* \"#utility.yul\":4845:4852   */\n      dup5\n        /* \"#utility.yul\":4841:4864   */\n      sub\n        /* \"#utility.yul\":4837:4869   */\n      slt\n        /* \"#utility.yul\":4834:4953   */\n      iszero\n      tag_224\n      jumpi\n        /* \"#utility.yul\":4872:4951   */\n      tag_225\n      tag_132\n      jump\t// in\n    tag_225:\n        /* \"#utility.yul\":4834:4953   */\n    tag_224:\n        /* \"#utility.yul\":4992:4993   */\n      0x00\n        /* \"#utility.yul\":5017:5070   */\n      tag_226\n        /* \"#utility.yul\":5062:5069   */\n      dup5\n        /* \"#utility.yul\":5053:5059   */\n      dup3\n        /* \"#utility.yul\":5042:5051   */\n      dup6\n        /* \"#utility.yul\":5038:5060   */\n      add\n        /* \"#utility.yul\":5017:5070   */\n      tag_137\n      jump\t// in\n    tag_226:\n        /* \"#utility.yul\":5007:5070   */\n      swap2\n      pop\n        /* \"#utility.yul\":4963:5080   */\n      pop\n        /* \"#utility.yul\":4758:5087   */\n      swap3\n      swap2\n      pop\n      pop\n      jump\t// out\n        /* \"#utility.yul\":5093:5567   */\n    tag_58:\n        /* \"#utility.yul\":5161:5167   */\n      0x00\n        /* \"#utility.yul\":5169:5175   */\n      dup1\n        /* \"#utility.yul\":5218:5220   */\n      0x40\n        /* \"#utility.yul\":5206:5215   */\n      dup4\n        /* \"#utility.yul\":5197:5204   */\n      dup6\n        /* \"#utility.yul\":5193:5216   */\n      sub\n        /* \"#utility.yul\":5189:5221   */\n      slt\n        /* \"#utility.yul\":5186:5305   */\n      iszero\n      tag_228\n      jumpi\n        /* \"#utility.yul\":5224:5303   */\n      tag_229\n      tag_132\n      jump\t// in\n    tag_229:\n        /* \"#utility.yul\":5186:5305   */\n    tag_228:\n        /* \"#utility.yul\":5344:5345   */\n      0x00\n        /* \"#utility.yul\":5369:5422   */\n      tag_230\n        /* \"#utility.yul\":5414:5421   */\n      dup6\n        /* \"#utility.yul\":5405:5411   */\n      dup3\n        /* \"#utility.yul\":5394:5403   */\n      dup7\n        /* \"#utility.yul\":5390:5412   */\n      add\n        /* \"#utility.yul\":5369:5422   */\n      tag_137\n      jump\t// in\n    tag_230:\n        /* \"#utility.yul\":5359:5422   */\n      swap3\n      pop\n        /* \"#utility.yul\":5315:5432   */\n      pop\n        /* \"#utility.yul\":5471:5473   */\n      0x20\n        /* \"#utility.yul\":5497:5550   */\n      tag_231\n        /* \"#utility.yul\":5542:5549   */\n      dup6\n        /* \"#utility.yul\":5533:5539   */\n      dup3\n        /* \"#utility.yul\":5522:5531   */\n      dup7\n        /* \"#utility.yul\":5518:5540   */\n      add\n        /* \"#utility.yul\":5497:5550   */\n      tag_137\n      jump\t// in\n    tag_231:\n        /* \"#utility.yul\":5487:5550   */\n      swap2\n      pop\n        /* \"#utility.yul\":5442:5560   */\n      pop\n        /* \"#utility.yul\":5093:5567   */\n      swap3\n      pop\n      swap3\n      swap1\n      pop\n      jump\t// out\n        /* \"#utility.yul\":5573:5800   */\n    tag_144:\n        /* \"#utility.yul\":5713:5747   */\n      0x45524332303a207472616e7366657220616d6f756e7420657863656564732061\n        /* \"#utility.yul\":5709:5710   */\n      0x00\n        /* \"#utility.yul\":5701:5707   */\n      dup3\n        /* \"#utility.yul\":5697:5711   */\n      add\n        /* \"#utility.yul\":5690:5748   */\n      mstore\n        /* \"#utility.yul\":5782:5792   */\n      0x6c6c6f77616e6365000000000000000000000000000000000000000000000000\n        /* \"#utility.yul\":5777:5779   */\n      0x20\n        /* \"#utility.yul\":5769:5775   */\n      dup3\n        /* \"#utility.yul\":5765:5780   */\n      add\n        /* \"#utility.yul\":5758:5793   */\n      mstore\n        /* \"#utility.yul\":5573:5800   */\n      pop\n      jump\t// out\n        /* \"#utility.yul\":5806:6172   */\n    tag_145:\n        /* \"#utility.yul\":5948:5951   */\n      0x00\n        /* \"#utility.yul\":5969:6036   */\n      tag_234\n        /* \"#utility.yul\":6033:6035   */\n      0x28\n        /* \"#utility.yul\":6028:6031   */\n      dup4\n        /* \"#utility.yul\":5969:6036   */\n      tag_127\n      jump\t// in\n    tag_234:\n        /* \"#utility.yul\":5962:6036   */\n      swap2\n      pop\n        /* \"#utility.yul\":6045:6138   */\n      tag_235\n        /* \"#utility.yul\":6134:6137   */\n      dup3\n        /* \"#utility.yul\":6045:6138   */\n      tag_144\n      jump\t// in\n    tag_235:\n        /* \"#utility.yul\":6163:6165   */\n      0x40\n        /* \"#utility.yul\":6158:6161   */\n      dup3\n        /* \"#utility.yul\":6154:6166   */\n      add\n        /* \"#utility.yul\":6147:6166   */\n      swap1\n      pop\n        /* \"#utility.yul\":5806:6172   */\n      swap2\n      swap1\n      pop\n      jump\t// out\n        /* \"#utility.yul\":6178:6597   */\n    tag_68:\n        /* \"#utility.yul\":6344:6348   */\n      0x00\n        /* \"#utility.yul\":6382:6384   */\n      0x20\n        /* \"#utility.yul\":6371:6380   */\n      dup3\n        /* \"#utility.yul\":6367:6385   */\n      add\n        /* \"#utility.yul\":6359:6385   */\n      swap1\n      pop\n        /* \"#utility.yul\":6431:6440   */\n      dup2\n        /* \"#utility.yul\":6425:6429   */\n      dup2\n        /* \"#utility.yul\":6421:6441   */\n      sub\n        /* \"#utility.yul\":6417:6418   */\n      0x00\n        /* \"#utility.yul\":6406:6415   */\n      dup4\n        /* \"#utility.yul\":6402:6419   */\n      add\n        /* \"#utility.yul\":6395:6442   */\n      mstore\n        /* \"#utility.yul\":6459:6590   */\n      tag_237\n        /* \"#utility.yul\":6585:6589   */\n      dup2\n        /* \"#utility.yul\":6459:6590   */\n      tag_145\n      jump\t// in\n    tag_237:\n        /* \"#utility.yul\":6451:6590   */\n      swap1\n      pop\n        /* \"#utility.yul\":6178:6597   */\n      swap2\n      swap1\n      pop\n      jump\t// out\n        /* \"#utility.yul\":6603:6783   */\n    tag_146:\n        /* \"#utility.yul\":6651:6728   */\n      0x4e487b7100000000000000000000000000000000000000000000000000000000\n        /* \"#utility.yul\":6648:6649   */\n      0x00\n        /* \"#utility.yul\":6641:6729   */\n      mstore\n        /* \"#utility.yul\":6748:6752   */\n      0x11\n        /* \"#utility.yul\":6745:6746   */\n      0x04\n        /* \"#utility.yul\":6738:6753   */\n      mstore\n        /* \"#utility.yul\":6772:6776   */\n      0x24\n        /* \"#utility.yul\":6769:6770   */\n      0x00\n        /* \"#utility.yul\":6762:6777   */\n      revert\n        /* \"#utility.yul\":6789:6983   */\n    tag_71:\n        /* \"#utility.yul\":6829:6833   */\n      0x00\n        /* \"#utility.yul\":6849:6869   */\n      tag_240\n        /* \"#utility.yul\":6867:6868   */\n      dup3\n        /* \"#utility.yul\":6849:6869   */\n      tag_138\n      jump\t// in\n    tag_240:\n        /* \"#utility.yul\":6844:6869   */\n      swap2\n      pop\n        /* \"#utility.yul\":6883:6903   */\n      tag_241\n        /* \"#utility.yul\":6901:6902   */\n      dup4\n        /* \"#utility.yul\":6883:6903   */\n      tag_138\n      jump\t// in\n    tag_241:\n        /* \"#utility.yul\":6878:6903   */\n      swap3\n      pop\n        /* \"#utility.yul\":6927:6928   */\n      dup3\n        /* \"#utility.yul\":6924:6925   */\n      dup3\n        /* \"#utility.yul\":6920:6929   */\n      sub\n        /* \"#utility.yul\":6912:6929   */\n      swap1\n      pop\n        /* \"#utility.yul\":6951:6952   */\n      dup2\n        /* \"#utility.yul\":6945:6949   */\n      dup2\n        /* \"#utility.yul\":6942:6953   */\n      gt\n        /* \"#utility.yul\":6939:6976   */\n      iszero\n      tag_242\n      jumpi\n        /* \"#utility.yul\":6956:6974   */\n      tag_243\n      tag_146\n      jump\t// in\n    tag_243:\n        /* \"#utility.yul\":6939:6976   */\n    tag_242:\n        /* \"#utility.yul\":6789:6983   */\n      swap3\n      swap2\n      pop\n      pop\n      jump\t// out\n        /* \"#utility.yul\":6989:7212   */\n    tag_147:\n        /* \"#utility.yul\":7129:7163   */\n      0x45524332303a206275726e20616d6f756e74206578636565647320616c6c6f77\n        /* \"#utility.yul\":7125:7126   */\n      0x00\n        /* \"#utility.yul\":7117:7123   */\n      dup3\n        /* \"#utility.yul\":7113:7127   */\n      add\n        /* \"#utility.yul\":7106:7164   */\n      mstore\n        /* \"#utility.yul\":7198:7204   */\n      0x616e636500000000000000000000000000000000000000000000000000000000\n        /* \"#utility.yul\":7193:7195   */\n      0x20\n        /* \"#utility.yul\":7185:7191   */\n      dup3\n        /* \"#utility.yul\":7181:7196   */\n      add\n        /* \"#utility.yul\":7174:7205   */\n      mstore\n        /* \"#utility.yul\":6989:7212   */\n      pop\n      jump\t// out\n        /* \"#utility.yul\":7218:7584   */\n    tag_148:\n        /* \"#utility.yul\":7360:7363   */\n      0x00\n        /* \"#utility.yul\":7381:7448   */\n      tag_246\n        /* \"#utility.yul\":7445:7447   */\n      0x24\n        /* \"#utility.yul\":7440:7443   */\n      dup4\n        /* \"#utility.yul\":7381:7448   */\n      tag_127\n      jump\t// in\n    tag_246:\n        /* \"#utility.yul\":7374:7448   */\n      swap2\n      pop\n        /* \"#utility.yul\":7457:7550   */\n      tag_247\n        /* \"#utility.yul\":7546:7549   */\n      dup3\n        /* \"#utility.yul\":7457:7550   */\n      tag_147\n      jump\t// in\n    tag_247:\n        /* \"#utility.yul\":7575:7577   */\n      0x40\n        /* \"#utility.yul\":7570:7573   */\n      dup3\n        /* \"#utility.yul\":7566:7578   */\n      add\n        /* \"#utility.yul\":7559:7578   */\n      swap1\n      pop\n        /* \"#utility.yul\":7218:7584   */\n      swap2\n      swap1\n      pop\n      jump\t// out\n        /* \"#utility.yul\":7590:8009   */\n    tag_82:\n        /* \"#utility.yul\":7756:7760   */\n      0x00\n        /* \"#utility.yul\":7794:7796   */\n      0x20\n        /* \"#utility.yul\":7783:7792   */\n      dup3\n        /* \"#utility.yul\":7779:7797   */\n      add\n        /* \"#utility.yul\":7771:7797   */\n      swap1\n      pop\n        /* \"#utility.yul\":7843:7852   */\n      dup2\n        /* \"#utility.yul\":7837:7841   */\n      dup2\n        /* \"#utility.yul\":7833:7853   */\n      sub\n        /* \"#utility.yul\":7829:7830   */\n      0x00\n        /* \"#utility.yul\":7818:7827   */\n      dup4\n        /* \"#utility.yul\":7814:7831   */\n      add\n        /* \"#utility.yul\":7807:7854   */\n      mstore\n        /* \"#utility.yul\":7871:8002   */\n      tag_249\n        /* \"#utility.yul\":7997:8001   */\n      dup2\n        /* \"#utility.yul\":7871:8002   */\n      tag_148\n      jump\t// in\n    tag_249:\n        /* \"#utility.yul\":7863:8002   */\n      swap1\n      pop\n        /* \"#utility.yul\":7590:8009   */\n      swap2\n      swap1\n      pop\n      jump\t// out\n        /* \"#utility.yul\":8015:8238   */\n    tag_149:\n        /* \"#utility.yul\":8155:8189   */\n      0x45524332303a20617070726f76652066726f6d20746865207a65726f20616464\n        /* \"#utility.yul\":8151:8152   */\n      0x00\n        /* \"#utility.yul\":8143:8149   */\n      dup3\n        /* \"#utility.yul\":8139:8153   */\n      add\n        /* \"#utility.yul\":8132:8190   */\n      mstore\n        /* \"#utility.yul\":8224:8230   */\n      0x7265737300000000000000000000000000000000000000000000000000000000\n        /* \"#utility.yul\":8219:8221   */\n      0x20\n        /* \"#utility.yul\":8211:8217   */\n      dup3\n        /* \"#utility.yul\":8207:8222   */\n      add\n        /* \"#utility.yul\":8200:8231   */\n      mstore\n        /* \"#utility.yul\":8015:8238   */\n      pop\n      jump\t// out\n        /* \"#utility.yul\":8244:8610   */\n    tag_150:\n        /* \"#utility.yul\":8386:8389   */\n      0x00\n        /* \"#utility.yul\":8407:8474   */\n      tag_252\n        /* \"#utility.yul\":8471:8473   */\n      0x24\n        /* \"#utility.yul\":8466:8469   */\n      dup4\n        /* \"#utility.yul\":8407:8474   */\n      tag_127\n      jump\t// in\n    tag_252:\n        /* \"#utility.yul\":8400:8474   */\n      swap2\n      pop\n        /* \"#utility.yul\":8483:8576   */\n      tag_253\n        /* \"#utility.yul\":8572:8575   */\n      dup3\n        /* \"#utility.yul\":8483:8576   */\n      tag_149\n      jump\t// in\n    tag_253:\n        /* \"#utility.yul\":8601:8603   */\n      0x40\n        /* \"#utility.yul\":8596:8599   */\n      dup3\n        /* \"#utility.yul\":8592:8604   */\n      add\n        /* \"#utility.yul\":8585:8604   */\n      swap1\n      pop\n        /* \"#utility.yul\":8244:8610   */\n      swap2\n      swap1\n      pop\n      jump\t// out\n        /* \"#utility.yul\":8616:9035   */\n    tag_91:\n        /* \"#utility.yul\":8782:8786   */\n      0x00\n        /* \"#utility.yul\":8820:8822   */\n      0x20\n        /* \"#utility.yul\":8809:8818   */\n      dup3\n        /* \"#utility.yul\":8805:8823   */\n      add\n        /* \"#utility.yul\":8797:8823   */\n      swap1\n      pop\n        /* \"#utility.yul\":8869:8878   */\n      dup2\n        /* \"#utility.yul\":8863:8867   */\n      dup2\n        /* \"#utility.yul\":8859:8879   */\n      sub\n        /* \"#utility.yul\":8855:8856   */\n      0x00\n        /* \"#utility.yul\":8844:8853   */\n      dup4\n        /* \"#utility.yul\":8840:8857   */\n      add\n        /* \"#utility.yul\":8833:8880   */\n      mstore\n        /* \"#utility.yul\":8897:9028   */\n      tag_255\n        /* \"#utility.yul\":9023:9027   */\n      dup2\n        /* \"#utility.yul\":8897:9028   */\n      tag_150\n      jump\t// in\n    tag_255:\n        /* \"#utility.yul\":8889:9028   */\n      swap1\n      pop\n        /* \"#utility.yul\":8616:9035   */\n      swap2\n      swap1\n      pop\n      jump\t// out\n        /* \"#utility.yul\":9041:9262   */\n    tag_151:\n        /* \"#utility.yul\":9181:9215   */\n      0x45524332303a20617070726f766520746f20746865207a65726f206164647265\n        /* \"#utility.yul\":9177:9178   */\n      0x00\n        /* \"#utility.yul\":9169:9175   */\n      dup3\n        /* \"#utility.yul\":9165:9179   */\n      add\n        /* \"#utility.yul\":9158:9216   */\n      mstore\n        /* \"#utility.yul\":9250:9254   */\n      0x7373000000000000000000000000000000000000000000000000000000000000\n        /* \"#utility.yul\":9245:9247   */\n      0x20\n        /* \"#utility.yul\":9237:9243   */\n      dup3\n        /* \"#utility.yul\":9233:9248   */\n      add\n        /* \"#utility.yul\":9226:9255   */\n      mstore\n        /* \"#utility.yul\":9041:9262   */\n      pop\n      jump\t// out\n        /* \"#utility.yul\":9268:9634   */\n    tag_152:\n        /* \"#utility.yul\":9410:9413   */\n      0x00\n        /* \"#utility.yul\":9431:9498   */\n      tag_258\n        /* \"#utility.yul\":9495:9497   */\n      0x22\n        /* \"#utility.yul\":9490:9493   */\n      dup4\n        /* \"#utility.yul\":9431:9498   */\n      tag_127\n      jump\t// in\n    tag_258:\n        /* \"#utility.yul\":9424:9498   */\n      swap2\n      pop\n        /* \"#utility.yul\":9507:9600   */\n      tag_259\n        /* \"#utility.yul\":9596:9599   */\n      dup3\n        /* \"#utility.yul\":9507:9600   */\n      tag_151\n      jump\t// in\n    tag_259:\n        /* \"#utility.yul\":9625:9627   */\n      0x40\n        /* \"#utility.yul\":9620:9623   */\n      dup3\n        /* \"#utility.yul\":9616:9628   */\n      add\n        /* \"#utility.yul\":9609:9628   */\n      swap1\n      pop\n        /* \"#utility.yul\":9268:9634   */\n      swap2\n      swap1\n      pop\n      jump\t// out\n        /* \"#utility.yul\":9640:10059   */\n    tag_94:\n        /* \"#utility.yul\":9806:9810   */\n      0x00\n        /* \"#utility.yul\":9844:9846   */\n      0x20\n        /* \"#utility.yul\":9833:9842   */\n      dup3\n        /* \"#utility.yul\":9829:9847   */\n      add\n        /* \"#utility.yul\":9821:9847   */\n      swap1\n      pop\n        /* \"#utility.yul\":9893:9902   */\n      dup2\n        /* \"#utility.yul\":9887:9891   */\n      dup2\n        /* \"#utility.yul\":9883:9903   */\n      sub\n        /* \"#utility.yul\":9879:9880   */\n      0x00\n        /* \"#utility.yul\":9868:9877   */\n      dup4\n        /* \"#utility.yul\":9864:9881   */\n      add\n        /* \"#utility.yul\":9857:9904   */\n      mstore\n        /* \"#utility.yul\":9921:10052   */\n      tag_261\n        /* \"#utility.yul\":10047:10051   */\n      dup2\n        /* \"#utility.yul\":9921:10052   */\n      tag_152\n      jump\t// in\n    tag_261:\n        /* \"#utility.yul\":9913:10052   */\n      swap1\n      pop\n        /* \"#utility.yul\":9640:10059   */\n      swap2\n      swap1\n      pop\n      jump\t// out\n        /* \"#utility.yul\":10065:10296   */\n    tag_153:\n        /* \"#utility.yul\":10205:10239   */\n      0x45524332303a20617070726f766520616d6f756e74206d757374206265206772\n        /* \"#utility.yul\":10201:10202   */\n      0x00\n        /* \"#utility.yul\":10193:10199   */\n      dup3\n        /* \"#utility.yul\":10189:10203   */\n      add\n        /* \"#utility.yul\":10182:10240   */\n      mstore\n        /* \"#utility.yul\":10274:10288   */\n      0x6561746572207468616e20300000000000000000000000000000000000000000\n        /* \"#utility.yul\":10269:10271   */\n      0x20\n        /* \"#utility.yul\":10261:10267   */\n      dup3\n        /* \"#utility.yul\":10257:10272   */\n      add\n        /* \"#utility.yul\":10250:10289   */\n      mstore\n        /* \"#utility.yul\":10065:10296   */\n      pop\n      jump\t// out\n        /* \"#utility.yul\":10302:10668   */\n    tag_154:\n        /* \"#utility.yul\":10444:10447   */\n      0x00\n        /* \"#utility.yul\":10465:10532   */\n      tag_264\n        /* \"#utility.yul\":10529:10531   */\n      0x2c\n        /* \"#utility.yul\":10524:10527   */\n      dup4\n        /* \"#utility.yul\":10465:10532   */\n      tag_127\n      jump\t// in\n    tag_264:\n        /* \"#utility.yul\":10458:10532   */\n      swap2\n      pop\n        /* \"#utility.yul\":10541:10634   */\n      tag_265\n        /* \"#utility.yul\":10630:10633   */\n      dup3\n        /* \"#utility.yul\":10541:10634   */\n      tag_153\n      jump\t// in\n    tag_265:\n        /* \"#utility.yul\":10659:10661   */\n      0x40\n        /* \"#utility.yul\":10654:10657   */\n      dup3\n        /* \"#utility.yul\":10650:10662   */\n      add\n        /* \"#utility.yul\":10643:10662   */\n      swap1\n      pop\n        /* \"#utility.yul\":10302:10668   */\n      swap2\n      swap1\n      pop\n      jump\t// out\n        /* \"#utility.yul\":10674:11093   */\n    tag_97:\n        /* \"#utility.yul\":10840:10844   */\n      0x00\n        /* \"#utility.yul\":10878:10880   */\n      0x20\n        /* \"#utility.yul\":10867:10876   */\n      dup3\n        /* \"#utility.yul\":10863:10881   */\n      add\n        /* \"#utility.yul\":10855:10881   */\n      swap1\n      pop\n        /* \"#utility.yul\":10927:10936   */\n      dup2\n        /* \"#utility.yul\":10921:10925   */\n      dup2\n        /* \"#utility.yul\":10917:10937   */\n      sub\n        /* \"#utility.yul\":10913:10914   */\n      0x00\n        /* \"#utility.yul\":10902:10911   */\n      dup4\n        /* \"#utility.yul\":10898:10915   */\n      add\n        /* \"#utility.yul\":10891:10938   */\n      mstore\n        /* \"#utility.yul\":10955:11086   */\n      tag_267\n        /* \"#utility.yul\":11081:11085   */\n      dup2\n        /* \"#utility.yul\":10955:11086   */\n      tag_154\n      jump\t// in\n    tag_267:\n        /* \"#utility.yul\":10947:11086   */\n      swap1\n      pop\n        /* \"#utility.yul\":10674:11093   */\n      swap2\n      swap1\n      pop\n      jump\t// out\n        /* \"#utility.yul\":11099:11323   */\n    tag_155:\n        /* \"#utility.yul\":11239:11273   */\n      0x45524332303a207472616e736665722066726f6d20746865207a65726f206164\n        /* \"#utility.yul\":11235:11236   */\n      0x00\n        /* \"#utility.yul\":11227:11233   */\n      dup3\n        /* \"#utility.yul\":11223:11237   */\n      add\n        /* \"#utility.yul\":11216:11274   */\n      mstore\n        /* \"#utility.yul\":11308:11315   */\n      0x6472657373000000000000000000000000000000000000000000000000000000\n        /* \"#utility.yul\":11303:11305   */\n      0x20\n        /* \"#utility.yul\":11295:11301   */\n      dup3\n        /* \"#utility.yul\":11291:11306   */\n      add\n        /* \"#utility.yul\":11284:11316   */\n      mstore\n        /* \"#utility.yul\":11099:11323   */\n      pop\n      jump\t// out\n        /* \"#utility.yul\":11329:11695   */\n    tag_156:\n        /* \"#utility.yul\":11471:11474   */\n      0x00\n        /* \"#utility.yul\":11492:11559   */\n      tag_270\n        /* \"#utility.yul\":11556:11558   */\n      0x25\n        /* \"#utility.yul\":11551:11554   */\n      dup4\n        /* \"#utility.yul\":11492:11559   */\n      tag_127\n      jump\t// in\n    tag_270:\n        /* \"#utility.yul\":11485:11559   */\n      swap2\n      pop\n        /* \"#utility.yul\":11568:11661   */\n      tag_271\n        /* \"#utility.yul\":11657:11660   */\n      dup3\n        /* \"#utility.yul\":11568:11661   */\n      tag_155\n      jump\t// in\n    tag_271:\n        /* \"#utility.yul\":11686:11688   */\n      0x40\n        /* \"#utility.yul\":11681:11684   */\n      dup3\n        /* \"#utility.yul\":11677:11689   */\n      add\n        /* \"#utility.yul\":11670:11689   */\n      swap1\n      pop\n        /* \"#utility.yul\":11329:11695   */\n      swap2\n      swap1\n      pop\n      jump\t// out\n        /* \"#utility.yul\":11701:12120   */\n    tag_102:\n        /* \"#utility.yul\":11867:11871   */\n      0x00\n        /* \"#utility.yul\":11905:11907   */\n      0x20\n        /* \"#utility.yul\":11894:11903   */\n      dup3\n        /* \"#utility.yul\":11890:11908   */\n      add\n        /* \"#utility.yul\":11882:11908   */\n      swap1\n      pop\n        /* \"#utility.yul\":11954:11963   */\n      dup2\n        /* \"#utility.yul\":11948:11952   */\n      dup2\n        /* \"#utility.yul\":11944:11964   */\n      sub\n        /* \"#utility.yul\":11940:11941   */\n      0x00\n        /* \"#utility.yul\":11929:11938   */\n      dup4\n        /* \"#utility.yul\":11925:11942   */\n      add\n        /* \"#utility.yul\":11918:11965   */\n      mstore\n        /* \"#utility.yul\":11982:12113   */\n      tag_273\n        /* \"#utility.yul\":12108:12112   */\n      dup2\n        /* \"#utility.yul\":11982:12113   */\n      tag_156\n      jump\t// in\n    tag_273:\n        /* \"#utility.yul\":11974:12113   */\n      swap1\n      pop\n        /* \"#utility.yul\":11701:12120   */\n      swap2\n      swap1\n      pop\n      jump\t// out\n        /* \"#utility.yul\":12126:12348   */\n    tag_157:\n        /* \"#utility.yul\":12266:12300   */\n      0x45524332303a207472616e7366657220746f20746865207a65726f2061646472\n        /* \"#utility.yul\":12262:12263   */\n      0x00\n        /* \"#utility.yul\":12254:12260   */\n      dup3\n        /* \"#utility.yul\":12250:12264   */\n      add\n        /* \"#utility.yul\":12243:12301   */\n      mstore\n        /* \"#utility.yul\":12335:12340   */\n      0x6573730000000000000000000000000000000000000000000000000000000000\n        /* \"#utility.yul\":12330:12332   */\n      0x20\n        /* \"#utility.yul\":12322:12328   */\n      dup3\n        /* \"#utility.yul\":12318:12333   */\n      add\n        /* \"#utility.yul\":12311:12341   */\n      mstore\n        /* \"#utility.yul\":12126:12348   */\n      pop\n      jump\t// out\n        /* \"#utility.yul\":12354:12720   */\n    tag_158:\n        /* \"#utility.yul\":12496:12499   */\n      0x00\n        /* \"#utility.yul\":12517:12584   */\n      tag_276\n        /* \"#utility.yul\":12581:12583   */\n      0x23\n        /* \"#utility.yul\":12576:12579   */\n      dup4\n        /* \"#utility.yul\":12517:12584   */\n      tag_127\n      jump\t// in\n    tag_276:\n        /* \"#utility.yul\":12510:12584   */\n      swap2\n      pop\n        /* \"#utility.yul\":12593:12686   */\n      tag_277\n        /* \"#utility.yul\":12682:12685   */\n      dup3\n        /* \"#utility.yul\":12593:12686   */\n      tag_157\n      jump\t// in\n    tag_277:\n        /* \"#utility.yul\":12711:12713   */\n      0x40\n        /* \"#utility.yul\":12706:12709   */\n      dup3\n        /* \"#utility.yul\":12702:12714   */\n      add\n        /* \"#utility.yul\":12695:12714   */\n      swap1\n      pop\n        /* \"#utility.yul\":12354:12720   */\n      swap2\n      swap1\n      pop\n      jump\t// out\n        /* \"#utility.yul\":12726:13145   */\n    tag_105:\n        /* \"#utility.yul\":12892:12896   */\n      0x00\n        /* \"#utility.yul\":12930:12932   */\n      0x20\n        /* \"#utility.yul\":12919:12928   */\n      dup3\n        /* \"#utility.yul\":12915:12933   */\n      add\n        /* \"#utility.yul\":12907:12933   */\n      swap1\n      pop\n        /* \"#utility.yul\":12979:12988   */\n      dup2\n        /* \"#utility.yul\":12973:12977   */\n      dup2\n        /* \"#utility.yul\":12969:12989   */\n      sub\n        /* \"#utility.yul\":12965:12966   */\n      0x00\n        /* \"#utility.yul\":12954:12963   */\n      dup4\n        /* \"#utility.yul\":12950:12967   */\n      add\n        /* \"#utility.yul\":12943:12990   */\n      mstore\n        /* \"#utility.yul\":13007:13138   */\n      tag_279\n        /* \"#utility.yul\":13133:13137   */\n      dup2\n        /* \"#utility.yul\":13007:13138   */\n      tag_158\n      jump\t// in\n    tag_279:\n        /* \"#utility.yul\":12999:13138   */\n      swap1\n      pop\n        /* \"#utility.yul\":12726:13145   */\n      swap2\n      swap1\n      pop\n      jump\t// out\n        /* \"#utility.yul\":13151:13383   */\n    tag_159:\n        /* \"#utility.yul\":13291:13325   */\n      0x45524332303a207472616e7366657220616d6f756e74206d7573742062652067\n        /* \"#utility.yul\":13287:13288   */\n      0x00\n        /* \"#utility.yul\":13279:13285   */\n      dup3\n        /* \"#utility.yul\":13275:13289   */\n      add\n        /* \"#utility.yul\":13268:13326   */\n      mstore\n        /* \"#utility.yul\":13360:13375   */\n      0x726561746572207468616e203000000000000000000000000000000000000000\n        /* \"#utility.yul\":13355:13357   */\n      0x20\n        /* \"#utility.yul\":13347:13353   */\n      dup3\n        /* \"#utility.yul\":13343:13358   */\n      add\n        /* \"#utility.yul\":13336:13376   */\n      mstore\n        /* \"#utility.yul\":13151:13383   */\n      pop\n      jump\t// out\n        /* \"#utility.yul\":13389:13755   */\n    tag_160:\n        /* \"#utility.yul\":13531:13534   */\n      0x00\n        /* \"#utility.yul\":13552:13619   */\n      tag_282\n        /* \"#utility.yul\":13616:13618   */\n      0x2d\n        /* \"#utility.yul\":13611:13614   */\n      dup4\n        /* \"#utility.yul\":13552:13619   */\n      tag_127\n      jump\t// in\n    tag_282:\n        /* \"#utility.yul\":13545:13619   */\n      swap2\n      pop\n        /* \"#utility.yul\":13628:13721   */\n      tag_283\n        /* \"#utility.yul\":13717:13720   */\n      dup3\n        /* \"#utility.yul\":13628:13721   */\n      tag_159\n      jump\t// in\n    tag_283:\n        /* \"#utility.yul\":13746:13748   */\n      0x40\n        /* \"#utility.yul\":13741:13744   */\n      dup3\n        /* \"#utility.yul\":13737:13749   */\n      add\n        /* \"#utility.yul\":13730:13749   */\n      swap1\n      pop\n        /* \"#utility.yul\":13389:13755   */\n      swap2\n      swap1\n      pop\n      jump\t// out\n        /* \"#utility.yul\":13761:14180   */\n    tag_108:\n        /* \"#utility.yul\":13927:13931   */\n      0x00\n        /* \"#utility.yul\":13965:13967   */\n      0x20\n        /* \"#utility.yul\":13954:13963   */\n      dup3\n        /* \"#utility.yul\":13950:13968   */\n      add\n        /* \"#utility.yul\":13942:13968   */\n      swap1\n      pop\n        /* \"#utility.yul\":14014:14023   */\n      dup2\n        /* \"#utility.yul\":14008:14012   */\n      dup2\n        /* \"#utility.yul\":14004:14024   */\n      sub\n        /* \"#utility.yul\":14000:14001   */\n      0x00\n        /* \"#utility.yul\":13989:13998   */\n      dup4\n        /* \"#utility.yul\":13985:14002   */\n      add\n        /* \"#utility.yul\":13978:14025   */\n      mstore\n        /* \"#utility.yul\":14042:14173   */\n      tag_285\n        /* \"#utility.yul\":14168:14172   */\n      dup2\n        /* \"#utility.yul\":14042:14173   */\n      tag_160\n      jump\t// in\n    tag_285:\n        /* \"#utility.yul\":14034:14173   */\n      swap1\n      pop\n        /* \"#utility.yul\":13761:14180   */\n      swap2\n      swap1\n      pop\n      jump\t// out\n        /* \"#utility.yul\":14186:14411   */\n    tag_161:\n        /* \"#utility.yul\":14326:14360   */\n      0x45524332303a207472616e7366657220616d6f756e7420657863656564732062\n        /* \"#utility.yul\":14322:14323   */\n      0x00\n        /* \"#utility.yul\":14314:14320   */\n      dup3\n        /* \"#utility.yul\":14310:14324   */\n      add\n        /* \"#utility.yul\":14303:14361   */\n      mstore\n        /* \"#utility.yul\":14395:14403   */\n      0x616c616e63650000000000000000000000000000000000000000000000000000\n        /* \"#utility.yul\":14390:14392   */\n      0x20\n        /* \"#utility.yul\":14382:14388   */\n      dup3\n        /* \"#utility.yul\":14378:14393   */\n      add\n        /* \"#utility.yul\":14371:14404   */\n      mstore\n        /* \"#utility.yul\":14186:14411   */\n      pop\n      jump\t// out\n        /* \"#utility.yul\":14417:14783   */\n    tag_162:\n        /* \"#utility.yul\":14559:14562   */\n      0x00\n        /* \"#utility.yul\":14580:14647   */\n      tag_288\n        /* \"#utility.yul\":14644:14646   */\n      0x26\n        /* \"#utility.yul\":14639:14642   */\n      dup4\n        /* \"#utility.yul\":14580:14647   */\n      tag_127\n      jump\t// in\n    tag_288:\n        /* \"#utility.yul\":14573:14647   */\n      swap2\n      pop\n        /* \"#utility.yul\":14656:14749   */\n      tag_289\n        /* \"#utility.yul\":14745:14748   */\n      dup3\n        /* \"#utility.yul\":14656:14749   */\n      tag_161\n      jump\t// in\n    tag_289:\n        /* \"#utility.yul\":14774:14776   */\n      0x40\n        /* \"#utility.yul\":14769:14772   */\n      dup3\n        /* \"#utility.yul\":14765:14777   */\n      add\n        /* \"#utility.yul\":14758:14777   */\n      swap1\n      pop\n        /* \"#utility.yul\":14417:14783   */\n      swap2\n      swap1\n      pop\n      jump\t// out\n        /* \"#utility.yul\":14789:15208   */\n    tag_111:\n        /* \"#utility.yul\":14955:14959   */\n      0x00\n        /* \"#utility.yul\":14993:14995   */\n      0x20\n        /* \"#utility.yul\":14982:14991   */\n      dup3\n        /* \"#utility.yul\":14978:14996   */\n      add\n        /* \"#utility.yul\":14970:14996   */\n      swap1\n      pop\n        /* \"#utility.yul\":15042:15051   */\n      dup2\n        /* \"#utility.yul\":15036:15040   */\n      dup2\n        /* \"#utility.yul\":15032:15052   */\n      sub\n        /* \"#utility.yul\":15028:15029   */\n      0x00\n        /* \"#utility.yul\":15017:15026   */\n      dup4\n        /* \"#utility.yul\":15013:15030   */\n      add\n        /* \"#utility.yul\":15006:15053   */\n      mstore\n        /* \"#utility.yul\":15070:15201   */\n      tag_291\n        /* \"#utility.yul\":15196:15200   */\n      dup2\n        /* \"#utility.yul\":15070:15201   */\n      tag_162\n      jump\t// in\n    tag_291:\n        /* \"#utility.yul\":15062:15201   */\n      swap1\n      pop\n        /* \"#utility.yul\":14789:15208   */\n      swap2\n      swap1\n      pop\n      jump\t// out\n        /* \"#utility.yul\":15214:15405   */\n    tag_114:\n        /* \"#utility.yul\":15254:15257   */\n      0x00\n        /* \"#utility.yul\":15273:15293   */\n      tag_293\n        /* \"#utility.yul\":15291:15292   */\n      dup3\n        /* \"#utility.yul\":15273:15293   */\n      tag_138\n      jump\t// in\n    tag_293:\n        /* \"#utility.yul\":15268:15293   */\n      swap2\n      pop\n        /* \"#utility.yul\":15307:15327   */\n      tag_294\n        /* \"#utility.yul\":15325:15326   */\n      dup4\n        /* \"#utility.yul\":15307:15327   */\n      tag_138\n      jump\t// in\n    tag_294:\n        /* \"#utility.yul\":15302:15327   */\n      swap3\n      pop\n        /* \"#utility.yul\":15350:15351   */\n      dup3\n        /* \"#utility.yul\":15347:15348   */\n      dup3\n        /* \"#utility.yul\":15343:15352   */\n      add\n        /* \"#utility.yul\":15336:15352   */\n      swap1\n      pop\n        /* \"#utility.yul\":15371:15374   */\n      dup1\n        /* \"#utility.yul\":15368:15369   */\n      dup3\n        /* \"#utility.yul\":15365:15375   */\n      gt\n        /* \"#utility.yul\":15362:15398   */\n      iszero\n      tag_295\n      jumpi\n        /* \"#utility.yul\":15378:15396   */\n      tag_296\n      tag_146\n      jump\t// in\n    tag_296:\n        /* \"#utility.yul\":15362:15398   */\n    tag_295:\n        /* \"#utility.yul\":15214:15405   */\n      swap3\n      swap2\n      pop\n      pop\n      jump\t// out\n        /* \"#utility.yul\":15411:15631   */\n    tag_163:\n        /* \"#utility.yul\":15551:15585   */\n      0x45524332303a206275726e2066726f6d20746865207a65726f20616464726573\n        /* \"#utility.yul\":15547:15548   */\n      0x00\n        /* \"#utility.yul\":15539:15545   */\n      dup3\n        /* \"#utility.yul\":15535:15549   */\n      add\n        /* \"#utility.yul\":15528:15586   */\n      mstore\n        /* \"#utility.yul\":15620:15623   */\n      0x7300000000000000000000000000000000000000000000000000000000000000\n        /* \"#utility.yul\":15615:15617   */\n      0x20\n        /* \"#utility.yul\":15607:15613   */\n      dup3\n        /* \"#utility.yul\":15603:15618   */\n      add\n        /* \"#utility.yul\":15596:15624   */\n      mstore\n        /* \"#utility.yul\":15411:15631   */\n      pop\n      jump\t// out\n        /* \"#utility.yul\":15637:16003   */\n    tag_164:\n        /* \"#utility.yul\":15779:15782   */\n      0x00\n        /* \"#utility.yul\":15800:15867   */\n      tag_299\n        /* \"#utility.yul\":15864:15866   */\n      0x21\n        /* \"#utility.yul\":15859:15862   */\n      dup4\n        /* \"#utility.yul\":15800:15867   */\n      tag_127\n      jump\t// in\n    tag_299:\n        /* \"#utility.yul\":15793:15867   */\n      swap2\n      pop\n        /* \"#utility.yul\":15876:15969   */\n      tag_300\n        /* \"#utility.yul\":15965:15968   */\n      dup3\n        /* \"#utility.yul\":15876:15969   */\n      tag_163\n      jump\t// in\n    tag_300:\n        /* \"#utility.yul\":15994:15996   */\n      0x40\n        /* \"#utility.yul\":15989:15992   */\n      dup3\n        /* \"#utility.yul\":15985:15997   */\n      add\n        /* \"#utility.yul\":15978:15997   */\n      swap1\n      pop\n        /* \"#utility.yul\":15637:16003   */\n      swap2\n      swap1\n      pop\n      jump\t// out\n        /* \"#utility.yul\":16009:16428   */\n    tag_119:\n        /* \"#utility.yul\":16175:16179   */\n      0x00\n        /* \"#utility.yul\":16213:16215   */\n      0x20\n        /* \"#utility.yul\":16202:16211   */\n      dup3\n        /* \"#utility.yul\":16198:16216   */\n      add\n        /* \"#utility.yul\":16190:16216   */\n      swap1\n      pop\n        /* \"#utility.yul\":16262:16271   */\n      dup2\n        /* \"#utility.yul\":16256:16260   */\n      dup2\n        /* \"#utility.yul\":16252:16272   */\n      sub\n        /* \"#utility.yul\":16248:16249   */\n      0x00\n        /* \"#utility.yul\":16237:16246   */\n      dup4\n        /* \"#utility.yul\":16233:16250   */\n      add\n        /* \"#utility.yul\":16226:16273   */\n      mstore\n        /* \"#utility.yul\":16290:16421   */\n      tag_302\n        /* \"#utility.yul\":16416:16420   */\n      dup2\n        /* \"#utility.yul\":16290:16421   */\n      tag_164\n      jump\t// in\n    tag_302:\n        /* \"#utility.yul\":16282:16421   */\n      swap1\n      pop\n        /* \"#utility.yul\":16009:16428   */\n      swap2\n      swap1\n      pop\n      jump\t// out\n        /* \"#utility.yul\":16434:16655   */\n    tag_165:\n        /* \"#utility.yul\":16574:16608   */\n      0x45524332303a206275726e20616d6f756e7420657863656564732062616c616e\n        /* \"#utility.yul\":16570:16571   */\n      0x00\n        /* \"#utility.yul\":16562:16568   */\n      dup3\n        /* \"#utility.yul\":16558:16572   */\n      add\n        /* \"#utility.yul\":16551:16609   */\n      mstore\n        /* \"#utility.yul\":16643:16647   */\n      0x6365000000000000000000000000000000000000000000000000000000000000\n        /* \"#utility.yul\":16638:16640   */\n      0x20\n        /* \"#utility.yul\":16630:16636   */\n      dup3\n        /* \"#utility.yul\":16626:16641   */\n      add\n        /* \"#utility.yul\":16619:16648   */\n      mstore\n        /* \"#utility.yul\":16434:16655   */\n      pop\n      jump\t// out\n        /* \"#utility.yul\":16661:17027   */\n    tag_166:\n        /* \"#utility.yul\":16803:16806   */\n      0x00\n        /* \"#utility.yul\":16824:16891   */\n      tag_305\n        /* \"#utility.yul\":16888:16890   */\n      0x22\n        /* \"#utility.yul\":16883:16886   */\n      dup4\n        /* \"#utility.yul\":16824:16891   */\n      tag_127\n      jump\t// in\n    tag_305:\n        /* \"#utility.yul\":16817:16891   */\n      swap2\n      pop\n        /* \"#utility.yul\":16900:16993   */\n      tag_306\n        /* \"#utility.yul\":16989:16992   */\n      dup3\n        /* \"#utility.yul\":16900:16993   */\n      tag_165\n      jump\t// in\n    tag_306:\n        /* \"#utility.yul\":17018:17020   */\n      0x40\n        /* \"#utility.yul\":17013:17016   */\n      dup3\n        /* \"#utility.yul\":17009:17021   */\n      add\n        /* \"#utility.yul\":17002:17021   */\n      swap1\n      pop\n        /* \"#utility.yul\":16661:17027   */\n      swap2\n      swap1\n      pop\n      jump\t// out\n        /* \"#utility.yul\":17033:17452   */\n    tag_122:\n        /* \"#utility.yul\":17199:17203   */\n      0x00\n        /* \"#utility.yul\":17237:17239   */\n      0x20\n        /* \"#utility.yul\":17226:17235   */\n      dup3\n        /* \"#utility.yul\":17222:17240   */\n      add\n        /* \"#utility.yul\":17214:17240   */\n      swap1\n      pop\n        /* \"#utility.yul\":17286:17295   */\n      dup2\n        /* \"#utility.yul\":17280:17284   */\n      dup2\n        /* \"#utility.yul\":17276:17296   */\n      sub\n        /* \"#utility.yul\":17272:17273   */\n      0x00\n        /* \"#utility.yul\":17261:17270   */\n      dup4\n        /* \"#utility.yul\":17257:17274   */\n      add\n        /* \"#utility.yul\":17250:17297   */\n      mstore\n        /* \"#utility.yul\":17314:17445   */\n      tag_308\n        /* \"#utility.yul\":17440:17444   */\n      dup2\n        /* \"#utility.yul\":17314:17445   */\n      tag_166\n      jump\t// in\n    tag_308:\n        /* \"#utility.yul\":17306:17445   */\n      swap1\n      pop\n        /* \"#utility.yul\":17033:17452   */\n      swap2\n      swap1\n      pop\n      jump\t// out\n\n    auxdata: 0xa2646970667358221220d8d3760597b10d420d9bade32eaacea0f6157de40e1db6a5be4b8c4d2240d11264736f6c63430008140033\n}\n",
				"bytecode": {
					"linkReferences": {},
					"object": "608060405234801562000010575f80fd5b5060405162001a1b38038062001a1b83398181016040528101906200003691906200021a565b6200004833826200004f60201b60201c565b50620003ef565b5f73ffffffffffffffffffffffffffffffffffffffff168273ffffffffffffffffffffffffffffffffffffffff1603620000c0576040517f08c379a0000000000000000000000000000000000000000000000000000000008152600401620000b790620002a8565b60405180910390fd5b5f811162000105576040517f08c379a0000000000000000000000000000000000000000000000000000000008152600401620000fc906200033c565b60405180910390fd5b805f8082825462000117919062000389565b925050819055508060015f8473ffffffffffffffffffffffffffffffffffffffff1673ffffffffffffffffffffffffffffffffffffffff1681526020019081526020015f205f8282546200016c919062000389565b925050819055508173ffffffffffffffffffffffffffffffffffffffff165f73ffffffffffffffffffffffffffffffffffffffff167fddf252ad1be2c89b69c2b068fc378daa952ba7f163c4a11628f55a4df523b3ef83604051620001d29190620003d4565b60405180910390a35050565b5f80fd5b5f819050919050565b620001f681620001e2565b811462000201575f80fd5b50565b5f815190506200021481620001eb565b92915050565b5f60208284031215620002325762000231620001de565b5b5f620002418482850162000204565b91505092915050565b5f82825260208201905092915050565b7f45524332303a206d696e7420746f20746865207a65726f2061646472657373005f82015250565b5f62000290601f836200024a565b91506200029d826200025a565b602082019050919050565b5f6020820190508181035f830152620002c18162000282565b9050919050565b7f45524332303a206d696e7420616d6f756e74206d7573742062652067726561745f8201527f6572207468616e20300000000000000000000000000000000000000000000000602082015250565b5f620003246029836200024a565b91506200033182620002c8565b604082019050919050565b5f6020820190508181035f830152620003558162000316565b9050919050565b7f4e487b71000000000000000000000000000000000000000000000000000000005f52601160045260245ffd5b5f6200039582620001e2565b9150620003a283620001e2565b9250828201905080821115620003bd57620003bc6200035c565b5b92915050565b620003ce81620001e2565b82525050565b5f602082019050620003e95f830184620003c3565b92915050565b61161e80620003fd5f395ff3fe608060405234801561000f575f80fd5b50600436106100a7575f3560e01c806342966c681161006f57806342966c681461016557806370a082311461018157806379cc6790146101b157806395d89b41146101cd578063a9059cbb146101eb578063dd62ed3e1461021b576100a7565b806306fdde03146100ab578063095ea7b3146100c957806318160ddd146100f957806323b872dd14610117578063313ce56714610147575b5f80fd5b6100b361024b565b6040516100c09190610d0d565b60405180910390f35b6100e360048036038101906100de9190610dbe565b610284565b6040516100f09190610e16565b60405180910390f35b61010161029a565b60405161010e9190610e3e565b60405180910390f35b610131600480360381019061012c9190610e57565b6102a2565b60405161013e9190610e16565b60405180910390f35b61014f610402565b60405161015c9190610e3e565b60405180910390f35b61017f600480360381019061017a9190610ea7565b610407565b005b61019b60048036038101906101969190610ed2565b610414565b6040516101a89190610e3e565b60405180910390f35b6101cb60048036038101906101c69190610dbe565b61045a565b005b6101d561053e565b6040516101e29190610d0d565b60405180910390f35b61020560048036038101906102009190610dbe565b610577565b6040516102129190610e16565b60405180910390f35b61023560048036038101906102309190610efd565b61058d565b6040516102429190610e3e565b60405180910390f35b6040518060400160405280600781526020017f4d79546f6b656e0000000000000000000000000000000000000000000000000081525081565b5f61029033848461060f565b6001905092915050565b5f8054905090565b5f8160025f8673ffffffffffffffffffffffffffffffffffffffff1673ffffffffffffffffffffffffffffffffffffffff1681526020019081526020015f205f3373ffffffffffffffffffffffffffffffffffffffff1673ffffffffffffffffffffffffffffffffffffffff1681526020019081526020015f2054101561035e576040517f08c379a000000000000000000000000000000000000000000000000000000000815260040161035590610fab565b60405180910390fd5b6103ec84338460025f8973ffffffffffffffffffffffffffffffffffffffff1673ffffffffffffffffffffffffffffffffffffffff1681526020019081526020015f205f3373ffffffffffffffffffffffffffffffffffffffff1673ffffffffffffffffffffffffffffffffffffffff1681526020019081526020015f20546103e79190610ff6565b61060f565b6103f7848484610814565b600190509392505050565b601281565b6104113382610ac2565b50565b5f60015f8373ffffffffffffffffffffffffffffffffffffffff1673ffffffffffffffffffffffffffffffffffffffff1681526020019081526020015f20549050919050565b5f8160025f8573ffffffffffffffffffffffffffffffffffffffff1673ffffffffffffffffffffffffffffffffffffffff1681526020019081526020015f205f3373ffffffffffffffffffffffffffffffffffffffff1673ffffffffffffffffffffffffffffffffffffffff1681526020019081526020015f20546104df9190610ff6565b90505f811015610524576040517f08c379a000000000000000000000000000000000000000000000000000000000815260040161051b90611099565b60405180910390fd5b61052f83338361060f565b6105398383610ac2565b505050565b6040518060400160405280600381526020017f4d544b000000000000000000000000000000000000000000000000000000000081525081565b5f610583338484610814565b6001905092915050565b5f60025f8473ffffffffffffffffffffffffffffffffffffffff1673ffffffffffffffffffffffffffffffffffffffff1681526020019081526020015f205f8373ffffffffffffffffffffffffffffffffffffffff1673ffffffffffffffffffffffffffffffffffffffff1681526020019081526020015f2054905092915050565b5f73ffffffffffffffffffffffffffffffffffffffff168373ffffffffffffffffffffffffffffffffffffffff160361067d576040517f08c379a000000000000000000000000000000000000000000000000000000000815260040161067490611127565b60405180910390fd5b5f73ffffffffffffffffffffffffffffffffffffffff168273ffffffffffffffffffffffffffffffffffffffff16036106eb576040517f08c379a00000000000000000000000000000000000000000000000000000000081526004016106e2906111b5565b60405180910390fd5b5f811161072d576040517f08c379a000000000000000000000000000000000000000000000000000000000815260040161072490611243565b60405180910390fd5b8060025f8573ffffffffffffffffffffffffffffffffffffffff1673ffffffffffffffffffffffffffffffffffffffff1681526020019081526020015f205f8473ffffffffffffffffffffffffffffffffffffffff1673ffffffffffffffffffffffffffffffffffffffff1681526020019081526020015f20819055508173ffffffffffffffffffffffffffffffffffffffff168373ffffffffffffffffffffffffffffffffffffffff167f8c5be1e5ebec7d5bd14f71427d1e84f3dd0314c0f7b2291e5b200ac8c7c3b925836040516108079190610e3e565b60405180910390a3505050565b5f73ffffffffffffffffffffffffffffffffffffffff168373ffffffffffffffffffffffffffffffffffffffff1603610882576040517f08c379a0000000000000000000000000000000000000000000000000000000008152600401610879906112d1565b60405180910390fd5b5f73ffffffffffffffffffffffffffffffffffffffff168273ffffffffffffffffffffffffffffffffffffffff16036108f0576040517f08c379a00000000000000000000000000000000000000000000000000000000081526004016108e79061135f565b60405180910390fd5b5f8111610932576040517f08c379a0000000000000000000000000000000000000000000000000000000008152600401610929906113ed565b60405180910390fd5b8060015f8573ffffffffffffffffffffffffffffffffffffffff1673ffffffffffffffffffffffffffffffffffffffff1681526020019081526020015f205410156109b2576040517f08c379a00000000000000000000000000000000000000000000000000000000081526004016109a99061147b565b60405180910390fd5b8060015f8573ffffffffffffffffffffffffffffffffffffffff1673ffffffffffffffffffffffffffffffffffffffff1681526020019081526020015f205f8282546109fe9190610ff6565b925050819055508060015f8473ffffffffffffffffffffffffffffffffffffffff1673ffffffffffffffffffffffffffffffffffffffff1681526020019081526020015f205f828254610a519190611499565b925050819055508173ffffffffffffffffffffffffffffffffffffffff168373ffffffffffffffffffffffffffffffffffffffff167fddf252ad1be2c89b69c2b068fc378daa952ba7f163c4a11628f55a4df523b3ef83604051610ab59190610e3e565b60405180910390a3505050565b5f73ffffffffffffffffffffffffffffffffffffffff168273ffffffffffffffffffffffffffffffffffffffff1603610b30576040517f08c379a0000000000000000000000000000000000000000000000000000000008152600401610b279061153c565b60405180910390fd5b8060015f8473ffffffffffffffffffffffffffffffffffffffff1673ffffffffffffffffffffffffffffffffffffffff1681526020019081526020015f20541015610bb0576040517f08c379a0000000000000000000000000000000000000000000000000000000008152600401610ba7906115ca565b60405180910390fd5b8060015f8473ffffffffffffffffffffffffffffffffffffffff1673ffffffffffffffffffffffffffffffffffffffff1681526020019081526020015f205f828254610bfc9190610ff6565b92505081905550805f80828254610c139190610ff6565b925050819055505f73ffffffffffffffffffffffffffffffffffffffff168273ffffffffffffffffffffffffffffffffffffffff167fddf252ad1be2c89b69c2b068fc378daa952ba7f163c4a11628f55a4df523b3ef83604051610c779190610e3e565b60405180910390a35050565b5f81519050919050565b5f82825260208201905092915050565b5f5b83811015610cba578082015181840152602081019050610c9f565b5f8484015250505050565b5f601f19601f8301169050919050565b5f610cdf82610c83565b610ce98185610c8d565b9350610cf9818560208601610c9d565b610d0281610cc5565b840191505092915050565b5f6020820190508181035f830152610d258184610cd5565b905092915050565b5f80fd5b5f73ffffffffffffffffffffffffffffffffffffffff82169050919050565b5f610d5a82610d31565b9050919050565b610d6a81610d50565b8114610d74575f80fd5b50565b5f81359050610d8581610d61565b92915050565b5f819050919050565b610d9d81610d8b565b8114610da7575f80fd5b50565b5f81359050610db881610d94565b92915050565b5f8060408385031215610dd457610dd3610d2d565b5b5f610de185828601610d77565b9250506020610df285828601610daa565b9150509250929050565b5f8115159050919050565b610e1081610dfc565b82525050565b5f602082019050610e295f830184610e07565b92915050565b610e3881610d8b565b82525050565b5f602082019050610e515f830184610e2f565b92915050565b5f805f60608486031215610e6e57610e6d610d2d565b5b5f610e7b86828701610d77565b9350506020610e8c86828701610d77565b9250506040610e9d86828701610daa565b9150509250925092565b5f60208284031215610ebc57610ebb610d2d565b5b5f610ec984828501610daa565b91505092915050565b5f60208284031215610ee757610ee6610d2d565b5b5f610ef484828501610d77565b91505092915050565b5f8060408385031215610f1357610f12610d2d565b5b5f610f2085828601610d77565b9250506020610f3185828601610d77565b9150509250929050565b7f45524332303a207472616e7366657220616d6f756e74206578636565647320615f8201527f6c6c6f77616e6365000000000000000000000000000000000000000000000000602082015250565b5f610f95602883610c8d565b9150610fa082610f3b565b604082019050919050565b5f6020820190508181035f830152610fc281610f89565b9050919050565b7f4e487b71000000000000000000000000000000000000000000000000000000005f52601160045260245ffd5b5f61100082610d8b565b915061100b83610d8b565b925082820390508181111561102357611022610fc9565b5b92915050565b7f45524332303a206275726e20616d6f756e74206578636565647320616c6c6f775f8201527f616e636500000000000000000000000000000000000000000000000000000000602082015250565b5f611083602483610c8d565b915061108e82611029565b604082019050919050565b5f6020820190508181035f8301526110b081611077565b9050919050565b7f45524332303a20617070726f76652066726f6d20746865207a65726f206164645f8201527f7265737300000000000000000000000000000000000000000000000000000000602082015250565b5f611111602483610c8d565b915061111c826110b7565b604082019050919050565b5f6020820190508181035f83015261113e81611105565b9050919050565b7f45524332303a20617070726f766520746f20746865207a65726f2061646472655f8201527f7373000000000000000000000000000000000000000000000000000000000000602082015250565b5f61119f602283610c8d565b91506111aa82611145565b604082019050919050565b5f6020820190508181035f8301526111cc81611193565b9050919050565b7f45524332303a20617070726f766520616d6f756e74206d7573742062652067725f8201527f6561746572207468616e20300000000000000000000000000000000000000000602082015250565b5f61122d602c83610c8d565b9150611238826111d3565b604082019050919050565b5f6020820190508181035f83015261125a81611221565b9050919050565b7f45524332303a207472616e736665722066726f6d20746865207a65726f2061645f8201527f6472657373000000000000000000000000000000000000000000000000000000602082015250565b5f6112bb602583610c8d565b91506112c682611261565b604082019050919050565b5f6020820190508181035f8301526112e8816112af565b9050919050565b7f45524332303a207472616e7366657220746f20746865207a65726f20616464725f8201527f6573730000000000000000000000000000000000000000000000000000000000602082015250565b5f611349602383610c8d565b9150611354826112ef565b604082019050919050565b5f6020820190508181035f8301526113768161133d565b9050919050565b7f45524332303a207472616e7366657220616d6f756e74206d75737420626520675f8201527f726561746572207468616e203000000000000000000000000000000000000000602082015250565b5f6113d7602d83610c8d565b91506113e28261137d565b604082019050919050565b5f6020820190508181035f830152611404816113cb565b9050919050565b7f45524332303a207472616e7366657220616d6f756e74206578636565647320625f8201527f616c616e63650000000000000000000000000000000000000000000000000000602082015250565b5f611465602683610c8d565b91506114708261140b565b604082019050919050565b5f6020820190508181035f83015261149281611459565b9050919050565b5f6114a382610d8b565b91506114ae83610d8b565b92508282019050808211156114c6576114c5610fc9565b5b92915050565b7f45524332303a206275726e2066726f6d20746865207a65726f206164647265735f8201527f7300000000000000000000000000000000000000000000000000000000000000602082015250565b5f611526602183610c8d565b9150611531826114cc565b604082019050919050565b5f6020820190508181035f8301526115538161151a565b9050919050565b7f45524332303a206275726e20616d6f756e7420657863656564732062616c616e5f8201527f6365000000000000000000000000000000000000000000000000000000000000602082015250565b5f6115b4602283610c8d565b91506115bf8261155a565b604082019050919050565b5f6020820190508181035f8301526115e1816115a8565b905091905056fea2646970667358221220d8d3760597b10d420d9bade32eaacea0f6157de40e1db6a5be4b8c4d2240d11264736f6c63430008140033",
					"opcodes": "PUSH1 0x80 PUSH1 0x40 MSTORE CALLVALUE DUP1 ISZERO PUSH3 0x10 JUMPI PUSH0 DUP1 REVERT JUMPDEST POP PUSH1 0x40 MLOAD PUSH3 0x1A1B CODESIZE SUB DUP1 PUSH3 0x1A1B DUP4 CODECOPY DUP2 DUP2 ADD PUSH1 0x40 MSTORE DUP2 ADD SWAP1 PUSH3 0x36 SWAP2 SWAP1 PUSH3 0x21A JUMP JUMPDEST PUSH3 0x48 CALLER DUP3 PUSH3 0x4F PUSH1 0x20 SHL PUSH1 0x20 SHR JUMP JUMPDEST POP PUSH3 0x3EF JUMP JUMPDEST PUSH0 PUSH20 0xFFFFFFFFFFFFFFFFFFFFFFFFFFFFFFFFFFFFFFFF AND DUP3 PUSH20 0xFFFFFFFFFFFFFFFFFFFFFFFFFFFFFFFFFFFFFFFF AND SUB PUSH3 0xC0 JUMPI PUSH1 0x40 MLOAD PUSH32 0x8C379A000000000000000000000000000000000000000000000000000000000 DUP2 MSTORE PUSH1 0x4 ADD PUSH3 0xB7 SWAP1 PUSH3 0x2A8 JUMP JUMPDEST PUSH1 0x40 MLOAD DUP1 SWAP2 SUB SWAP1 REVERT JUMPDEST PUSH0 DUP2 GT PUSH3 0x105 JUMPI PUSH1 0x40 MLOAD PUSH32 0x8C379A000000000000000000000000000000000000000000000000000000000 DUP2 MSTORE PUSH1 0x4 ADD PUSH3 0xFC SWAP1 PUSH3 0x33C JUMP JUMPDEST PUSH1 0x40 MLOAD DUP1 SWAP2 SUB SWAP1 REVERT JUMPDEST DUP1 PUSH0 DUP1 DUP3 DUP3 SLOAD PUSH3 0x117 SWAP2 SWAP1 PUSH3 0x389 JUMP JUMPDEST SWAP3 POP POP DUP2 SWAP1 SSTORE POP DUP1 PUSH1 0x1 PUSH0 DUP5 PUSH20 0xFFFFFFFFFFFFFFFFFFFFFFFFFFFFFFFFFFFFFFFF AND PUSH20 0xFFFFFFFFFFFFFFFFFFFFFFFFFFFFFFFFFFFFFFFF AND DUP2 MSTORE PUSH1 0x20 ADD SWAP1 DUP2 MSTORE PUSH1 0x20 ADD PUSH0 KECCAK256 PUSH0 DUP3 DUP3 SLOAD PUSH3 0x16C SWAP2 SWAP1 PUSH3 0x389 JUMP JUMPDEST SWAP3 POP POP DUP2 SWAP1 SSTORE POP DUP2 PUSH20 0xFFFFFFFFFFFFFFFFFFFFFFFFFFFFFFFFFFFFFFFF AND PUSH0 PUSH20 0xFFFFFFFFFFFFFFFFFFFFFFFFFFFFFFFFFFFFFFFF AND PUSH32 0xDDF252AD1BE2C89B69C2B068FC378DAA952BA7F163C4A11628F55A4DF523B3EF DUP4 PUSH1 0x40 MLOAD PUSH3 0x1D2 SWAP2 SWAP1 PUSH3 0x3D4 JUMP JUMPDEST PUSH1 0x40 MLOAD DUP1 SWAP2 SUB SWAP1 LOG3 POP POP JUMP JUMPDEST PUSH0 DUP1 REVERT JUMPDEST PUSH0 DUP2 SWAP1 POP SWAP2 SWAP1 POP JUMP JUMPDEST PUSH3 0x1F6 DUP2 PUSH3 0x1E2 JUMP JUMPDEST DUP2 EQ PUSH3 0x201 JUMPI PUSH0 DUP1 REVERT JUMPDEST POP JUMP JUMPDEST PUSH0 DUP2 MLOAD SWAP1 POP PUSH3 0x214 DUP2 PUSH3 0x1EB JUMP JUMPDEST SWAP3 SWAP2 POP POP JUMP JUMPDEST PUSH0 PUSH1 0x20 DUP3 DUP5 SUB SLT ISZERO PUSH3 0x232 JUMPI PUSH3 0x231 PUSH3 0x1DE JUMP JUMPDEST JUMPDEST PUSH0 PUSH3 0x241 DUP5 DUP3 DUP6 ADD PUSH3 0x204 JUMP JUMPDEST SWAP2 POP POP SWAP3 SWAP2 POP POP JUMP JUMPDEST PUSH0 DUP3 DUP3 MSTORE PUSH1 0x20 DUP3 ADD SWAP1 POP SWAP3 SWAP2 POP POP JUMP JUMPDEST PUSH32 0x45524332303A206D696E7420746F20746865207A65726F206164647265737300 PUSH0 DUP3 ADD MSTORE POP JUMP JUMPDEST PUSH0 PUSH3 0x290 PUSH1 0x1F DUP4 PUSH3 0x24A JUMP JUMPDEST SWAP2 POP PUSH3 0x29D DUP3 PUSH3 0x25A JUMP JUMPDEST PUSH1 0x20 DUP3 ADD SWAP1 POP SWAP2 SWAP1 POP JUMP JUMPDEST PUSH0 PUSH1 0x20 DUP3 ADD SWAP1 POP DUP2 DUP2 SUB PUSH0 DUP4 ADD MSTORE PUSH3 0x2C1 DUP2 PUSH3 0x282 JUMP JUMPDEST SWAP1 POP SWAP2 SWAP1 POP JUMP JUMPDEST PUSH32 0x45524332303A206D696E7420616D6F756E74206D757374206265206772656174 PUSH0 DUP3 ADD MSTORE PUSH32 0x6572207468616E20300000000000000000000000000000000000000000000000 PUSH1 0x20 DUP3 ADD MSTORE POP JUMP JUMPDEST PUSH0 PUSH3 0x324 PUSH1 0x29 DUP4 PUSH3 0x24A JUMP JUMPDEST SWAP2 POP PUSH3 0x331 DUP3 PUSH3 0x2C8 JUMP JUMPDEST PUSH1 0x40 DUP3 ADD SWAP1 POP SWAP2 SWAP1 POP JUMP JUMPDEST PUSH0 PUSH1 0x20 DUP3 ADD SWAP1 POP DUP2 DUP2 SUB PUSH0 DUP4 ADD MSTORE PUSH3 0x355 DUP2 PUSH3 0x316 JUMP JUMPDEST SWAP1 POP SWAP2 SWAP1 POP JUMP JUMPDEST PUSH32 0x4E487B7100000000000000000000000000000000000000000000000000000000 PUSH0 MSTORE PUSH1 0x11 PUSH1 0x4 MSTORE PUSH1 0x24 PUSH0 REVERT JUMPDEST PUSH0 PUSH3 0x395 DUP3 PUSH3 0x1E2 JUMP JUMPDEST SWAP2 POP PUSH3 0x3A2 DUP4 PUSH3 0x1E2 JUMP JUMPDEST SWAP3 POP DUP3 DUP3 ADD SWAP1 POP DUP1 DUP3 GT ISZERO PUSH3 0x3BD JUMPI PUSH3 0x3BC PUSH3 0x35C JUMP JUMPDEST JUMPDEST SWAP3 SWAP2 POP POP JUMP JUMPDEST PUSH3 0x3CE DUP2 PUSH3 0x1E2 JUMP JUMPDEST DUP3 MSTORE POP POP JUMP JUMPDEST PUSH0 PUSH1 0x20 DUP3 ADD SWAP1 POP PUSH3 0x3E9 PUSH0 DUP4 ADD DUP5 PUSH3 0x3C3 JUMP JUMPDEST SWAP3 SWAP2 POP POP JUMP JUMPDEST PUSH2 0x161E DUP1 PUSH3 0x3FD PUSH0 CODECOPY PUSH0 RETURN INVALID PUSH1 0x80 PUSH1 0x40 MSTORE CALLVALUE DUP1 ISZERO PUSH2 0xF JUMPI PUSH0 DUP1 REVERT JUMPDEST POP PUSH1 0x4 CALLDATASIZE LT PUSH2 0xA7 JUMPI PUSH0 CALLDATALOAD PUSH1 0xE0 SHR DUP1 PUSH4 0x42966C68 GT PUSH2 0x6F JUMPI DUP1 PUSH4 0x42966C68 EQ PUSH2 0x165 JUMPI DUP1 PUSH4 0x70A08231 EQ PUSH2 0x181 JUMPI DUP1 PUSH4 0x79CC6790 EQ PUSH2 0x1B1 JUMPI DUP1 PUSH4 0x95D89B41 EQ PUSH2 0x1CD JUMPI DUP1 PUSH4 0xA9059CBB EQ PUSH2 0x1EB JUMPI DUP1 PUSH4 0xDD62ED3E EQ PUSH2 0x21B JUMPI PUSH2 0xA7 JUMP JUMPDEST DUP1 PUSH4 0x6FDDE03 EQ PUSH2 0xAB JUMPI DUP1 PUSH4 0x95EA7B3 EQ PUSH2 0xC9 JUMPI DUP1 PUSH4 0x18160DDD EQ PUSH2 0xF9 JUMPI DUP1 PUSH4 0x23B872DD EQ PUSH2 0x117 JUMPI DUP1 PUSH4 0x313CE567 EQ PUSH2 0x147 JUMPI JUMPDEST PUSH0 DUP1 REVERT JUMPDEST PUSH2 0xB3 PUSH2 0x24B JUMP JUMPDEST PUSH1 0x40 MLOAD PUSH2 0xC0 SWAP2 SWAP1 PUSH2 0xD0D JUMP JUMPDEST PUSH1 0x40 MLOAD DUP1 SWAP2 SUB SWAP1 RETURN JUMPDEST PUSH2 0xE3 PUSH1 0x4 DUP1 CALLDATASIZE SUB DUP2 ADD SWAP1 PUSH2 0xDE SWAP2 SWAP1 PUSH2 0xDBE JUMP JUMPDEST PUSH2 0x284 JUMP JUMPDEST PUSH1 0x40 MLOAD PUSH2 0xF0 SWAP2 SWAP1 PUSH2 0xE16 JUMP JUMPDEST PUSH1 0x40 MLOAD DUP1 SWAP2 SUB SWAP1 RETURN JUMPDEST PUSH2 0x101 PUSH2 0x29A JUMP JUMPDEST PUSH1 0x40 MLOAD PUSH2 0x10E SWAP2 SWAP1 PUSH2 0xE3E JUMP JUMPDEST PUSH1 0x40 MLOAD DUP1 SWAP2 SUB SWAP1 RETURN JUMPDEST PUSH2 0x131 PUSH1 0x4 DUP1 CALLDATASIZE SUB DUP2 ADD SWAP1 PUSH2 0x12C SWAP2 SWAP1 PUSH2 0xE57 JUMP JUMPDEST PUSH2 0x2A2 JUMP JUMPDEST PUSH1 0x40 MLOAD PUSH2 0x13E SWAP2 SWAP1 PUSH2 0xE16 JUMP JUMPDEST PUSH1 0x40 MLOAD DUP1 SWAP2 SUB SWAP1 RETURN JUMPDEST PUSH2 0x14F PUSH2 0x402 JUMP JUMPDEST PUSH1 0x40 MLOAD PUSH2 0x15C SWAP2 SWAP1 PUSH2 0xE3E JUMP JUMPDEST PUSH1 0x40 MLOAD DUP1 SWAP2 SUB SWAP1 RETURN JUMPDEST PUSH2 0x17F PUSH1 0x4 DUP1 CALLDATASIZE SUB DUP2 ADD SWAP1 PUSH2 0x17A SWAP2 SWAP1 PUSH2 0xEA7 JUMP JUMPDEST PUSH2 0x407 JUMP JUMPDEST STOP JUMPDEST PUSH2 0x19B PUSH1 0x4 DUP1 CALLDATASIZE SUB DUP2 ADD SWAP1 PUSH2 0x196 SWAP2 SWAP1 PUSH2 0xED2 JUMP JUMPDEST PUSH2 0x414 JUMP JUMPDEST PUSH1 0x40 MLOAD PUSH2 0x1A8 SWAP2 SWAP1 PUSH2 0xE3E JUMP JUMPDEST PUSH1 0x40 MLOAD DUP1 SWAP2 SUB SWAP1 RETURN JUMPDEST PUSH2 0x1CB PUSH1 0x4 DUP1 CALLDATASIZE SUB DUP2 ADD SWAP1 PUSH2 0x1C6 SWAP2 SWAP1 PUSH2 0xDBE JUMP JUMPDEST PUSH2 0x45A JUMP JUMPDEST STOP JUMPDEST PUSH2 0x1D5 PUSH2 0x53E JUMP JUMPDEST PUSH1 0x40 MLOAD PUSH2 0x1E2 SWAP2 SWAP1 PUSH2 0xD0D JUMP JUMPDEST PUSH1 0x40 MLOAD DUP1 SWAP2 SUB SWAP1 RETURN JUMPDEST PUSH2 0x205 PUSH1 0x4 DUP1 CALLDATASIZE SUB DUP2 ADD SWAP1 PUSH2 0x200 SWAP2 SWAP1 PUSH2 0xDBE JUMP JUMPDEST PUSH2 0x577 JUMP JUMPDEST PUSH1 0x40 MLOAD PUSH2 0x212 SWAP2 SWAP1 PUSH2 0xE16 JUMP JUMPDEST PUSH1 0x40 MLOAD DUP1 SWAP2 SUB SWAP1 RETURN JUMPDEST PUSH2 0x235 PUSH1 0x4 DUP1 CALLDATASIZE SUB DUP2 ADD SWAP1 PUSH2 0x230 SWAP2 SWAP1 PUSH2 0xEFD JUMP JUMPDEST PUSH2 0x58D JUMP JUMPDEST PUSH1 0x40 MLOAD PUSH2 0x242 SWAP2 SWAP1 PUSH2 0xE3E JUMP JUMPDEST PUSH1 0x40 MLOAD DUP1 SWAP2 SUB SWAP1 RETURN JUMPDEST PUSH1 0x40 MLOAD DUP1 PUSH1 0x40 ADD PUSH1 0x40 MSTORE DUP1 PUSH1 0x7 DUP2 MSTORE PUSH1 0x20 ADD PUSH32 0x4D79546F6B656E00000000000000000000000000000000000000000000000000 DUP2 MSTORE POP DUP2 JUMP JUMPDEST PUSH0 PUSH2 0x290 CALLER DUP5 DUP5 PUSH2 0x60F JUMP JUMPDEST PUSH1 0x1 SWAP1 POP SWAP3 SWAP2 POP POP JUMP JUMPDEST PUSH0 DUP1 SLOAD SWAP1 POP SWAP1 JUMP JUMPDEST PUSH0 DUP2 PUSH1 0x2 PUSH0 DUP7 PUSH20 0xFFFFFFFFFFFFFFFFFFFFFFFFFFFFFFFFFFFFFFFF AND PUSH20 0xFFFFFFFFFFFFFFFFFFFFFFFFFFFFFFFFFFFFFFFF AND DUP2 MSTORE PUSH1 0x20 ADD SWAP1 DUP2 MSTORE PUSH1 0x20 ADD PUSH0 KECCAK256 PUSH0 CALLER PUSH20 0xFFFFFFFFFFFFFFFFFFFFFFFFFFFFFFFFFFFFFFFF AND PUSH20 0xFFFFFFFFFFFFFFFFFFFFFFFFFFFFFFFFFFFFFFFF AND DUP2 MSTORE PUSH1 0x20 ADD SWAP1 DUP2 MSTORE PUSH1 0x20 ADD PUSH0 KECCAK256 SLOAD LT ISZERO PUSH2 0x35E JUMPI PUSH1 0x40 MLOAD PUSH32 0x8C379A000000000000000000000000000000000000000000000000000000000 DUP2 MSTORE PUSH1 0x4 ADD PUSH2 0x355 SWAP1 PUSH2 0xFAB JUMP JUMPDEST PUSH1 0x40 MLOAD DUP1 SWAP2 SUB SWAP1 REVERT JUMPDEST PUSH2 0x3EC DUP5 CALLER DUP5 PUSH1 0x2 PUSH0 DUP10 PUSH20 0xFFFFFFFFFFFFFFFFFFFFFFFFFFFFFFFFFFFFFFFF AND PUSH20 0xFFFFFFFFFFFFFFFFFFFFFFFFFFFFFFFFFFFFFFFF AND DUP2 MSTORE PUSH1 0x20 ADD SWAP1 DUP2 MSTORE PUSH1 0x20 ADD PUSH0 KECCAK256 PUSH0 CALLER PUSH20 0xFFFFFFFFFFFFFFFFFFFFFFFFFFFFFFFFFFFFFFFF AND PUSH20 0xFFFFFFFFFFFFFFFFFFFFFFFFFFFFFFFFFFFFFFFF AND DUP2 MSTORE PUSH1 0x20 ADD SWAP1 DUP2 MSTORE PUSH1 0x20 ADD PUSH0 KECCAK256 SLOAD PUSH2 0x3E7 SWAP2 SWAP1 PUSH2 0xFF6 JUMP JUMPDEST PUSH2 0x60F JUMP JUMPDEST PUSH2 0x3F7 DUP5 DUP5 DUP5 PUSH2 0x814 JUMP JUMPDEST PUSH1 0x1 SWAP1 POP SWAP4 SWAP3 POP POP POP JUMP JUMPDEST PUSH1 0x12 DUP2 JUMP JUMPDEST PUSH2 0x411 CALLER DUP3 PUSH2 0xAC2 JUMP JUMPDEST POP JUMP JUMPDEST PUSH0 PUSH1 0x1 PUSH0 DUP4 PUSH20 0xFFFFFFFFFFFFFFFFFFFFFFFFFFFFFFFFFFFFFFFF AND PUSH20 0xFFFFFFFFFFFFFFFFFFFFFFFFFFFFFFFFFFFFFFFF AND DUP2 MSTORE PUSH1 0x20 ADD SWAP1 DUP2 MSTORE PUSH1 0x20 ADD PUSH0 KECCAK256 SLOAD SWAP1 POP SWAP2 SWAP1 POP JUMP JUMPDEST PUSH0 DUP2 PUSH1 0x2 PUSH0 DUP6 PUSH20 0xFFFFFFFFFFFFFFFFFFFFFFFFFFFFFFFFFFFFFFFF AND PUSH20 0xFFFFFFFFFFFFFFFFFFFFFFFFFFFFFFFFFFFFFFFF AND DUP2 MSTORE PUSH1 0x20 ADD SWAP1 DUP2 MSTORE PUSH1 0x20 ADD PUSH0 KECCAK256 PUSH0 CALLER PUSH20 0xFFFFFFFFFFFFFFFFFFFFFFFFFFFFFFFFFFFFFFFF AND PUSH20 0xFFFFFFFFFFFFFFFFFFFFFFFFFFFFFFFFFFFFFFFF AND DUP2 MSTORE PUSH1 0x20 ADD SWAP1 DUP2 MSTORE PUSH1 0x20 ADD PUSH0 KECCAK256 SLOAD PUSH2 0x4DF SWAP2 SWAP1 PUSH2 0xFF6 JUMP JUMPDEST SWAP1 POP PUSH0 DUP2 LT ISZERO PUSH2 0x524 JUMPI PUSH1 0x40 MLOAD PUSH32 0x8C379A000000000000000000000000000000000000000000000000000000000 DUP2 MSTORE PUSH1 0x4 ADD PUSH2 0x51B SWAP1 PUSH2 0x1099 JUMP JUMPDEST PUSH1 0x40 MLOAD DUP1 SWAP2 SUB SWAP1 REVERT JUMPDEST PUSH2 0x52F DUP4 CALLER DUP4 PUSH2 0x60F JUMP JUMPDEST PUSH2 0x539 DUP4 DUP4 PUSH2 0xAC2 JUMP JUMPDEST POP POP POP JUMP JUMPDEST PUSH1 0x40 MLOAD DUP1 PUSH1 0x40 ADD PUSH1 0x40 MSTORE DUP1 PUSH1 0x3 DUP2 MSTORE PUSH1 0x20 ADD PUSH32 0x4D544B0000000000000000000000000000000000000000000000000000000000 DUP2 MSTORE POP DUP2 JUMP JUMPDEST PUSH0 PUSH2 0x583 CALLER DUP5 DUP5 PUSH2 0x814 JUMP JUMPDEST PUSH1 0x1 SWAP1 POP SWAP3 SWAP2 POP POP JUMP JUMPDEST PUSH0 PUSH1 0x2 PUSH0 DUP5 PUSH20 0xFFFFFFFFFFFFFFFFFFFFFFFFFFFFFFFFFFFFFFFF AND PUSH20 0xFFFFFFFFFFFFFFFFFFFFFFFFFFFFFFFFFFFFFFFF AND DUP2 MSTORE PUSH1 0x20 ADD SWAP1 DUP2 MSTORE PUSH1 0x20 ADD PUSH0 KECCAK256 PUSH0 DUP4 PUSH20 0xFFFFFFFFFFFFFFFFFFFFFFFFFFFFFFFFFFFFFFFF AND PUSH20 0xFFFFFFFFFFFFFFFFFFFFFFFFFFFFFFFFFFFFFFFF AND DUP2 MSTORE PUSH1 0x20 ADD SWAP1 DUP2 MSTORE PUSH1 0x20 ADD PUSH0 KECCAK256 SLOAD SWAP1 POP SWAP3 SWAP2 POP POP JUMP JUMPDEST PUSH0 PUSH20 0xFFFFFFFFFFFFFFFFFFFFFFFFFFFFFFFFFFFFFFFF AND DUP4 PUSH20 0xFFFFFFFFFFFFFFFFFFFFFFFFFFFFFFFFFFFFFFFF AND SUB PUSH2 0x67D JUMPI PUSH1 0x40 MLOAD PUSH32 0x8C379A000000000000000000000000000000000000000000000000000000000 DUP2 MSTORE PUSH1 0x4 ADD PUSH2 0x674 SWAP1 PUSH2 0x1127 JUMP JUMPDEST PUSH1 0x40 MLOAD DUP1 SWAP2 SUB SWAP1 REVERT JUMPDEST PUSH0 PUSH20 0xFFFFFFFFFFFFFFFFFFFFFFFFFFFFFFFFFFFFFFFF AND DUP3 PUSH20 0xFFFFFFFFFFFFFFFFFFFFFFFFFFFFFFFFFFFFFFFF AND SUB PUSH2 0x6EB JUMPI PUSH1 0x40 MLOAD PUSH32 0x8C379A000000000000000000000000000000000000000000000000000000000 DUP2 MSTORE PUSH1 0x4 ADD PUSH2 0x6E2 SWAP1 PUSH2 0x11B5 JUMP JUMPDEST PUSH1 0x40 MLOAD DUP1 SWAP2 SUB SWAP1 REVERT JUMPDEST PUSH0 DUP2 GT PUSH2 0x72D JUMPI PUSH1 0x40 MLOAD PUSH32 0x8C379A000000000000000000000000000000000000000000000000000000000 DUP2 MSTORE PUSH1 0x4 ADD PUSH2 0x724 SWAP1 PUSH2 0x1243 JUMP JUMPDEST PUSH1 0x40 MLOAD DUP1 SWAP2 SUB SWAP1 REVERT JUMPDEST DUP1 PUSH1 0x2 PUSH0 DUP6 PUSH20 0xFFFFFFFFFFFFFFFFFFFFFFFFFFFFFFFFFFFFFFFF AND PUSH20 0xFFFFFFFFFFFFFFFFFFFFFFFFFFFFFFFFFFFFFFFF AND DUP2 MSTORE PUSH1 0x20 ADD SWAP1 DUP2 MSTORE PUSH1 0x20 ADD PUSH0 KECCAK256 PUSH0 DUP5 PUSH20 0xFFFFFFFFFFFFFFFFFFFFFFFFFFFFFFFFFFFFFFFF AND PUSH20 0xFFFFFFFFFFFFFFFFFFFFFFFFFFFFFFFFFFFFFFFF AND DUP2 MSTORE PUSH1 0x20 ADD SWAP1 DUP2 MSTORE PUSH1 0x20 ADD PUSH0 KECCAK256 DUP2 SWAP1 SSTORE POP DUP2 PUSH20 0xFFFFFFFFFFFFFFFFFFFFFFFFFFFFFFFFFFFFFFFF AND DUP4 PUSH20 0xFFFFFFFFFFFFFFFFFFFFFFFFFFFFFFFFFFFFFFFF AND PUSH32 0x8C5BE1E5EBEC7D5BD14F71427D1E84F3DD0314C0F7B2291E5B200AC8C7C3B925 DUP4 PUSH1 0x40 MLOAD PUSH2 0x807 SWAP2 SWAP1 PUSH2 0xE3E JUMP JUMPDEST PUSH1 0x40 MLOAD DUP1 SWAP2 SUB SWAP1 LOG3 POP POP POP JUMP JUMPDEST PUSH0 PUSH20 0xFFFFFFFFFFFFFFFFFFFFFFFFFFFFFFFFFFFFFFFF AND DUP4 PUSH20 0xFFFFFFFFFFFFFFFFFFFFFFFFFFFFFFFFFFFFFFFF AND SUB PUSH2 0x882 JUMPI PUSH1 0x40 MLOAD PUSH32 0x8C379A000000000000000000000000000000000000000000000000000000000 DUP2 MSTORE PUSH1 0x4 ADD PUSH2 0x879 SWAP1 PUSH2 0x12D1 JUMP JUMPDEST PUSH1 0x40 MLOAD DUP1 SWAP2 SUB SWAP1 REVERT JUMPDEST PUSH0 PUSH20 0xFFFFFFFFFFFFFFFFFFFFFFFFFFFFFFFFFFFFFFFF AND DUP3 PUSH20 0xFFFFFFFFFFFFFFFFFFFFFFFFFFFFFFFFFFFFFFFF AND SUB PUSH2 0x8F0 JUMPI PUSH1 0x40 MLOAD PUSH32 0x8C379A000000000000000000000000000000000000000000000000000000000 DUP2 MSTORE PUSH1 0x4 ADD PUSH2 0x8E7 SWAP1 PUSH2 0x135F JUMP JUMPDEST PUSH1 0x40 MLOAD DUP1 SWAP2 SUB SWAP1 REVERT JUMPDEST PUSH0 DUP2 GT PUSH2 0x932 JUMPI PUSH1 0x40 MLOAD PUSH32 0x8C379A000000000000000000000000000000000000000000000000000000000 DUP2 MSTORE PUSH1 0x4 ADD PUSH2 0x929 SWAP1 PUSH2 0x13ED JUMP JUMPDEST PUSH1 0x40 MLOAD DUP1 SWAP2 SUB SWAP1 REVERT JUMPDEST DUP1 PUSH1 0x1 PUSH0 DUP6 PUSH20 0xFFFFFFFFFFFFFFFFFFFFFFFFFFFFFFFFFFFFFFFF AND PUSH20 0xFFFFFFFFFFFFFFFFFFFFFFFFFFFFFFFFFFFFFFFF AND DUP2 MSTORE PUSH1 0x20 ADD SWAP1 DUP2 MSTORE PUSH1 0x20 ADD PUSH0 KECCAK256 SLOAD LT ISZERO PUSH2 0x9B2 JUMPI PUSH1 0x40 MLOAD PUSH32 0x8C379A000000000000000000000000000000000000000000000000000000000 DUP2 MSTORE PUSH1 0x4 ADD PUSH2 0x9A9 SWAP1 PUSH2 0x147B JUMP JUMPDEST PUSH1 0x40 MLOAD DUP1 SWAP2 SUB SWAP1 REVERT JUMPDEST DUP1 PUSH1 0x1 PUSH0 DUP6 PUSH20 0xFFFFFFFFFFFFFFFFFFFFFFFFFFFFFFFFFFFFFFFF AND PUSH20 0xFFFFFFFFFFFFFFFFFFFFFFFFFFFFFFFFFFFFFFFF AND DUP2 MSTORE PUSH1 0x20 ADD SWAP1 DUP2 MSTORE PUSH1 0x20 ADD PUSH0 KECCAK256 PUSH0 DUP3 DUP3 SLOAD PUSH2 0x9FE SWAP2 SWAP1 PUSH2 0xFF6 JUMP JUMPDEST SWAP3 POP POP DUP2 SWAP1 SSTORE POP DUP1 PUSH1 0x1 PUSH0 DUP5 PUSH20 0xFFFFFFFFFFFFFFFFFFFFFFFFFFFFFFFFFFFFFFFF AND PUSH20 0xFFFFFFFFFFFFFFFFFFFFFFFFFFFFFFFFFFFFFFFF AND DUP2 MSTORE PUSH1 0x20 ADD SWAP1 DUP2 MSTORE PUSH1 0x20 ADD PUSH0 KECCAK256 PUSH0 DUP3 DUP3 SLOAD PUSH2 0xA51 SWAP2 SWAP1 PUSH2 0x1499 JUMP JUMPDEST SWAP3 POP POP DUP2 SWAP1 SSTORE POP DUP2 PUSH20 0xFFFFFFFFFFFFFFFFFFFFFFFFFFFFFFFFFFFFFFFF AND DUP4 PUSH20 0xFFFFFFFFFFFFFFFFFFFFFFFFFFFFFFFFFFFFFFFF AND PUSH32 0xDDF252AD1BE2C89B69C2B068FC378DAA952BA7F163C4A11628F55A4DF523B3EF DUP4 PUSH1 0x40 MLOAD PUSH2 0xAB5 SWAP2 SWAP1 PUSH2 0xE3E JUMP JUMPDEST PUSH1 0x40 MLOAD DUP1 SWAP2 SUB SWAP1 LOG3 POP POP POP JUMP JUMPDEST PUSH0 PUSH20 0xFFFFFFFFFFFFFFFFFFFFFFFFFFFFFFFFFFFFFFFF AND DUP3 PUSH20 0xFFFFFFFFFFFFFFFFFFFFFFFFFFFFFFFFFFFFFFFF AND SUB PUSH2 0xB30 JUMPI PUSH1 0x40 MLOAD PUSH32 0x8C379A000000000000000000000000000000000000000000000000000000000 DUP2 MSTORE PUSH1 0x4 ADD PUSH2 0xB27 SWAP1 PUSH2 0x153C JUMP JUMPDEST PUSH1 0x40 MLOAD DUP1 SWAP2 SUB SWAP1 REVERT JUMPDEST DUP1 PUSH1 0x1 PUSH0 DUP5 PUSH20 0xFFFFFFFFFFFFFFFFFFFFFFFFFFFFFFFFFFFFFFFF AND PUSH20 0xFFFFFFFFFFFFFFFFFFFFFFFFFFFFFFFFFFFFFFFF AND DUP2 MSTORE PUSH1 0x20 ADD SWAP1 DUP2 MSTORE PUSH1 0x20 ADD PUSH0 KECCAK256 SLOAD LT ISZERO PUSH2 0xBB0 JUMPI PUSH1 0x40 MLOAD PUSH32 0x8C379A000000000000000000000000000000000000000000000000000000000 DUP2 MSTORE PUSH1 0x4 ADD PUSH2 0xBA7 SWAP1 PUSH2 0x15CA JUMP JUMPDEST PUSH1 0x40 MLOAD DUP1 SWAP2 SUB SWAP1 REVERT JUMPDEST DUP1 PUSH1 0x1 PUSH0 DUP5 PUSH20 0xFFFFFFFFFFFFFFFFFFFFFFFFFFFFFFFFFFFFFFFF AND PUSH20 0xFFFFFFFFFFFFFFFFFFFFFFFFFFFFFFFFFFFFFFFF AND DUP2 MSTORE PUSH1 0x20 ADD SWAP1 DUP2 MSTORE PUSH1 0x20 ADD PUSH0 KECCAK256 PUSH0 DUP3 DUP3 SLOAD PUSH2 0xBFC SWAP2 SWAP1 PUSH2 0xFF6 JUMP JUMPDEST SWAP3 POP POP DUP2 SWAP1 SSTORE POP DUP1 PUSH0 DUP1 DUP3 DUP3 SLOAD PUSH2 0xC13 SWAP2 SWAP1 PUSH2 0xFF6 JUMP JUMPDEST SWAP3 POP POP DUP2 SWAP1 SSTORE POP PUSH0 PUSH20 0xFFFFFFFFFFFFFFFFFFFFFFFFFFFFFFFFFFFFFFFF AND DUP3 PUSH20 0xFFFFFFFFFFFFFFFFFFFFFFFFFFFFFFFFFFFFFFFF AND PUSH32 0xDDF252AD1BE2C89B69C2B068FC378DAA952BA7F163C4A11628F55A4DF523B3EF DUP4 PUSH1 0x40 MLOAD PUSH2 0xC77 SWAP2 SWAP1 PUSH2 0xE3E JUMP JUMPDEST PUSH1 0x40 MLOAD DUP1 SWAP2 SUB SWAP1 LOG3 POP POP JUMP JUMPDEST PUSH0 DUP2 MLOAD SWAP1 POP SWAP2 SWAP1 POP JUMP JUMPDEST PUSH0 DUP3 DUP3 MSTORE PUSH1 0x20 DUP3 ADD SWAP1 POP SWAP3 SWAP2 POP POP JUMP JUMPDEST PUSH0 JUMPDEST DUP4 DUP2 LT ISZERO PUSH2 0xCBA JUMPI DUP1 DUP3 ADD MLOAD DUP2 DUP5 ADD MSTORE PUSH1 0x20 DUP2 ADD SWAP1 POP PUSH2 0xC9F JUMP JUMPDEST PUSH0 DUP5 DUP5 ADD MSTORE POP POP POP POP JUMP JUMPDEST PUSH0 PUSH1 0x1F NOT PUSH1 0x1F DUP4 ADD AND SWAP1 POP SWAP2 SWAP1 POP JUMP JUMPDEST PUSH0 PUSH2 0xCDF DUP3 PUSH2 0xC83 JUMP JUMPDEST PUSH2 0xCE9 DUP2 DUP6 PUSH2 0xC8D JUMP JUMPDEST SWAP4 POP PUSH2 0xCF9 DUP2 DUP6 PUSH1 0x20 DUP7 ADD PUSH2 0xC9D JUMP JUMPDEST PUSH2 0xD02 DUP2 PUSH2 0xCC5 JUMP JUMPDEST DUP5 ADD SWAP2 POP POP SWAP3 SWAP2 POP POP JUMP JUMPDEST PUSH0 PUSH1 0x20 DUP3 ADD SWAP1 POP DUP2 DUP2 SUB PUSH0 DUP4 ADD MSTORE PUSH2 0xD25 DUP2 DUP5 PUSH2 0xCD5 JUMP JUMPDEST SWAP1 POP SWAP3 SWAP2 POP POP JUMP JUMPDEST PUSH0 DUP1 REVERT JUMPDEST PUSH0 PUSH20 0xFFFFFFFFFFFFFFFFFFFFFFFFFFFFFFFFFFFFFFFF DUP3 AND SWAP1 POP SWAP2 SWAP1 POP JUMP JUMPDEST PUSH0 PUSH2 0xD5A DUP3 PUSH2 0xD31 JUMP JUMPDEST SWAP1 POP SWAP2 SWAP1 POP JUMP JUMPDEST PUSH2 0xD6A DUP2 PUSH2 0xD50 JUMP JUMPDEST DUP2 EQ PUSH2 0xD74 JUMPI PUSH0 DUP1 REVERT JUMPDEST POP JUMP JUMPDEST PUSH0 DUP2 CALLDATALOAD SWAP1 POP PUSH2 0xD85 DUP2 PUSH2 0xD61 JUMP JUMPDEST SWAP3 SWAP2 POP POP JUMP JUMPDEST PUSH0 DUP2 SWAP1 POP SWAP2 SWAP1 POP JUMP JUMPDEST PUSH2 0xD9D DUP2 PUSH2 0xD8B JUMP JUMPDEST DUP2 EQ PUSH2 0xDA7 JUMPI PUSH0 DUP1 REVERT JUMPDEST POP JUMP JUMPDEST PUSH0 DUP2 CALLDATALOAD SWAP1 POP PUSH2 0xDB8 DUP2 PUSH2 0xD94 JUMP JUMPDEST SWAP3 SWAP2 POP POP JUMP JUMPDEST PUSH0 DUP1 PUSH1 0x40 DUP4 DUP6 SUB SLT ISZERO PUSH2 0xDD4 JUMPI PUSH2 0xDD3 PUSH2 0xD2D JUMP JUMPDEST JUMPDEST PUSH0 PUSH2 0xDE1 DUP6 DUP3 DUP7 ADD PUSH2 0xD77 JUMP JUMPDEST SWAP3 POP POP PUSH1 0x20 PUSH2 0xDF2 DUP6 DUP3 DUP7 ADD PUSH2 0xDAA JUMP JUMPDEST SWAP2 POP POP SWAP3 POP SWAP3 SWAP1 POP JUMP JUMPDEST PUSH0 DUP2 ISZERO ISZERO SWAP1 POP SWAP2 SWAP1 POP JUMP JUMPDEST PUSH2 0xE10 DUP2 PUSH2 0xDFC JUMP JUMPDEST DUP3 MSTORE POP POP JUMP JUMPDEST PUSH0 PUSH1 0x20 DUP3 ADD SWAP1 POP PUSH2 0xE29 PUSH0 DUP4 ADD DUP5 PUSH2 0xE07 JUMP JUMPDEST SWAP3 SWAP2 POP POP JUMP JUMPDEST PUSH2 0xE38 DUP2 PUSH2 0xD8B JUMP JUMPDEST DUP3 MSTORE POP POP JUMP JUMPDEST PUSH0 PUSH1 0x20 DUP3 ADD SWAP1 POP PUSH2 0xE51 PUSH0 DUP4 ADD DUP5 PUSH2 0xE2F JUMP JUMPDEST SWAP3 SWAP2 POP POP JUMP JUMPDEST PUSH0 DUP1 PUSH0 PUSH1 0x60 DUP5 DUP7 SUB SLT ISZERO PUSH2 0xE6E JUMPI PUSH2 0xE6D PUSH2 0xD2D JUMP JUMPDEST JUMPDEST PUSH0 PUSH2 0xE7B DUP7 DUP3 DUP8 ADD PUSH2 0xD77 JUMP JUMPDEST SWAP4 POP POP PUSH1 0x20 PUSH2 0xE8C DUP7 DUP3 DUP8 ADD PUSH2 0xD77 JUMP JUMPDEST SWAP3 POP POP PUSH1 0x40 PUSH2 0xE9D DUP7 DUP3 DUP8 ADD PUSH2 0xDAA JUMP JUMPDEST SWAP2 POP POP SWAP3 POP SWAP3 POP SWAP3 JUMP JUMPDEST PUSH0 PUSH1 0x20 DUP3 DUP5 SUB SLT ISZERO PUSH2 0xEBC JUMPI PUSH2 0xEBB PUSH2 0xD2D JUMP JUMPDEST JUMPDEST PUSH0 PUSH2 0xEC9 DUP5 DUP3 DUP6 ADD PUSH2 0xDAA JUMP JUMPDEST SWAP2 POP POP SWAP3 SWAP2 POP POP JUMP JUMPDEST PUSH0 PUSH1 0x20 DUP3 DUP5 SUB SLT ISZERO PUSH2 0xEE7 JUMPI PUSH2 0xEE6 PUSH2 0xD2D JUMP JUMPDEST JUMPDEST PUSH0 PUSH2 0xEF4 DUP5 DUP3 DUP6 ADD PUSH2 0xD77 JUMP JUMPDEST SWAP2 POP POP SWAP3 SWAP2 POP POP JUMP JUMPDEST PUSH0 DUP1 PUSH1 0x40 DUP4 DUP6 SUB SLT ISZERO PUSH2 0xF13 JUMPI PUSH2 0xF12 PUSH2 0xD2D JUMP JUMPDEST JUMPDEST PUSH0 PUSH2 0xF20 DUP6 DUP3 DUP7 ADD PUSH2 0xD77 JUMP JUMPDEST SWAP3 POP POP PUSH1 0x20 PUSH2 0xF31 DUP6 DUP3 DUP7 ADD PUSH2 0xD77 JUMP JUMPDEST SWAP2 POP POP SWAP3 POP SWAP3 SWAP1 POP JUMP JUMPDEST PUSH32 0x45524332303A207472616E7366657220616D6F756E7420657863656564732061 PUSH0 DUP3 ADD MSTORE PUSH32 0x6C6C6F77616E6365000000000000000000000000000000000000000000000000 PUSH1 0x20 DUP3 ADD MSTORE POP JUMP JUMPDEST PUSH0 PUSH2 0xF95 PUSH1 0x28 DUP4 PUSH2 0xC8D JUMP JUMPDEST SWAP2 POP PUSH2 0xFA0 DUP3 PUSH2 0xF3B JUMP JUMPDEST PUSH1 0x40 DUP3 ADD SWAP1 POP SWAP2 SWAP1 POP JUMP JUMPDEST PUSH0 PUSH1 0x20 DUP3 ADD SWAP1 POP DUP2 DUP2 SUB PUSH0 DUP4 ADD MSTORE PUSH2 0xFC2 DUP2 PUSH2 0xF89 JUMP JUMPDEST SWAP1 POP SWAP2 SWAP1 POP JUMP JUMPDEST PUSH32 0x4E487B7100000000000000000000000000000000000000000000000000000000 PUSH0 MSTORE PUSH1 0x11 PUSH1 0x4 MSTORE PUSH1 0x24 PUSH0 REVERT JUMPDEST PUSH0 PUSH2 0x1000 DUP3 PUSH2 0xD8B JUMP JUMPDEST SWAP2 POP PUSH2 0x100B DUP4 PUSH2 0xD8B JUMP JUMPDEST SWAP3 POP DUP3 DUP3 SUB SWAP1 POP DUP2 DUP2 GT ISZERO PUSH2 0x1023 JUMPI PUSH2 0x1022 PUSH2 0xFC9 JUMP JUMPDEST JUMPDEST SWAP3 SWAP2 POP POP JUMP JUMPDEST PUSH32 0x45524332303A206275726E20616D6F756E74206578636565647320616C6C6F77 PUSH0 DUP3 ADD MSTORE PUSH32 0x616E636500000000000000000000000000000000000000000000000000000000 PUSH1 0x20 DUP3 ADD MSTORE POP JUMP JUMPDEST PUSH0 PUSH2 0x1083 PUSH1 0x24 DUP4 PUSH2 0xC8D JUMP JUMPDEST SWAP2 POP PUSH2 0x108E DUP3 PUSH2 0x1029 JUMP JUMPDEST PUSH1 0x40 DUP3 ADD SWAP1 POP SWAP2 SWAP1 POP JUMP JUMPDEST PUSH0 PUSH1 0x20 DUP3 ADD SWAP1 POP DUP2 DUP2 SUB PUSH0 DUP4 ADD MSTORE PUSH2 0x10B0 DUP2 PUSH2 0x1077 JUMP JUMPDEST SWAP1 POP SWAP2 SWAP1 POP JUMP JUMPDEST PUSH32 0x45524332303A20617070726F76652066726F6D20746865207A65726F20616464 PUSH0 DUP3 ADD MSTORE PUSH32 0x7265737300000000000000000000000000000000000000000000000000000000 PUSH1 0x20 DUP3 ADD MSTORE POP JUMP JUMPDEST PUSH0 PUSH2 0x1111 PUSH1 0x24 DUP4 PUSH2 0xC8D JUMP JUMPDEST SWAP2 POP PUSH2 0x111C DUP3 PUSH2 0x10B7 JUMP JUMPDEST PUSH1 0x40 DUP3 ADD SWAP1 POP SWAP2 SWAP1 POP JUMP JUMPDEST PUSH0 PUSH1 0x20 DUP3 ADD SWAP1 POP DUP2 DUP2 SUB PUSH0 DUP4 ADD MSTORE PUSH2 0x113E DUP2 PUSH2 0x1105 JUMP JUMPDEST SWAP1 POP SWAP2 SWAP1 POP JUMP JUMPDEST PUSH32 0x45524332303A20617070726F766520746F20746865207A65726F206164647265 PUSH0 DUP3 ADD MSTORE PUSH32 0x7373000000000000000000000000000000000000000000000000000000000000 PUSH1 0x20 DUP3 ADD MSTORE POP JUMP JUMPDEST PUSH0 PUSH2 0x119F PUSH1 0x22 DUP4 PUSH2 0xC8D JUMP JUMPDEST SWAP2 POP PUSH2 0x11AA DUP3 PUSH2 0x1145 JUMP JUMPDEST PUSH1 0x40 DUP3 ADD SWAP1 POP SWAP2 SWAP1 POP JUMP JUMPDEST PUSH0 PUSH1 0x20 DUP3 ADD SWAP1 POP DUP2 DUP2 SUB PUSH0 DUP4 ADD MSTORE PUSH2 0x11CC DUP2 PUSH2 0x1193 JUMP JUMPDEST SWAP1 POP SWAP2 SWAP1 POP JUMP JUMPDEST PUSH32 0x45524332303A20617070726F766520616D6F756E74206D757374206265206772 PUSH0 DUP3 ADD MSTORE PUSH32 0x6561746572207468616E20300000000000000000000000000000000000000000 PUSH1 0x20 DUP3 ADD MSTORE POP JUMP JUMPDEST PUSH0 PUSH2 0x122D PUSH1 0x2C DUP4 PUSH2 0xC8D JUMP JUMPDEST SWAP2 POP PUSH2 0x1238 DUP3 PUSH2 0x11D3 JUMP JUMPDEST PUSH1 0x40 DUP3 ADD SWAP1 POP SWAP2 SWAP1 POP JUMP JUMPDEST PUSH0 PUSH1 0x20 DUP3 ADD SWAP1 POP DUP2 DUP2 SUB PUSH0 DUP4 ADD MSTORE PUSH2 0x125A DUP2 PUSH2 0x1221 JUMP JUMPDEST SWAP1 POP SWAP2 SWAP1 POP JUMP JUMPDEST PUSH32 0x45524332303A207472616E736665722066726F6D20746865207A65726F206164 PUSH0 DUP3 ADD MSTORE PUSH32 0x6472657373000000000000000000000000000000000000000000000000000000 PUSH1 0x20 DUP3 ADD MSTORE POP JUMP JUMPDEST PUSH0 PUSH2 0x12BB PUSH1 0x25 DUP4 PUSH2 0xC8D JUMP JUMPDEST SWAP2 POP PUSH2 0x12C6 DUP3 PUSH2 0x1261 JUMP JUMPDEST PUSH1 0x40 DUP3 ADD SWAP1 POP SWAP2 SWAP1 POP JUMP JUMPDEST PUSH0 PUSH1 0x20 DUP3 ADD SWAP1 POP DUP2 DUP2 SUB PUSH0 DUP4 ADD MSTORE PUSH2 0x12E8 DUP2 PUSH2 0x12AF JUMP JUMPDEST SWAP1 POP SWAP2 SWAP1 POP JUMP JUMPDEST PUSH32 0x45524332303A207472616E7366657220746F20746865207A65726F2061646472 PUSH0 DUP3 ADD MSTORE PUSH32 0x6573730000000000000000000000000000000000000000000000000000000000 PUSH1 0x20 DUP3 ADD MSTORE POP JUMP JUMPDEST PUSH0 PUSH2 0x1349 PUSH1 0x23 DUP4 PUSH2 0xC8D JUMP JUMPDEST SWAP2 POP PUSH2 0x1354 DUP3 PUSH2 0x12EF JUMP JUMPDEST PUSH1 0x40 DUP3 ADD SWAP1 POP SWAP2 SWAP1 POP JUMP JUMPDEST PUSH0 PUSH1 0x20 DUP3 ADD SWAP1 POP DUP2 DUP2 SUB PUSH0 DUP4 ADD MSTORE PUSH2 0x1376 DUP2 PUSH2 0x133D JUMP JUMPDEST SWAP1 POP SWAP2 SWAP1 POP JUMP JUMPDEST PUSH32 0x45524332303A207472616E7366657220616D6F756E74206D7573742062652067 PUSH0 DUP3 ADD MSTORE PUSH32 0x726561746572207468616E203000000000000000000000000000000000000000 PUSH1 0x20 DUP3 ADD MSTORE POP JUMP JUMPDEST PUSH0 PUSH2 0x13D7 PUSH1 0x2D DUP4 PUSH2 0xC8D JUMP JUMPDEST SWAP2 POP PUSH2 0x13E2 DUP3 PUSH2 0x137D JUMP JUMPDEST PUSH1 0x40 DUP3 ADD SWAP1 POP SWAP2 SWAP1 POP JUMP JUMPDEST PUSH0 PUSH1 0x20 DUP3 ADD SWAP1 POP DUP2 DUP2 SUB PUSH0 DUP4 ADD MSTORE PUSH2 0x1404 DUP2 PUSH2 0x13CB JUMP JUMPDEST SWAP1 POP SWAP2 SWAP1 POP JUMP JUMPDEST PUSH32 0x45524332303A207472616E7366657220616D6F756E7420657863656564732062 PUSH0 DUP3 ADD MSTORE PUSH32 0x616C616E63650000000000000000000000000000000000000000000000000000 PUSH1 0x20 DUP3 ADD MSTORE POP JUMP JUMPDEST PUSH0 PUSH2 0x1465 PUSH1 0x26 DUP4 PUSH2 0xC8D JUMP JUMPDEST SWAP2 POP PUSH2 0x1470 DUP3 PUSH2 0x140B JUMP JUMPDEST PUSH1 0x40 DUP3 ADD SWAP1 POP SWAP2 SWAP1 POP JUMP JUMPDEST PUSH0 PUSH1 0x20 DUP3 ADD SWAP1 POP DUP2 DUP2 SUB PUSH0 DUP4 ADD MSTORE PUSH2 0x1492 DUP2 PUSH2 0x1459 JUMP JUMPDEST SWAP1 POP SWAP2 SWAP1 POP JUMP JUMPDEST PUSH0 PUSH2 0x14A3 DUP3 PUSH2 0xD8B JUMP JUMPDEST SWAP2 POP PUSH2 0x14AE DUP4 PUSH2 0xD8B JUMP JUMPDEST SWAP3 POP DUP3 DUP3 ADD SWAP1 POP DUP1 DUP3 GT ISZERO PUSH2 0x14C6 JUMPI PUSH2 0x14C5 PUSH2 0xFC9 JUMP JUMPDEST JUMPDEST SWAP3 SWAP2 POP POP JUMP JUMPDEST PUSH32 0x45524332303A206275726E2066726F6D20746865207A65726F20616464726573 PUSH0 DUP3 ADD MSTORE PUSH32 0x7300000000000000000000000000000000000000000000000000000000000000 PUSH1 0x20 DUP3 ADD MSTORE POP JUMP JUMPDEST PUSH0 PUSH2 0x1526 PUSH1 0x21 DUP4 PUSH2 0xC8D JUMP JUMPDEST SWAP2 POP PUSH2 0x1531 DUP3 PUSH2 0x14CC JUMP JUMPDEST PUSH1 0x40 DUP3 ADD SWAP1 POP SWAP2 SWAP1 POP JUMP JUMPDEST PUSH0 PUSH1 0x20 DUP3 ADD SWAP1 POP DUP2 DUP2 SUB PUSH0 DUP4 ADD MSTORE PUSH2 0x1553 DUP2 PUSH2 0x151A JUMP JUMPDEST SWAP1 POP SWAP2 SWAP1 POP JUMP JUMPDEST PUSH32 0x45524332303A206275726E20616D6F756E7420657863656564732062616C616E PUSH0 DUP3 ADD MSTORE PUSH32 0x6365000000000000000000000000000000000000000000000000000000000000 PUSH1 0x20 DUP3 ADD MSTORE POP JUMP JUMPDEST PUSH0 PUSH2 0x15B4 PUSH1 0x22 DUP4 PUSH2 0xC8D JUMP JUMPDEST SWAP2 POP PUSH2 0x15BF DUP3 PUSH2 0x155A JUMP JUMPDEST PUSH1 0x40 DUP3 ADD SWAP1 POP SWAP2 SWAP1 POP JUMP JUMPDEST PUSH0 PUSH1 0x20 DUP3 ADD SWAP1 POP DUP2 DUP2 SUB PUSH0 DUP4 ADD MSTORE PUSH2 0x15E1 DUP2 PUSH2 0x15A8 JUMP JUMPDEST SWAP1 POP SWAP2 SWAP1 POP JUMP INVALID LOG2 PUSH5 0x6970667358 0x22 SLT KECCAK256 0xD8 0xD3 PUSH23 0x597B10D420D9BADE32EAACEA0F6157DE40E1DB6A5BE4B DUP13 0x4D 0x22 BLOCKHASH 0xD1 SLT PUSH5 0x736F6C6343 STOP ADDMOD EQ STOP CALLER "
				},
				"gasEstimates": {
					"creation": {
						"codeDepositCost": "1132400",
						"executionCost": "infinite",
						"totalCost": "infinite"
					},
					"external": {
						"allowance(address,address)": "infinite",
						"approve(address,uint256)": "infinite",
						"balanceOf(address)": "2851",
						"burn(uint256)": "infinite",
						"burnFrom(address,uint256)": "infinite",
						"decimals()": "414",
						"name()": "infinite",
						"symbol()": "infinite",
						"totalSupply()": "2477",
						"transfer(address,uint256)": "infinite",
						"transferFrom(address,address,uint256)": "infinite"
					},
					"internal": {
						"_approve(address,address,uint256)": "infinite",
						"_burn(address,uint256)": "infinite",
						"_mint(address,uint256)": "infinite",
						"_transfer(address,address,uint256)": "infinite"
					}
				},
				"methodIdentifiers": {
					"allowance(address,address)": "dd62ed3e",
					"approve(address,uint256)": "095ea7b3",
					"balanceOf(address)": "70a08231",
					"burn(uint256)": "42966c68",
					"burnFrom(address,uint256)": "79cc6790",
					"decimals()": "313ce567",
					"name()": "06fdde03",
					"symbol()": "95d89b41",
					"totalSupply()": "18160ddd",
					"transfer(address,uint256)": "a9059cbb",
					"transferFrom(address,address,uint256)": "23b872dd"
				}
			},
			"storageLayout": {
				"storage": [
					{
						"astId": 93,
						"contract": "contracts/MyToken.sol:MyToken",
						"label": "_totalSupply",
						"offset": 0,
						"slot": "0",
						"type": "t_uint256"
					},
					{
						"astId": 97,
						"contract": "contracts/MyToken.sol:MyToken",
						"label": "_balances",
						"offset": 0,
						"slot": "1",
						"type": "t_mapping(t_address,t_uint256)"
					},
					{
						"astId": 103,
						"contract": "contracts/MyToken.sol:MyToken",
						"label": "_allowances",
						"offset": 0,
						"slot": "2",
						"type": "t_mapping(t_address,t_mapping(t_address,t_uint256))"
					}
				],
				"types": {
					"t_address": {
						"encoding": "inplace",
						"label": "address",
						"numberOfBytes": "20"
					},
					"t_mapping(t_address,t_mapping(t_address,t_uint256))": {
						"encoding": "mapping",
						"key": "t_address",
						"label": "mapping(address => mapping(address => uint256))",
						"numberOfBytes": "32",
						"value": "t_mapping(t_address,t_uint256)"
					},
					"t_mapping(t_address,t_uint256)": {
						"encoding": "mapping",
						"key": "t_address",
						"label": "mapping(address => uint256)",
						"numberOfBytes": "32",
						"value": "t_uint256"
					},
					"t_uint256": {
						"encoding": "inplace",
						"label": "uint256",
						"numberOfBytes": "32"
					}
				}
			},
			"userdoc": {
				"kind": "user",
				"methods": {},
				"version": 1
			}
		}
	}
}